{
	"crowdfunding.sol": {
		"crowdFunding": {
			"abi": [
				{
					"inputs": [
						{
							"internalType": "uint256",
							"name": "_targetAmount",
							"type": "uint256"
						},
						{
							"internalType": "uint256",
							"name": "_deadline",
							"type": "uint256"
						}
					],
					"stateMutability": "nonpayable",
					"type": "constructor"
				},
				{
					"inputs": [
						{
							"internalType": "string",
							"name": "_description",
							"type": "string"
						},
						{
							"internalType": "address payable",
							"name": "_recipient",
							"type": "address"
						},
						{
							"internalType": "uint256",
							"name": "_value",
							"type": "uint256"
						}
					],
					"name": "createRequest",
					"outputs": [],
					"stateMutability": "nonpayable",
					"type": "function"
				},
				{
					"inputs": [],
					"name": "deadline",
					"outputs": [
						{
							"internalType": "uint256",
							"name": "",
							"type": "uint256"
						}
					],
					"stateMutability": "view",
					"type": "function"
				},
				{
					"inputs": [
						{
							"internalType": "address",
							"name": "",
							"type": "address"
						}
					],
					"name": "fundContributors",
					"outputs": [
						{
							"internalType": "uint256",
							"name": "",
							"type": "uint256"
						}
					],
					"stateMutability": "view",
					"type": "function"
				},
				{
					"inputs": [],
					"name": "getBalance",
					"outputs": [
						{
							"internalType": "uint256",
							"name": "",
							"type": "uint256"
						}
					],
					"stateMutability": "view",
					"type": "function"
				},
				{
					"inputs": [
						{
							"internalType": "uint256",
							"name": "_requestNum",
							"type": "uint256"
						}
					],
					"name": "makePayament",
					"outputs": [],
					"stateMutability": "nonpayable",
					"type": "function"
				},
				{
					"inputs": [],
					"name": "manager",
					"outputs": [
						{
							"internalType": "address",
							"name": "",
							"type": "address"
						}
					],
					"stateMutability": "view",
					"type": "function"
				},
				{
					"inputs": [],
					"name": "numRequets",
					"outputs": [
						{
							"internalType": "uint256",
							"name": "",
							"type": "uint256"
						}
					],
					"stateMutability": "view",
					"type": "function"
				},
				{
					"inputs": [],
					"name": "reaisedAmount",
					"outputs": [
						{
							"internalType": "uint256",
							"name": "",
							"type": "uint256"
						}
					],
					"stateMutability": "view",
					"type": "function"
				},
				{
					"inputs": [],
					"name": "refund",
					"outputs": [],
					"stateMutability": "nonpayable",
					"type": "function"
				},
				{
					"inputs": [
						{
							"internalType": "uint256",
							"name": "",
							"type": "uint256"
						}
					],
					"name": "requests",
					"outputs": [
						{
							"internalType": "string",
							"name": "description",
							"type": "string"
						},
						{
							"internalType": "address payable",
							"name": "recipient",
							"type": "address"
						},
						{
							"internalType": "uint256",
							"name": "value",
							"type": "uint256"
						},
						{
							"internalType": "bool",
							"name": "completed",
							"type": "bool"
						}
					],
					"stateMutability": "view",
					"type": "function"
				},
				{
					"inputs": [],
					"name": "sendFunds",
					"outputs": [],
					"stateMutability": "payable",
					"type": "function"
				},
				{
					"inputs": [],
					"name": "targetAmount",
					"outputs": [
						{
							"internalType": "uint256",
							"name": "",
							"type": "uint256"
						}
					],
					"stateMutability": "view",
					"type": "function"
				}
			],
			"devdoc": {
				"kind": "dev",
				"methods": {},
				"version": 1
			},
			"evm": {
				"assembly": "    /* \"crowdfunding.sol\":58:2595  contract crowdFunding {... */\n  mstore(0x40, 0x80)\n    /* \"crowdfunding.sol\":583:784  constructor(uint _targetAmount, uint _deadline) {... */\n  callvalue\n  dup1\n  iszero\n  tag_1\n  jumpi\n  0x00\n  dup1\n  revert\ntag_1:\n  pop\n  mload(0x40)\n  sub(codesize, bytecodeSize)\n  dup1\n  bytecodeSize\n  dup4\n  codecopy\n  dup2\n  dup2\n  add\n  0x40\n  mstore\n  dup2\n  add\n  swap1\n  tag_2\n  swap2\n  swap1\n  tag_3\n  jump\t// in\ntag_2:\n    /* \"crowdfunding.sol\":656:669  _targetAmount */\n  dup2\n    /* \"crowdfunding.sol\":641:653  targetAmount */\n  0x03\n    /* \"crowdfunding.sol\":641:669  targetAmount = _targetAmount */\n  dup2\n  swap1\n  sstore\n  pop\n    /* \"crowdfunding.sol\":690:699  _deadline */\n  dup1\n    /* \"crowdfunding.sol\":679:687  deadline */\n  0x02\n    /* \"crowdfunding.sol\":679:699  deadline = _deadline */\n  dup2\n  swap1\n  sstore\n  pop\n    /* \"crowdfunding.sol\":738:747  _deadline */\n  dup1\n    /* \"crowdfunding.sol\":720:735  block.timestamp */\n  timestamp\n    /* \"crowdfunding.sol\":720:747  block.timestamp + _deadline */\n  tag_6\n  swap2\n  swap1\n  tag_7\n  jump\t// in\ntag_6:\n    /* \"crowdfunding.sol\":709:717  deadline */\n  0x02\n    /* \"crowdfunding.sol\":709:747  deadline = block.timestamp + _deadline */\n  dup2\n  swap1\n  sstore\n  pop\n    /* \"crowdfunding.sol\":767:777  msg.sender */\n  caller\n    /* \"crowdfunding.sol\":757:764  manager */\n  0x01\n  0x00\n    /* \"crowdfunding.sol\":757:777  manager = msg.sender */\n  0x0100\n  exp\n  dup2\n  sload\n  dup2\n  0xffffffffffffffffffffffffffffffffffffffff\n  mul\n  not\n  and\n  swap1\n  dup4\n  0xffffffffffffffffffffffffffffffffffffffff\n  and\n  mul\n  or\n  swap1\n  sstore\n  pop\n    /* \"crowdfunding.sol\":583:784  constructor(uint _targetAmount, uint _deadline) {... */\n  pop\n  pop\n    /* \"crowdfunding.sol\":58:2595  contract crowdFunding {... */\n  jump(tag_8)\n    /* \"#utility.yul\":88:205   */\ntag_10:\n    /* \"#utility.yul\":197:198   */\n  0x00\n    /* \"#utility.yul\":194:195   */\n  dup1\n    /* \"#utility.yul\":187:199   */\n  revert\n    /* \"#utility.yul\":334:411   */\ntag_12:\n    /* \"#utility.yul\":371:378   */\n  0x00\n    /* \"#utility.yul\":400:405   */\n  dup2\n    /* \"#utility.yul\":389:405   */\n  swap1\n  pop\n    /* \"#utility.yul\":334:411   */\n  swap2\n  swap1\n  pop\n  jump\t// out\n    /* \"#utility.yul\":417:539   */\ntag_13:\n    /* \"#utility.yul\":490:514   */\n  tag_22\n    /* \"#utility.yul\":508:513   */\n  dup2\n    /* \"#utility.yul\":490:514   */\n  tag_12\n  jump\t// in\ntag_22:\n    /* \"#utility.yul\":483:488   */\n  dup2\n    /* \"#utility.yul\":480:515   */\n  eq\n    /* \"#utility.yul\":470:533   */\n  tag_23\n  jumpi\n    /* \"#utility.yul\":529:530   */\n  0x00\n    /* \"#utility.yul\":526:527   */\n  dup1\n    /* \"#utility.yul\":519:531   */\n  revert\n    /* \"#utility.yul\":470:533   */\ntag_23:\n    /* \"#utility.yul\":417:539   */\n  pop\n  jump\t// out\n    /* \"#utility.yul\":545:688   */\ntag_14:\n    /* \"#utility.yul\":602:607   */\n  0x00\n    /* \"#utility.yul\":633:639   */\n  dup2\n    /* \"#utility.yul\":627:640   */\n  mload\n    /* \"#utility.yul\":618:640   */\n  swap1\n  pop\n    /* \"#utility.yul\":649:682   */\n  tag_25\n    /* \"#utility.yul\":676:681   */\n  dup2\n    /* \"#utility.yul\":649:682   */\n  tag_13\n  jump\t// in\ntag_25:\n    /* \"#utility.yul\":545:688   */\n  swap3\n  swap2\n  pop\n  pop\n  jump\t// out\n    /* \"#utility.yul\":694:1201   */\ntag_3:\n    /* \"#utility.yul\":773:779   */\n  0x00\n    /* \"#utility.yul\":781:787   */\n  dup1\n    /* \"#utility.yul\":830:832   */\n  0x40\n    /* \"#utility.yul\":818:827   */\n  dup4\n    /* \"#utility.yul\":809:816   */\n  dup6\n    /* \"#utility.yul\":805:828   */\n  sub\n    /* \"#utility.yul\":801:833   */\n  slt\n    /* \"#utility.yul\":798:917   */\n  iszero\n  tag_27\n  jumpi\n    /* \"#utility.yul\":836:915   */\n  tag_28\n  tag_10\n  jump\t// in\ntag_28:\n    /* \"#utility.yul\":798:917   */\ntag_27:\n    /* \"#utility.yul\":956:957   */\n  0x00\n    /* \"#utility.yul\":981:1045   */\n  tag_29\n    /* \"#utility.yul\":1037:1044   */\n  dup6\n    /* \"#utility.yul\":1028:1034   */\n  dup3\n    /* \"#utility.yul\":1017:1026   */\n  dup7\n    /* \"#utility.yul\":1013:1035   */\n  add\n    /* \"#utility.yul\":981:1045   */\n  tag_14\n  jump\t// in\ntag_29:\n    /* \"#utility.yul\":971:1045   */\n  swap3\n  pop\n    /* \"#utility.yul\":927:1055   */\n  pop\n    /* \"#utility.yul\":1094:1096   */\n  0x20\n    /* \"#utility.yul\":1120:1184   */\n  tag_30\n    /* \"#utility.yul\":1176:1183   */\n  dup6\n    /* \"#utility.yul\":1167:1173   */\n  dup3\n    /* \"#utility.yul\":1156:1165   */\n  dup7\n    /* \"#utility.yul\":1152:1174   */\n  add\n    /* \"#utility.yul\":1120:1184   */\n  tag_14\n  jump\t// in\ntag_30:\n    /* \"#utility.yul\":1110:1184   */\n  swap2\n  pop\n    /* \"#utility.yul\":1065:1194   */\n  pop\n    /* \"#utility.yul\":694:1201   */\n  swap3\n  pop\n  swap3\n  swap1\n  pop\n  jump\t// out\n    /* \"#utility.yul\":1207:1387   */\ntag_15:\n    /* \"#utility.yul\":1255:1332   */\n  0x4e487b7100000000000000000000000000000000000000000000000000000000\n    /* \"#utility.yul\":1252:1253   */\n  0x00\n    /* \"#utility.yul\":1245:1333   */\n  mstore\n    /* \"#utility.yul\":1352:1356   */\n  0x11\n    /* \"#utility.yul\":1349:1350   */\n  0x04\n    /* \"#utility.yul\":1342:1357   */\n  mstore\n    /* \"#utility.yul\":1376:1380   */\n  0x24\n    /* \"#utility.yul\":1373:1374   */\n  0x00\n    /* \"#utility.yul\":1366:1381   */\n  revert\n    /* \"#utility.yul\":1393:1584   */\ntag_7:\n    /* \"#utility.yul\":1433:1436   */\n  0x00\n    /* \"#utility.yul\":1452:1472   */\n  tag_33\n    /* \"#utility.yul\":1470:1471   */\n  dup3\n    /* \"#utility.yul\":1452:1472   */\n  tag_12\n  jump\t// in\ntag_33:\n    /* \"#utility.yul\":1447:1472   */\n  swap2\n  pop\n    /* \"#utility.yul\":1486:1506   */\n  tag_34\n    /* \"#utility.yul\":1504:1505   */\n  dup4\n    /* \"#utility.yul\":1486:1506   */\n  tag_12\n  jump\t// in\ntag_34:\n    /* \"#utility.yul\":1481:1506   */\n  swap3\n  pop\n    /* \"#utility.yul\":1529:1530   */\n  dup3\n    /* \"#utility.yul\":1526:1527   */\n  dup3\n    /* \"#utility.yul\":1522:1531   */\n  add\n    /* \"#utility.yul\":1515:1531   */\n  swap1\n  pop\n    /* \"#utility.yul\":1550:1553   */\n  dup1\n    /* \"#utility.yul\":1547:1548   */\n  dup3\n    /* \"#utility.yul\":1544:1554   */\n  gt\n    /* \"#utility.yul\":1541:1577   */\n  iszero\n  tag_35\n  jumpi\n    /* \"#utility.yul\":1557:1575   */\n  tag_36\n  tag_15\n  jump\t// in\ntag_36:\n    /* \"#utility.yul\":1541:1577   */\ntag_35:\n    /* \"#utility.yul\":1393:1584   */\n  swap3\n  swap2\n  pop\n  pop\n  jump\t// out\n    /* \"crowdfunding.sol\":58:2595  contract crowdFunding {... */\ntag_8:\n  dataSize(sub_0)\n  dup1\n  dataOffset(sub_0)\n  0x00\n  codecopy\n  0x00\n  return\nstop\n\nsub_0: assembly {\n        /* \"crowdfunding.sol\":58:2595  contract crowdFunding {... */\n      mstore(0x40, 0x80)\n      jumpi(tag_1, lt(calldatasize, 0x04))\n      shr(0xe0, calldataload(0x00))\n      dup1\n      0x590e1ae3\n      gt\n      tag_14\n      jumpi\n      dup1\n      0x590e1ae3\n      eq\n      tag_8\n      jumpi\n      dup1\n      0x81d12c58\n      eq\n      tag_9\n      jumpi\n      dup1\n      0x87a316dc\n      eq\n      tag_10\n      jumpi\n      dup1\n      0x8d68cf59\n      eq\n      tag_11\n      jumpi\n      dup1\n      0x953b8fb8\n      eq\n      tag_12\n      jumpi\n      dup1\n      0xc1597b33\n      eq\n      tag_13\n      jumpi\n      jump(tag_1)\n    tag_14:\n      dup1\n      0x12065fe0\n      eq\n      tag_2\n      jumpi\n      dup1\n      0x1b16bb5c\n      eq\n      tag_3\n      jumpi\n      dup1\n      0x29dcb0cf\n      eq\n      tag_4\n      jumpi\n      dup1\n      0x4034a539\n      eq\n      tag_5\n      jumpi\n      dup1\n      0x41a67b6f\n      eq\n      tag_6\n      jumpi\n      dup1\n      0x481c6a75\n      eq\n      tag_7\n      jumpi\n    tag_1:\n      0x00\n      dup1\n      revert\n        /* \"crowdfunding.sol\":1095:1189  function getBalance() public view returns (uint) {... */\n    tag_2:\n      callvalue\n      dup1\n      iszero\n      tag_15\n      jumpi\n      0x00\n      dup1\n      revert\n    tag_15:\n      pop\n      tag_16\n      tag_17\n      jump\t// in\n    tag_16:\n      mload(0x40)\n      tag_18\n      swap2\n      swap1\n      tag_19\n      jump\t// in\n    tag_18:\n      mload(0x40)\n      dup1\n      swap2\n      sub\n      swap1\n      return\n        /* \"crowdfunding.sol\":1816:2168  function createRequest(string memory _description, address payable _recipient, uint _value) public {... */\n    tag_3:\n      callvalue\n      dup1\n      iszero\n      tag_20\n      jumpi\n      0x00\n      dup1\n      revert\n    tag_20:\n      pop\n      tag_21\n      0x04\n      dup1\n      calldatasize\n      sub\n      dup2\n      add\n      swap1\n      tag_22\n      swap2\n      swap1\n      tag_23\n      jump\t// in\n    tag_22:\n      tag_24\n      jump\t// in\n    tag_21:\n      stop\n        /* \"crowdfunding.sol\":200:220  uint public deadline */\n    tag_4:\n      callvalue\n      dup1\n      iszero\n      tag_25\n      jumpi\n      0x00\n      dup1\n      revert\n    tag_25:\n      pop\n      tag_26\n      tag_27\n      jump\t// in\n    tag_26:\n      mload(0x40)\n      tag_28\n      swap2\n      swap1\n      tag_19\n      jump\t// in\n    tag_28:\n      mload(0x40)\n      dup1\n      swap2\n      sub\n      swap1\n      return\n        /* \"crowdfunding.sol\":87:135  mapping(address => uint) public fundContributors */\n    tag_5:\n      callvalue\n      dup1\n      iszero\n      tag_29\n      jumpi\n      0x00\n      dup1\n      revert\n    tag_29:\n      pop\n      tag_30\n      0x04\n      dup1\n      calldatasize\n      sub\n      dup2\n      add\n      swap1\n      tag_31\n      swap2\n      swap1\n      tag_32\n      jump\t// in\n    tag_31:\n      tag_33\n      jump\t// in\n    tag_30:\n      mload(0x40)\n      tag_34\n      swap2\n      swap1\n      tag_19\n      jump\t// in\n    tag_34:\n      mload(0x40)\n      dup1\n      swap2\n      sub\n      swap1\n      return\n        /* \"crowdfunding.sol\":554:576  uint public numRequets */\n    tag_6:\n      callvalue\n      dup1\n      iszero\n      tag_35\n      jumpi\n      0x00\n      dup1\n      revert\n    tag_35:\n      pop\n      tag_36\n      tag_37\n      jump\t// in\n    tag_36:\n      mload(0x40)\n      tag_38\n      swap2\n      swap1\n      tag_19\n      jump\t// in\n    tag_38:\n      mload(0x40)\n      dup1\n      swap2\n      sub\n      swap1\n      return\n        /* \"crowdfunding.sol\":142:164  address public manager */\n    tag_7:\n      callvalue\n      dup1\n      iszero\n      tag_39\n      jumpi\n      0x00\n      dup1\n      revert\n    tag_39:\n      pop\n      tag_40\n      tag_41\n      jump\t// in\n    tag_40:\n      mload(0x40)\n      tag_42\n      swap2\n      swap1\n      tag_43\n      jump\t// in\n    tag_42:\n      mload(0x40)\n      dup1\n      swap2\n      sub\n      swap1\n      return\n        /* \"crowdfunding.sol\":1223:1553  function refund() public  {... */\n    tag_8:\n      callvalue\n      dup1\n      iszero\n      tag_44\n      jumpi\n      0x00\n      dup1\n      revert\n    tag_44:\n      pop\n      tag_45\n      tag_46\n      jump\t// in\n    tag_45:\n      stop\n        /* \"crowdfunding.sol\":507:548  mapping (uint => Request) public requests */\n    tag_9:\n      callvalue\n      dup1\n      iszero\n      tag_47\n      jumpi\n      0x00\n      dup1\n      revert\n    tag_47:\n      pop\n      tag_48\n      0x04\n      dup1\n      calldatasize\n      sub\n      dup2\n      add\n      swap1\n      tag_49\n      swap2\n      swap1\n      tag_50\n      jump\t// in\n    tag_49:\n      tag_51\n      jump\t// in\n    tag_48:\n      mload(0x40)\n      tag_52\n      swap5\n      swap4\n      swap3\n      swap2\n      swap1\n      tag_53\n      jump\t// in\n    tag_52:\n      mload(0x40)\n      dup1\n      swap2\n      sub\n      swap1\n      return\n        /* \"crowdfunding.sol\":318:343  uint public reaisedAmount */\n    tag_10:\n      callvalue\n      dup1\n      iszero\n      tag_54\n      jumpi\n      0x00\n      dup1\n      revert\n    tag_54:\n      pop\n      tag_55\n      tag_56\n      jump\t// in\n    tag_55:\n      mload(0x40)\n      tag_57\n      swap2\n      swap1\n      tag_19\n      jump\t// in\n    tag_57:\n      mload(0x40)\n      dup1\n      swap2\n      sub\n      swap1\n      return\n        /* \"crowdfunding.sol\":840:1038  function sendFunds() public payable {... */\n    tag_11:\n      tag_58\n      tag_59\n      jump\t// in\n    tag_58:\n      stop\n        /* \"crowdfunding.sol\":262:286  uint public targetAmount */\n    tag_12:\n      callvalue\n      dup1\n      iszero\n      tag_60\n      jumpi\n      0x00\n      dup1\n      revert\n    tag_60:\n      pop\n      tag_61\n      tag_62\n      jump\t// in\n    tag_61:\n      mload(0x40)\n      tag_63\n      swap2\n      swap1\n      tag_19\n      jump\t// in\n    tag_63:\n      mload(0x40)\n      dup1\n      swap2\n      sub\n      swap1\n      return\n        /* \"crowdfunding.sol\":2210:2591  function makePayament(uint _requestNum) public onlyManager{... */\n    tag_13:\n      callvalue\n      dup1\n      iszero\n      tag_64\n      jumpi\n      0x00\n      dup1\n      revert\n    tag_64:\n      pop\n      tag_65\n      0x04\n      dup1\n      calldatasize\n      sub\n      dup2\n      add\n      swap1\n      tag_66\n      swap2\n      swap1\n      tag_50\n      jump\t// in\n    tag_66:\n      tag_67\n      jump\t// in\n    tag_65:\n      stop\n        /* \"crowdfunding.sol\":1095:1189  function getBalance() public view returns (uint) {... */\n    tag_17:\n        /* \"crowdfunding.sol\":1138:1142  uint */\n      0x00\n        /* \"crowdfunding.sol\":1161:1182  address(this).balance */\n      selfbalance\n        /* \"crowdfunding.sol\":1154:1182  return address(this).balance */\n      swap1\n      pop\n        /* \"crowdfunding.sol\":1095:1189  function getBalance() public view returns (uint) {... */\n      swap1\n      jump\t// out\n        /* \"crowdfunding.sol\":1816:2168  function createRequest(string memory _description, address payable _recipient, uint _value) public {... */\n    tag_24:\n        /* \"crowdfunding.sol\":1925:1951  Request storage newRequest */\n      0x00\n        /* \"crowdfunding.sol\":1954:1962  requests */\n      0x05\n        /* \"crowdfunding.sol\":1954:1974  requests[numRequets] */\n      0x00\n        /* \"crowdfunding.sol\":1963:1973  numRequets */\n      sload(0x06)\n        /* \"crowdfunding.sol\":1954:1974  requests[numRequets] */\n      dup2\n      mstore\n      0x20\n      add\n      swap1\n      dup2\n      mstore\n      0x20\n      add\n      0x00\n      keccak256\n        /* \"crowdfunding.sol\":1925:1974  Request storage newRequest = requests[numRequets] */\n      swap1\n      pop\n        /* \"crowdfunding.sol\":1984:1994  numRequets */\n      0x06\n      0x00\n        /* \"crowdfunding.sol\":1984:1997  numRequets ++ */\n      dup2\n      sload\n      dup1\n      swap3\n      swap2\n      swap1\n      tag_70\n      swap1\n      tag_71\n      jump\t// in\n    tag_70:\n      swap2\n      swap1\n      pop\n      sstore\n      pop\n        /* \"crowdfunding.sol\":2032:2044  _description */\n      dup4\n        /* \"crowdfunding.sol\":2007:2017  newRequest */\n      dup2\n        /* \"crowdfunding.sol\":2007:2029  newRequest.description */\n      0x00\n      add\n        /* \"crowdfunding.sol\":2007:2044  newRequest.description = _description */\n      swap1\n      dup2\n      tag_72\n      swap2\n      swap1\n      tag_73\n      jump\t// in\n    tag_72:\n      pop\n        /* \"crowdfunding.sol\":2077:2087  _recipient */\n      dup3\n        /* \"crowdfunding.sol\":2054:2064  newRequest */\n      dup2\n        /* \"crowdfunding.sol\":2054:2074  newRequest.recipient */\n      0x01\n      add\n      0x00\n        /* \"crowdfunding.sol\":2054:2087  newRequest.recipient = _recipient */\n      0x0100\n      exp\n      dup2\n      sload\n      dup2\n      0xffffffffffffffffffffffffffffffffffffffff\n      mul\n      not\n      and\n      swap1\n      dup4\n      0xffffffffffffffffffffffffffffffffffffffff\n      and\n      mul\n      or\n      swap1\n      sstore\n      pop\n        /* \"crowdfunding.sol\":2116:2122  _value */\n      dup2\n        /* \"crowdfunding.sol\":2097:2107  newRequest */\n      dup2\n        /* \"crowdfunding.sol\":2097:2113  newRequest.value */\n      0x02\n      add\n        /* \"crowdfunding.sol\":2097:2122  newRequest.value = _value */\n      dup2\n      swap1\n      sstore\n      pop\n        /* \"crowdfunding.sol\":2155:2160  false */\n      0x00\n        /* \"crowdfunding.sol\":2132:2142  newRequest */\n      dup2\n        /* \"crowdfunding.sol\":2132:2152  newRequest.completed */\n      0x03\n      add\n      0x00\n        /* \"crowdfunding.sol\":2132:2160  newRequest.completed = false */\n      0x0100\n      exp\n      dup2\n      sload\n      dup2\n      0xff\n      mul\n      not\n      and\n      swap1\n      dup4\n      iszero\n      iszero\n      mul\n      or\n      swap1\n      sstore\n      pop\n        /* \"crowdfunding.sol\":1915:2168  {... */\n      pop\n        /* \"crowdfunding.sol\":1816:2168  function createRequest(string memory _description, address payable _recipient, uint _value) public {... */\n      pop\n      pop\n      pop\n      jump\t// out\n        /* \"crowdfunding.sol\":200:220  uint public deadline */\n    tag_27:\n      sload(0x02)\n      dup2\n      jump\t// out\n        /* \"crowdfunding.sol\":87:135  mapping(address => uint) public fundContributors */\n    tag_33:\n      mstore(0x20, 0x00)\n      dup1\n      0x00\n      mstore\n      keccak256(0x00, 0x40)\n      0x00\n      swap2\n      pop\n      swap1\n      pop\n      sload\n      dup2\n      jump\t// out\n        /* \"crowdfunding.sol\":554:576  uint public numRequets */\n    tag_37:\n      sload(0x06)\n      dup2\n      jump\t// out\n        /* \"crowdfunding.sol\":142:164  address public manager */\n    tag_41:\n      0x01\n      0x00\n      swap1\n      sload\n      swap1\n      0x0100\n      exp\n      swap1\n      div\n      0xffffffffffffffffffffffffffffffffffffffff\n      and\n      dup2\n      jump\t// out\n        /* \"crowdfunding.sol\":1223:1553  function refund() public  {... */\n    tag_46:\n        /* \"crowdfunding.sol\":1285:1293  deadline */\n      sload(0x02)\n        /* \"crowdfunding.sol\":1267:1282  block.timestamp */\n      timestamp\n        /* \"crowdfunding.sol\":1267:1293  block.timestamp > deadline */\n      gt\n        /* \"crowdfunding.sol\":1267:1325  block.timestamp > deadline && reaisedAmount < targetAmount */\n      dup1\n      iszero\n      tag_75\n      jumpi\n      pop\n        /* \"crowdfunding.sol\":1313:1325  targetAmount */\n      sload(0x03)\n        /* \"crowdfunding.sol\":1297:1310  reaisedAmount */\n      sload(0x04)\n        /* \"crowdfunding.sol\":1297:1325  reaisedAmount < targetAmount */\n      lt\n        /* \"crowdfunding.sol\":1267:1325  block.timestamp > deadline && reaisedAmount < targetAmount */\n    tag_75:\n        /* \"crowdfunding.sol\":1259:1380  require(block.timestamp > deadline && reaisedAmount < targetAmount, \"No se cumplio el objetivo, te regresamos el dinero\") */\n      tag_76\n      jumpi\n      mload(0x40)\n      0x08c379a000000000000000000000000000000000000000000000000000000000\n      dup2\n      mstore\n      0x04\n      add\n      tag_77\n      swap1\n      tag_78\n      jump\t// in\n    tag_77:\n      mload(0x40)\n      dup1\n      swap2\n      sub\n      swap1\n      revert\n    tag_76:\n        /* \"crowdfunding.sol\":1390:1409  uint amountToRefund */\n      0x00\n        /* \"crowdfunding.sol\":1412:1428  fundContributors */\n      dup1\n        /* \"crowdfunding.sol\":1412:1440  fundContributors[msg.sender] */\n      0x00\n        /* \"crowdfunding.sol\":1429:1439  msg.sender */\n      caller\n        /* \"crowdfunding.sol\":1412:1440  fundContributors[msg.sender] */\n      0xffffffffffffffffffffffffffffffffffffffff\n      and\n      0xffffffffffffffffffffffffffffffffffffffff\n      and\n      dup2\n      mstore\n      0x20\n      add\n      swap1\n      dup2\n      mstore\n      0x20\n      add\n      0x00\n      keccak256\n      sload\n        /* \"crowdfunding.sol\":1390:1440  uint amountToRefund = fundContributors[msg.sender] */\n      swap1\n      pop\n        /* \"crowdfunding.sol\":1475:1476  0 */\n      0x00\n        /* \"crowdfunding.sol\":1458:1472  amountToRefund */\n      dup2\n        /* \"crowdfunding.sol\":1458:1476  amountToRefund > 0 */\n      gt\n        /* \"crowdfunding.sol\":1450:1504  require(amountToRefund > 0, \"No pusiste para la vaca\") */\n      tag_79\n      jumpi\n      mload(0x40)\n      0x08c379a000000000000000000000000000000000000000000000000000000000\n      dup2\n      mstore\n      0x04\n      add\n      tag_80\n      swap1\n      tag_81\n      jump\t// in\n    tag_80:\n      mload(0x40)\n      dup1\n      swap2\n      sub\n      swap1\n      revert\n    tag_79:\n        /* \"crowdfunding.sol\":1545:1546  0 */\n      0x00\n        /* \"crowdfunding.sol\":1514:1530  fundContributors */\n      dup1\n        /* \"crowdfunding.sol\":1514:1542  fundContributors[msg.sender] */\n      0x00\n        /* \"crowdfunding.sol\":1531:1541  msg.sender */\n      caller\n        /* \"crowdfunding.sol\":1514:1542  fundContributors[msg.sender] */\n      0xffffffffffffffffffffffffffffffffffffffff\n      and\n      0xffffffffffffffffffffffffffffffffffffffff\n      and\n      dup2\n      mstore\n      0x20\n      add\n      swap1\n      dup2\n      mstore\n      0x20\n      add\n      0x00\n      keccak256\n        /* \"crowdfunding.sol\":1514:1546  fundContributors[msg.sender] = 0 */\n      dup2\n      swap1\n      sstore\n      pop\n        /* \"crowdfunding.sol\":1249:1553  {... */\n      pop\n        /* \"crowdfunding.sol\":1223:1553  function refund() public  {... */\n      jump\t// out\n        /* \"crowdfunding.sol\":507:548  mapping (uint => Request) public requests */\n    tag_51:\n      mstore(0x20, 0x05)\n      dup1\n      0x00\n      mstore\n      keccak256(0x00, 0x40)\n      0x00\n      swap2\n      pop\n      swap1\n      pop\n      dup1\n      0x00\n      add\n      dup1\n      sload\n      tag_82\n      swap1\n      tag_83\n      jump\t// in\n    tag_82:\n      dup1\n      0x1f\n      add\n      0x20\n      dup1\n      swap2\n      div\n      mul\n      0x20\n      add\n      mload(0x40)\n      swap1\n      dup2\n      add\n      0x40\n      mstore\n      dup1\n      swap3\n      swap2\n      swap1\n      dup2\n      dup2\n      mstore\n      0x20\n      add\n      dup3\n      dup1\n      sload\n      tag_84\n      swap1\n      tag_83\n      jump\t// in\n    tag_84:\n      dup1\n      iszero\n      tag_85\n      jumpi\n      dup1\n      0x1f\n      lt\n      tag_86\n      jumpi\n      0x0100\n      dup1\n      dup4\n      sload\n      div\n      mul\n      dup4\n      mstore\n      swap2\n      0x20\n      add\n      swap2\n      jump(tag_85)\n    tag_86:\n      dup3\n      add\n      swap2\n      swap1\n      0x00\n      mstore\n      keccak256(0x00, 0x20)\n      swap1\n    tag_87:\n      dup2\n      sload\n      dup2\n      mstore\n      swap1\n      0x01\n      add\n      swap1\n      0x20\n      add\n      dup1\n      dup4\n      gt\n      tag_87\n      jumpi\n      dup3\n      swap1\n      sub\n      0x1f\n      and\n      dup3\n      add\n      swap2\n    tag_85:\n      pop\n      pop\n      pop\n      pop\n      pop\n      swap1\n      dup1\n      0x01\n      add\n      0x00\n      swap1\n      sload\n      swap1\n      0x0100\n      exp\n      swap1\n      div\n      0xffffffffffffffffffffffffffffffffffffffff\n      and\n      swap1\n      dup1\n      0x02\n      add\n      sload\n      swap1\n      dup1\n      0x03\n      add\n      0x00\n      swap1\n      sload\n      swap1\n      0x0100\n      exp\n      swap1\n      div\n      0xff\n      and\n      swap1\n      pop\n      dup5\n      jump\t// out\n        /* \"crowdfunding.sol\":318:343  uint public reaisedAmount */\n    tag_56:\n      sload(0x04)\n      dup2\n      jump\t// out\n        /* \"crowdfunding.sol\":840:1038  function sendFunds() public payable {... */\n    tag_59:\n        /* \"crowdfunding.sol\":912:920  deadline */\n      sload(0x02)\n        /* \"crowdfunding.sol\":894:909  block.timestamp */\n      timestamp\n        /* \"crowdfunding.sol\":894:920  block.timestamp < deadline */\n      lt\n        /* \"crowdfunding.sol\":886:944  require(block.timestamp < deadline, \"Termino el deadline\") */\n      tag_89\n      jumpi\n      mload(0x40)\n      0x08c379a000000000000000000000000000000000000000000000000000000000\n      dup2\n      mstore\n      0x04\n      add\n      tag_90\n      swap1\n      tag_91\n      jump\t// in\n    tag_90:\n      mload(0x40)\n      dup1\n      swap2\n      sub\n      swap1\n      revert\n    tag_89:\n        /* \"crowdfunding.sol\":986:995  msg.value */\n      callvalue\n        /* \"crowdfunding.sol\":954:970  fundContributors */\n      0x00\n        /* \"crowdfunding.sol\":954:982  fundContributors[msg.sender] */\n      dup1\n        /* \"crowdfunding.sol\":971:981  msg.sender */\n      caller\n        /* \"crowdfunding.sol\":954:982  fundContributors[msg.sender] */\n      0xffffffffffffffffffffffffffffffffffffffff\n      and\n      0xffffffffffffffffffffffffffffffffffffffff\n      and\n      dup2\n      mstore\n      0x20\n      add\n      swap1\n      dup2\n      mstore\n      0x20\n      add\n      0x00\n      keccak256\n      0x00\n        /* \"crowdfunding.sol\":954:995  fundContributors[msg.sender] += msg.value */\n      dup3\n      dup3\n      sload\n      tag_92\n      swap2\n      swap1\n      tag_93\n      jump\t// in\n    tag_92:\n      swap3\n      pop\n      pop\n      dup2\n      swap1\n      sstore\n      pop\n        /* \"crowdfunding.sol\":1022:1031  msg.value */\n      callvalue\n        /* \"crowdfunding.sol\":1005:1018  reaisedAmount */\n      0x04\n      0x00\n        /* \"crowdfunding.sol\":1005:1031  reaisedAmount += msg.value */\n      dup3\n      dup3\n      sload\n      tag_94\n      swap2\n      swap1\n      tag_93\n      jump\t// in\n    tag_94:\n      swap3\n      pop\n      pop\n      dup2\n      swap1\n      sstore\n      pop\n        /* \"crowdfunding.sol\":840:1038  function sendFunds() public payable {... */\n      jump\t// out\n        /* \"crowdfunding.sol\":262:286  uint public targetAmount */\n    tag_62:\n      sload(0x03)\n      dup2\n      jump\t// out\n        /* \"crowdfunding.sol\":2210:2591  function makePayament(uint _requestNum) public onlyManager{... */\n    tag_67:\n        /* \"crowdfunding.sol\":1683:1690  manager */\n      0x01\n      0x00\n      swap1\n      sload\n      swap1\n      0x0100\n      exp\n      swap1\n      div\n      0xffffffffffffffffffffffffffffffffffffffff\n      and\n        /* \"crowdfunding.sol\":1669:1690  msg.sender == manager */\n      0xffffffffffffffffffffffffffffffffffffffff\n      and\n        /* \"crowdfunding.sol\":1669:1679  msg.sender */\n      caller\n        /* \"crowdfunding.sol\":1669:1690  msg.sender == manager */\n      0xffffffffffffffffffffffffffffffffffffffff\n      and\n      eq\n        /* \"crowdfunding.sol\":1661:1754  require(msg.sender == manager, \"Solo el administrador del contrato puede retorar los fondos\") */\n      tag_96\n      jumpi\n      mload(0x40)\n      0x08c379a000000000000000000000000000000000000000000000000000000000\n      dup2\n      mstore\n      0x04\n      add\n      tag_97\n      swap1\n      tag_98\n      jump\t// in\n    tag_97:\n      mload(0x40)\n      dup1\n      swap2\n      sub\n      swap1\n      revert\n    tag_96:\n        /* \"crowdfunding.sol\":2303:2315  targetAmount */\n      sload(0x03)\n        /* \"crowdfunding.sol\":2286:2299  reaisedAmount */\n      sload(0x04)\n        /* \"crowdfunding.sol\":2286:2315  reaisedAmount >= targetAmount */\n      lt\n      iszero\n        /* \"crowdfunding.sol\":2278:2341  require(reaisedAmount >= targetAmount, \"No se cumplio la meta\") */\n      tag_100\n      jumpi\n      mload(0x40)\n      0x08c379a000000000000000000000000000000000000000000000000000000000\n      dup2\n      mstore\n      0x04\n      add\n      tag_101\n      swap1\n      tag_102\n      jump\t// in\n    tag_101:\n      mload(0x40)\n      dup1\n      swap2\n      sub\n      swap1\n      revert\n    tag_100:\n        /* \"crowdfunding.sol\":2351:2378  Request storage thisRequest */\n      0x00\n        /* \"crowdfunding.sol\":2381:2389  requests */\n      0x05\n        /* \"crowdfunding.sol\":2381:2402  requests[_requestNum] */\n      0x00\n        /* \"crowdfunding.sol\":2390:2401  _requestNum */\n      dup4\n        /* \"crowdfunding.sol\":2381:2402  requests[_requestNum] */\n      dup2\n      mstore\n      0x20\n      add\n      swap1\n      dup2\n      mstore\n      0x20\n      add\n      0x00\n      keccak256\n        /* \"crowdfunding.sol\":2351:2402  Request storage thisRequest = requests[_requestNum] */\n      swap1\n      pop\n        /* \"crowdfunding.sol\":2445:2450  false */\n      0x00\n        /* \"crowdfunding.sol\":2420:2450  thisRequest.completed == false */\n      iszero\n      iszero\n        /* \"crowdfunding.sol\":2420:2431  thisRequest */\n      dup2\n        /* \"crowdfunding.sol\":2420:2441  thisRequest.completed */\n      0x03\n      add\n      0x00\n      swap1\n      sload\n      swap1\n      0x0100\n      exp\n      swap1\n      div\n      0xff\n      and\n        /* \"crowdfunding.sol\":2420:2450  thisRequest.completed == false */\n      iszero\n      iszero\n      eq\n        /* \"crowdfunding.sol\":2412:2486  require(thisRequest.completed == false, \"Esta peticion no fue completada\") */\n      tag_103\n      jumpi\n      mload(0x40)\n      0x08c379a000000000000000000000000000000000000000000000000000000000\n      dup2\n      mstore\n      0x04\n      add\n      tag_104\n      swap1\n      tag_105\n      jump\t// in\n    tag_104:\n      mload(0x40)\n      dup1\n      swap2\n      sub\n      swap1\n      revert\n    tag_103:\n        /* \"crowdfunding.sol\":2496:2507  thisRequest */\n      dup1\n        /* \"crowdfunding.sol\":2496:2517  thisRequest.recipient */\n      0x01\n      add\n      0x00\n      swap1\n      sload\n      swap1\n      0x0100\n      exp\n      swap1\n      div\n      0xffffffffffffffffffffffffffffffffffffffff\n      and\n        /* \"crowdfunding.sol\":2496:2526  thisRequest.recipient.transfer */\n      0xffffffffffffffffffffffffffffffffffffffff\n      and\n        /* \"crowdfunding.sol\":2496:2545  thisRequest.recipient.transfer(thisRequest.value) */\n      0x08fc\n        /* \"crowdfunding.sol\":2527:2538  thisRequest */\n      dup3\n        /* \"crowdfunding.sol\":2527:2544  thisRequest.value */\n      0x02\n      add\n      sload\n        /* \"crowdfunding.sol\":2496:2545  thisRequest.recipient.transfer(thisRequest.value) */\n      swap1\n      dup2\n      iszero\n      mul\n      swap1\n      mload(0x40)\n      0x00\n      mload(0x40)\n      dup1\n      dup4\n      sub\n      dup2\n      dup6\n      dup9\n      dup9\n      call\n      swap4\n      pop\n      pop\n      pop\n      pop\n      iszero\n      dup1\n      iszero\n      tag_107\n      jumpi\n      returndatasize\n      0x00\n      dup1\n      returndatacopy\n      revert(0x00, returndatasize)\n    tag_107:\n      pop\n        /* \"crowdfunding.sol\":2580:2584  true */\n      0x01\n        /* \"crowdfunding.sol\":2556:2567  thisRequest */\n      dup2\n        /* \"crowdfunding.sol\":2556:2577  thisRequest.completed */\n      0x03\n      add\n      0x00\n        /* \"crowdfunding.sol\":2556:2584  thisRequest.completed = true */\n      0x0100\n      exp\n      dup2\n      sload\n      dup2\n      0xff\n      mul\n      not\n      and\n      swap1\n      dup4\n      iszero\n      iszero\n      mul\n      or\n      swap1\n      sstore\n      pop\n        /* \"crowdfunding.sol\":2268:2591  {... */\n      pop\n        /* \"crowdfunding.sol\":2210:2591  function makePayament(uint _requestNum) public onlyManager{... */\n      pop\n      jump\t// out\n        /* \"#utility.yul\":7:84   */\n    tag_108:\n        /* \"#utility.yul\":44:51   */\n      0x00\n        /* \"#utility.yul\":73:78   */\n      dup2\n        /* \"#utility.yul\":62:78   */\n      swap1\n      pop\n        /* \"#utility.yul\":7:84   */\n      swap2\n      swap1\n      pop\n      jump\t// out\n        /* \"#utility.yul\":90:208   */\n    tag_109:\n        /* \"#utility.yul\":177:201   */\n      tag_172\n        /* \"#utility.yul\":195:200   */\n      dup2\n        /* \"#utility.yul\":177:201   */\n      tag_108\n      jump\t// in\n    tag_172:\n        /* \"#utility.yul\":172:175   */\n      dup3\n        /* \"#utility.yul\":165:202   */\n      mstore\n        /* \"#utility.yul\":90:208   */\n      pop\n      pop\n      jump\t// out\n        /* \"#utility.yul\":214:436   */\n    tag_19:\n        /* \"#utility.yul\":307:311   */\n      0x00\n        /* \"#utility.yul\":345:347   */\n      0x20\n        /* \"#utility.yul\":334:343   */\n      dup3\n        /* \"#utility.yul\":330:348   */\n      add\n        /* \"#utility.yul\":322:348   */\n      swap1\n      pop\n        /* \"#utility.yul\":358:429   */\n      tag_174\n        /* \"#utility.yul\":426:427   */\n      0x00\n        /* \"#utility.yul\":415:424   */\n      dup4\n        /* \"#utility.yul\":411:428   */\n      add\n        /* \"#utility.yul\":402:408   */\n      dup5\n        /* \"#utility.yul\":358:429   */\n      tag_109\n      jump\t// in\n    tag_174:\n        /* \"#utility.yul\":214:436   */\n      swap3\n      swap2\n      pop\n      pop\n      jump\t// out\n        /* \"#utility.yul\":442:517   */\n    tag_110:\n        /* \"#utility.yul\":475:481   */\n      0x00\n        /* \"#utility.yul\":508:510   */\n      0x40\n        /* \"#utility.yul\":502:511   */\n      mload\n        /* \"#utility.yul\":492:511   */\n      swap1\n      pop\n        /* \"#utility.yul\":442:517   */\n      swap1\n      jump\t// out\n        /* \"#utility.yul\":523:640   */\n    tag_111:\n        /* \"#utility.yul\":632:633   */\n      0x00\n        /* \"#utility.yul\":629:630   */\n      dup1\n        /* \"#utility.yul\":622:634   */\n      revert\n        /* \"#utility.yul\":646:763   */\n    tag_112:\n        /* \"#utility.yul\":755:756   */\n      0x00\n        /* \"#utility.yul\":752:753   */\n      dup1\n        /* \"#utility.yul\":745:757   */\n      revert\n        /* \"#utility.yul\":769:886   */\n    tag_113:\n        /* \"#utility.yul\":878:879   */\n      0x00\n        /* \"#utility.yul\":875:876   */\n      dup1\n        /* \"#utility.yul\":868:880   */\n      revert\n        /* \"#utility.yul\":892:1009   */\n    tag_114:\n        /* \"#utility.yul\":1001:1002   */\n      0x00\n        /* \"#utility.yul\":998:999   */\n      dup1\n        /* \"#utility.yul\":991:1003   */\n      revert\n        /* \"#utility.yul\":1015:1117   */\n    tag_115:\n        /* \"#utility.yul\":1056:1062   */\n      0x00\n        /* \"#utility.yul\":1107:1109   */\n      0x1f\n        /* \"#utility.yul\":1103:1110   */\n      not\n        /* \"#utility.yul\":1098:1100   */\n      0x1f\n        /* \"#utility.yul\":1091:1096   */\n      dup4\n        /* \"#utility.yul\":1087:1101   */\n      add\n        /* \"#utility.yul\":1083:1111   */\n      and\n        /* \"#utility.yul\":1073:1111   */\n      swap1\n      pop\n        /* \"#utility.yul\":1015:1117   */\n      swap2\n      swap1\n      pop\n      jump\t// out\n        /* \"#utility.yul\":1123:1303   */\n    tag_116:\n        /* \"#utility.yul\":1171:1248   */\n      0x4e487b7100000000000000000000000000000000000000000000000000000000\n        /* \"#utility.yul\":1168:1169   */\n      0x00\n        /* \"#utility.yul\":1161:1249   */\n      mstore\n        /* \"#utility.yul\":1268:1272   */\n      0x41\n        /* \"#utility.yul\":1265:1266   */\n      0x04\n        /* \"#utility.yul\":1258:1273   */\n      mstore\n        /* \"#utility.yul\":1292:1296   */\n      0x24\n        /* \"#utility.yul\":1289:1290   */\n      0x00\n        /* \"#utility.yul\":1282:1297   */\n      revert\n        /* \"#utility.yul\":1309:1590   */\n    tag_117:\n        /* \"#utility.yul\":1392:1419   */\n      tag_183\n        /* \"#utility.yul\":1414:1418   */\n      dup3\n        /* \"#utility.yul\":1392:1419   */\n      tag_115\n      jump\t// in\n    tag_183:\n        /* \"#utility.yul\":1384:1390   */\n      dup2\n        /* \"#utility.yul\":1380:1420   */\n      add\n        /* \"#utility.yul\":1522:1528   */\n      dup2\n        /* \"#utility.yul\":1510:1520   */\n      dup2\n        /* \"#utility.yul\":1507:1529   */\n      lt\n        /* \"#utility.yul\":1486:1504   */\n      0xffffffffffffffff\n        /* \"#utility.yul\":1474:1484   */\n      dup3\n        /* \"#utility.yul\":1471:1505   */\n      gt\n        /* \"#utility.yul\":1468:1530   */\n      or\n        /* \"#utility.yul\":1465:1553   */\n      iszero\n      tag_184\n      jumpi\n        /* \"#utility.yul\":1533:1551   */\n      tag_185\n      tag_116\n      jump\t// in\n    tag_185:\n        /* \"#utility.yul\":1465:1553   */\n    tag_184:\n        /* \"#utility.yul\":1573:1583   */\n      dup1\n        /* \"#utility.yul\":1569:1571   */\n      0x40\n        /* \"#utility.yul\":1562:1584   */\n      mstore\n        /* \"#utility.yul\":1352:1590   */\n      pop\n        /* \"#utility.yul\":1309:1590   */\n      pop\n      pop\n      jump\t// out\n        /* \"#utility.yul\":1596:1725   */\n    tag_118:\n        /* \"#utility.yul\":1630:1636   */\n      0x00\n        /* \"#utility.yul\":1657:1677   */\n      tag_187\n      tag_110\n      jump\t// in\n    tag_187:\n        /* \"#utility.yul\":1647:1677   */\n      swap1\n      pop\n        /* \"#utility.yul\":1686:1719   */\n      tag_188\n        /* \"#utility.yul\":1714:1718   */\n      dup3\n        /* \"#utility.yul\":1706:1712   */\n      dup3\n        /* \"#utility.yul\":1686:1719   */\n      tag_117\n      jump\t// in\n    tag_188:\n        /* \"#utility.yul\":1596:1725   */\n      swap2\n      swap1\n      pop\n      jump\t// out\n        /* \"#utility.yul\":1731:2039   */\n    tag_119:\n        /* \"#utility.yul\":1793:1797   */\n      0x00\n        /* \"#utility.yul\":1883:1901   */\n      0xffffffffffffffff\n        /* \"#utility.yul\":1875:1881   */\n      dup3\n        /* \"#utility.yul\":1872:1902   */\n      gt\n        /* \"#utility.yul\":1869:1925   */\n      iszero\n      tag_190\n      jumpi\n        /* \"#utility.yul\":1905:1923   */\n      tag_191\n      tag_116\n      jump\t// in\n    tag_191:\n        /* \"#utility.yul\":1869:1925   */\n    tag_190:\n        /* \"#utility.yul\":1943:1972   */\n      tag_192\n        /* \"#utility.yul\":1965:1971   */\n      dup3\n        /* \"#utility.yul\":1943:1972   */\n      tag_115\n      jump\t// in\n    tag_192:\n        /* \"#utility.yul\":1935:1972   */\n      swap1\n      pop\n        /* \"#utility.yul\":2027:2031   */\n      0x20\n        /* \"#utility.yul\":2021:2025   */\n      dup2\n        /* \"#utility.yul\":2017:2032   */\n      add\n        /* \"#utility.yul\":2009:2032   */\n      swap1\n      pop\n        /* \"#utility.yul\":1731:2039   */\n      swap2\n      swap1\n      pop\n      jump\t// out\n        /* \"#utility.yul\":2045:2191   */\n    tag_120:\n        /* \"#utility.yul\":2142:2148   */\n      dup3\n        /* \"#utility.yul\":2137:2140   */\n      dup2\n        /* \"#utility.yul\":2132:2135   */\n      dup4\n        /* \"#utility.yul\":2119:2149   */\n      calldatacopy\n        /* \"#utility.yul\":2183:2184   */\n      0x00\n        /* \"#utility.yul\":2174:2180   */\n      dup4\n        /* \"#utility.yul\":2169:2172   */\n      dup4\n        /* \"#utility.yul\":2165:2181   */\n      add\n        /* \"#utility.yul\":2158:2185   */\n      mstore\n        /* \"#utility.yul\":2045:2191   */\n      pop\n      pop\n      pop\n      jump\t// out\n        /* \"#utility.yul\":2197:2622   */\n    tag_121:\n        /* \"#utility.yul\":2275:2280   */\n      0x00\n        /* \"#utility.yul\":2300:2366   */\n      tag_195\n        /* \"#utility.yul\":2316:2365   */\n      tag_196\n        /* \"#utility.yul\":2358:2364   */\n      dup5\n        /* \"#utility.yul\":2316:2365   */\n      tag_119\n      jump\t// in\n    tag_196:\n        /* \"#utility.yul\":2300:2366   */\n      tag_118\n      jump\t// in\n    tag_195:\n        /* \"#utility.yul\":2291:2366   */\n      swap1\n      pop\n        /* \"#utility.yul\":2389:2395   */\n      dup3\n        /* \"#utility.yul\":2382:2387   */\n      dup2\n        /* \"#utility.yul\":2375:2396   */\n      mstore\n        /* \"#utility.yul\":2427:2431   */\n      0x20\n        /* \"#utility.yul\":2420:2425   */\n      dup2\n        /* \"#utility.yul\":2416:2432   */\n      add\n        /* \"#utility.yul\":2465:2468   */\n      dup5\n        /* \"#utility.yul\":2456:2462   */\n      dup5\n        /* \"#utility.yul\":2451:2454   */\n      dup5\n        /* \"#utility.yul\":2447:2463   */\n      add\n        /* \"#utility.yul\":2444:2469   */\n      gt\n        /* \"#utility.yul\":2441:2553   */\n      iszero\n      tag_197\n      jumpi\n        /* \"#utility.yul\":2472:2551   */\n      tag_198\n      tag_114\n      jump\t// in\n    tag_198:\n        /* \"#utility.yul\":2441:2553   */\n    tag_197:\n        /* \"#utility.yul\":2562:2616   */\n      tag_199\n        /* \"#utility.yul\":2609:2615   */\n      dup5\n        /* \"#utility.yul\":2604:2607   */\n      dup3\n        /* \"#utility.yul\":2599:2602   */\n      dup6\n        /* \"#utility.yul\":2562:2616   */\n      tag_120\n      jump\t// in\n    tag_199:\n        /* \"#utility.yul\":2281:2622   */\n      pop\n        /* \"#utility.yul\":2197:2622   */\n      swap4\n      swap3\n      pop\n      pop\n      pop\n      jump\t// out\n        /* \"#utility.yul\":2642:2982   */\n    tag_122:\n        /* \"#utility.yul\":2698:2703   */\n      0x00\n        /* \"#utility.yul\":2747:2750   */\n      dup3\n        /* \"#utility.yul\":2740:2744   */\n      0x1f\n        /* \"#utility.yul\":2732:2738   */\n      dup4\n        /* \"#utility.yul\":2728:2745   */\n      add\n        /* \"#utility.yul\":2724:2751   */\n      slt\n        /* \"#utility.yul\":2714:2836   */\n      tag_201\n      jumpi\n        /* \"#utility.yul\":2755:2834   */\n      tag_202\n      tag_113\n      jump\t// in\n    tag_202:\n        /* \"#utility.yul\":2714:2836   */\n    tag_201:\n        /* \"#utility.yul\":2872:2878   */\n      dup2\n        /* \"#utility.yul\":2859:2879   */\n      calldataload\n        /* \"#utility.yul\":2897:2976   */\n      tag_203\n        /* \"#utility.yul\":2972:2975   */\n      dup5\n        /* \"#utility.yul\":2964:2970   */\n      dup3\n        /* \"#utility.yul\":2957:2961   */\n      0x20\n        /* \"#utility.yul\":2949:2955   */\n      dup7\n        /* \"#utility.yul\":2945:2962   */\n      add\n        /* \"#utility.yul\":2897:2976   */\n      tag_121\n      jump\t// in\n    tag_203:\n        /* \"#utility.yul\":2888:2976   */\n      swap2\n      pop\n        /* \"#utility.yul\":2704:2982   */\n      pop\n        /* \"#utility.yul\":2642:2982   */\n      swap3\n      swap2\n      pop\n      pop\n      jump\t// out\n        /* \"#utility.yul\":2988:3114   */\n    tag_123:\n        /* \"#utility.yul\":3025:3032   */\n      0x00\n        /* \"#utility.yul\":3065:3107   */\n      0xffffffffffffffffffffffffffffffffffffffff\n        /* \"#utility.yul\":3058:3063   */\n      dup3\n        /* \"#utility.yul\":3054:3108   */\n      and\n        /* \"#utility.yul\":3043:3108   */\n      swap1\n      pop\n        /* \"#utility.yul\":2988:3114   */\n      swap2\n      swap1\n      pop\n      jump\t// out\n        /* \"#utility.yul\":3120:3224   */\n    tag_124:\n        /* \"#utility.yul\":3165:3172   */\n      0x00\n        /* \"#utility.yul\":3194:3218   */\n      tag_206\n        /* \"#utility.yul\":3212:3217   */\n      dup3\n        /* \"#utility.yul\":3194:3218   */\n      tag_123\n      jump\t// in\n    tag_206:\n        /* \"#utility.yul\":3183:3218   */\n      swap1\n      pop\n        /* \"#utility.yul\":3120:3224   */\n      swap2\n      swap1\n      pop\n      jump\t// out\n        /* \"#utility.yul\":3230:3368   */\n    tag_125:\n        /* \"#utility.yul\":3311:3343   */\n      tag_208\n        /* \"#utility.yul\":3337:3342   */\n      dup2\n        /* \"#utility.yul\":3311:3343   */\n      tag_124\n      jump\t// in\n    tag_208:\n        /* \"#utility.yul\":3304:3309   */\n      dup2\n        /* \"#utility.yul\":3301:3344   */\n      eq\n        /* \"#utility.yul\":3291:3362   */\n      tag_209\n      jumpi\n        /* \"#utility.yul\":3358:3359   */\n      0x00\n        /* \"#utility.yul\":3355:3356   */\n      dup1\n        /* \"#utility.yul\":3348:3360   */\n      revert\n        /* \"#utility.yul\":3291:3362   */\n    tag_209:\n        /* \"#utility.yul\":3230:3368   */\n      pop\n      jump\t// out\n        /* \"#utility.yul\":3374:3529   */\n    tag_126:\n        /* \"#utility.yul\":3428:3433   */\n      0x00\n        /* \"#utility.yul\":3466:3472   */\n      dup2\n        /* \"#utility.yul\":3453:3473   */\n      calldataload\n        /* \"#utility.yul\":3444:3473   */\n      swap1\n      pop\n        /* \"#utility.yul\":3482:3523   */\n      tag_211\n        /* \"#utility.yul\":3517:3522   */\n      dup2\n        /* \"#utility.yul\":3482:3523   */\n      tag_125\n      jump\t// in\n    tag_211:\n        /* \"#utility.yul\":3374:3529   */\n      swap3\n      swap2\n      pop\n      pop\n      jump\t// out\n        /* \"#utility.yul\":3535:3657   */\n    tag_127:\n        /* \"#utility.yul\":3608:3632   */\n      tag_213\n        /* \"#utility.yul\":3626:3631   */\n      dup2\n        /* \"#utility.yul\":3608:3632   */\n      tag_108\n      jump\t// in\n    tag_213:\n        /* \"#utility.yul\":3601:3606   */\n      dup2\n        /* \"#utility.yul\":3598:3633   */\n      eq\n        /* \"#utility.yul\":3588:3651   */\n      tag_214\n      jumpi\n        /* \"#utility.yul\":3647:3648   */\n      0x00\n        /* \"#utility.yul\":3644:3645   */\n      dup1\n        /* \"#utility.yul\":3637:3649   */\n      revert\n        /* \"#utility.yul\":3588:3651   */\n    tag_214:\n        /* \"#utility.yul\":3535:3657   */\n      pop\n      jump\t// out\n        /* \"#utility.yul\":3663:3802   */\n    tag_128:\n        /* \"#utility.yul\":3709:3714   */\n      0x00\n        /* \"#utility.yul\":3747:3753   */\n      dup2\n        /* \"#utility.yul\":3734:3754   */\n      calldataload\n        /* \"#utility.yul\":3725:3754   */\n      swap1\n      pop\n        /* \"#utility.yul\":3763:3796   */\n      tag_216\n        /* \"#utility.yul\":3790:3795   */\n      dup2\n        /* \"#utility.yul\":3763:3796   */\n      tag_127\n      jump\t// in\n    tag_216:\n        /* \"#utility.yul\":3663:3802   */\n      swap3\n      swap2\n      pop\n      pop\n      jump\t// out\n        /* \"#utility.yul\":3808:4623   */\n    tag_23:\n        /* \"#utility.yul\":3903:3909   */\n      0x00\n        /* \"#utility.yul\":3911:3917   */\n      dup1\n        /* \"#utility.yul\":3919:3925   */\n      0x00\n        /* \"#utility.yul\":3968:3970   */\n      0x60\n        /* \"#utility.yul\":3956:3965   */\n      dup5\n        /* \"#utility.yul\":3947:3954   */\n      dup7\n        /* \"#utility.yul\":3943:3966   */\n      sub\n        /* \"#utility.yul\":3939:3971   */\n      slt\n        /* \"#utility.yul\":3936:4055   */\n      iszero\n      tag_218\n      jumpi\n        /* \"#utility.yul\":3974:4053   */\n      tag_219\n      tag_111\n      jump\t// in\n    tag_219:\n        /* \"#utility.yul\":3936:4055   */\n    tag_218:\n        /* \"#utility.yul\":4122:4123   */\n      0x00\n        /* \"#utility.yul\":4111:4120   */\n      dup5\n        /* \"#utility.yul\":4107:4124   */\n      add\n        /* \"#utility.yul\":4094:4125   */\n      calldataload\n        /* \"#utility.yul\":4152:4170   */\n      0xffffffffffffffff\n        /* \"#utility.yul\":4144:4150   */\n      dup2\n        /* \"#utility.yul\":4141:4171   */\n      gt\n        /* \"#utility.yul\":4138:4255   */\n      iszero\n      tag_220\n      jumpi\n        /* \"#utility.yul\":4174:4253   */\n      tag_221\n      tag_112\n      jump\t// in\n    tag_221:\n        /* \"#utility.yul\":4138:4255   */\n    tag_220:\n        /* \"#utility.yul\":4279:4342   */\n      tag_222\n        /* \"#utility.yul\":4334:4341   */\n      dup7\n        /* \"#utility.yul\":4325:4331   */\n      dup3\n        /* \"#utility.yul\":4314:4323   */\n      dup8\n        /* \"#utility.yul\":4310:4332   */\n      add\n        /* \"#utility.yul\":4279:4342   */\n      tag_122\n      jump\t// in\n    tag_222:\n        /* \"#utility.yul\":4269:4342   */\n      swap4\n      pop\n        /* \"#utility.yul\":4065:4352   */\n      pop\n        /* \"#utility.yul\":4391:4393   */\n      0x20\n        /* \"#utility.yul\":4417:4478   */\n      tag_223\n        /* \"#utility.yul\":4470:4477   */\n      dup7\n        /* \"#utility.yul\":4461:4467   */\n      dup3\n        /* \"#utility.yul\":4450:4459   */\n      dup8\n        /* \"#utility.yul\":4446:4468   */\n      add\n        /* \"#utility.yul\":4417:4478   */\n      tag_126\n      jump\t// in\n    tag_223:\n        /* \"#utility.yul\":4407:4478   */\n      swap3\n      pop\n        /* \"#utility.yul\":4362:4488   */\n      pop\n        /* \"#utility.yul\":4527:4529   */\n      0x40\n        /* \"#utility.yul\":4553:4606   */\n      tag_224\n        /* \"#utility.yul\":4598:4605   */\n      dup7\n        /* \"#utility.yul\":4589:4595   */\n      dup3\n        /* \"#utility.yul\":4578:4587   */\n      dup8\n        /* \"#utility.yul\":4574:4596   */\n      add\n        /* \"#utility.yul\":4553:4606   */\n      tag_128\n      jump\t// in\n    tag_224:\n        /* \"#utility.yul\":4543:4606   */\n      swap2\n      pop\n        /* \"#utility.yul\":4498:4616   */\n      pop\n        /* \"#utility.yul\":3808:4623   */\n      swap3\n      pop\n      swap3\n      pop\n      swap3\n      jump\t// out\n        /* \"#utility.yul\":4629:4725   */\n    tag_129:\n        /* \"#utility.yul\":4666:4673   */\n      0x00\n        /* \"#utility.yul\":4695:4719   */\n      tag_226\n        /* \"#utility.yul\":4713:4718   */\n      dup3\n        /* \"#utility.yul\":4695:4719   */\n      tag_123\n      jump\t// in\n    tag_226:\n        /* \"#utility.yul\":4684:4719   */\n      swap1\n      pop\n        /* \"#utility.yul\":4629:4725   */\n      swap2\n      swap1\n      pop\n      jump\t// out\n        /* \"#utility.yul\":4731:4853   */\n    tag_130:\n        /* \"#utility.yul\":4804:4828   */\n      tag_228\n        /* \"#utility.yul\":4822:4827   */\n      dup2\n        /* \"#utility.yul\":4804:4828   */\n      tag_129\n      jump\t// in\n    tag_228:\n        /* \"#utility.yul\":4797:4802   */\n      dup2\n        /* \"#utility.yul\":4794:4829   */\n      eq\n        /* \"#utility.yul\":4784:4847   */\n      tag_229\n      jumpi\n        /* \"#utility.yul\":4843:4844   */\n      0x00\n        /* \"#utility.yul\":4840:4841   */\n      dup1\n        /* \"#utility.yul\":4833:4845   */\n      revert\n        /* \"#utility.yul\":4784:4847   */\n    tag_229:\n        /* \"#utility.yul\":4731:4853   */\n      pop\n      jump\t// out\n        /* \"#utility.yul\":4859:4998   */\n    tag_131:\n        /* \"#utility.yul\":4905:4910   */\n      0x00\n        /* \"#utility.yul\":4943:4949   */\n      dup2\n        /* \"#utility.yul\":4930:4950   */\n      calldataload\n        /* \"#utility.yul\":4921:4950   */\n      swap1\n      pop\n        /* \"#utility.yul\":4959:4992   */\n      tag_231\n        /* \"#utility.yul\":4986:4991   */\n      dup2\n        /* \"#utility.yul\":4959:4992   */\n      tag_130\n      jump\t// in\n    tag_231:\n        /* \"#utility.yul\":4859:4998   */\n      swap3\n      swap2\n      pop\n      pop\n      jump\t// out\n        /* \"#utility.yul\":5004:5333   */\n    tag_32:\n        /* \"#utility.yul\":5063:5069   */\n      0x00\n        /* \"#utility.yul\":5112:5114   */\n      0x20\n        /* \"#utility.yul\":5100:5109   */\n      dup3\n        /* \"#utility.yul\":5091:5098   */\n      dup5\n        /* \"#utility.yul\":5087:5110   */\n      sub\n        /* \"#utility.yul\":5083:5115   */\n      slt\n        /* \"#utility.yul\":5080:5199   */\n      iszero\n      tag_233\n      jumpi\n        /* \"#utility.yul\":5118:5197   */\n      tag_234\n      tag_111\n      jump\t// in\n    tag_234:\n        /* \"#utility.yul\":5080:5199   */\n    tag_233:\n        /* \"#utility.yul\":5238:5239   */\n      0x00\n        /* \"#utility.yul\":5263:5316   */\n      tag_235\n        /* \"#utility.yul\":5308:5315   */\n      dup5\n        /* \"#utility.yul\":5299:5305   */\n      dup3\n        /* \"#utility.yul\":5288:5297   */\n      dup6\n        /* \"#utility.yul\":5284:5306   */\n      add\n        /* \"#utility.yul\":5263:5316   */\n      tag_131\n      jump\t// in\n    tag_235:\n        /* \"#utility.yul\":5253:5316   */\n      swap2\n      pop\n        /* \"#utility.yul\":5209:5326   */\n      pop\n        /* \"#utility.yul\":5004:5333   */\n      swap3\n      swap2\n      pop\n      pop\n      jump\t// out\n        /* \"#utility.yul\":5339:5457   */\n    tag_132:\n        /* \"#utility.yul\":5426:5450   */\n      tag_237\n        /* \"#utility.yul\":5444:5449   */\n      dup2\n        /* \"#utility.yul\":5426:5450   */\n      tag_129\n      jump\t// in\n    tag_237:\n        /* \"#utility.yul\":5421:5424   */\n      dup3\n        /* \"#utility.yul\":5414:5451   */\n      mstore\n        /* \"#utility.yul\":5339:5457   */\n      pop\n      pop\n      jump\t// out\n        /* \"#utility.yul\":5463:5685   */\n    tag_43:\n        /* \"#utility.yul\":5556:5560   */\n      0x00\n        /* \"#utility.yul\":5594:5596   */\n      0x20\n        /* \"#utility.yul\":5583:5592   */\n      dup3\n        /* \"#utility.yul\":5579:5597   */\n      add\n        /* \"#utility.yul\":5571:5597   */\n      swap1\n      pop\n        /* \"#utility.yul\":5607:5678   */\n      tag_239\n        /* \"#utility.yul\":5675:5676   */\n      0x00\n        /* \"#utility.yul\":5664:5673   */\n      dup4\n        /* \"#utility.yul\":5660:5677   */\n      add\n        /* \"#utility.yul\":5651:5657   */\n      dup5\n        /* \"#utility.yul\":5607:5678   */\n      tag_132\n      jump\t// in\n    tag_239:\n        /* \"#utility.yul\":5463:5685   */\n      swap3\n      swap2\n      pop\n      pop\n      jump\t// out\n        /* \"#utility.yul\":5691:6020   */\n    tag_50:\n        /* \"#utility.yul\":5750:5756   */\n      0x00\n        /* \"#utility.yul\":5799:5801   */\n      0x20\n        /* \"#utility.yul\":5787:5796   */\n      dup3\n        /* \"#utility.yul\":5778:5785   */\n      dup5\n        /* \"#utility.yul\":5774:5797   */\n      sub\n        /* \"#utility.yul\":5770:5802   */\n      slt\n        /* \"#utility.yul\":5767:5886   */\n      iszero\n      tag_241\n      jumpi\n        /* \"#utility.yul\":5805:5884   */\n      tag_242\n      tag_111\n      jump\t// in\n    tag_242:\n        /* \"#utility.yul\":5767:5886   */\n    tag_241:\n        /* \"#utility.yul\":5925:5926   */\n      0x00\n        /* \"#utility.yul\":5950:6003   */\n      tag_243\n        /* \"#utility.yul\":5995:6002   */\n      dup5\n        /* \"#utility.yul\":5986:5992   */\n      dup3\n        /* \"#utility.yul\":5975:5984   */\n      dup6\n        /* \"#utility.yul\":5971:5993   */\n      add\n        /* \"#utility.yul\":5950:6003   */\n      tag_128\n      jump\t// in\n    tag_243:\n        /* \"#utility.yul\":5940:6003   */\n      swap2\n      pop\n        /* \"#utility.yul\":5896:6013   */\n      pop\n        /* \"#utility.yul\":5691:6020   */\n      swap3\n      swap2\n      pop\n      pop\n      jump\t// out\n        /* \"#utility.yul\":6026:6125   */\n    tag_133:\n        /* \"#utility.yul\":6078:6084   */\n      0x00\n        /* \"#utility.yul\":6112:6117   */\n      dup2\n        /* \"#utility.yul\":6106:6118   */\n      mload\n        /* \"#utility.yul\":6096:6118   */\n      swap1\n      pop\n        /* \"#utility.yul\":6026:6125   */\n      swap2\n      swap1\n      pop\n      jump\t// out\n        /* \"#utility.yul\":6131:6300   */\n    tag_134:\n        /* \"#utility.yul\":6215:6226   */\n      0x00\n        /* \"#utility.yul\":6249:6255   */\n      dup3\n        /* \"#utility.yul\":6244:6247   */\n      dup3\n        /* \"#utility.yul\":6237:6256   */\n      mstore\n        /* \"#utility.yul\":6289:6293   */\n      0x20\n        /* \"#utility.yul\":6284:6287   */\n      dup3\n        /* \"#utility.yul\":6280:6294   */\n      add\n        /* \"#utility.yul\":6265:6294   */\n      swap1\n      pop\n        /* \"#utility.yul\":6131:6300   */\n      swap3\n      swap2\n      pop\n      pop\n      jump\t// out\n        /* \"#utility.yul\":6306:6552   */\n    tag_135:\n        /* \"#utility.yul\":6387:6388   */\n      0x00\n        /* \"#utility.yul\":6397:6510   */\n    tag_247:\n        /* \"#utility.yul\":6411:6417   */\n      dup4\n        /* \"#utility.yul\":6408:6409   */\n      dup2\n        /* \"#utility.yul\":6405:6418   */\n      lt\n        /* \"#utility.yul\":6397:6510   */\n      iszero\n      tag_249\n      jumpi\n        /* \"#utility.yul\":6496:6497   */\n      dup1\n        /* \"#utility.yul\":6491:6494   */\n      dup3\n        /* \"#utility.yul\":6487:6498   */\n      add\n        /* \"#utility.yul\":6481:6499   */\n      mload\n        /* \"#utility.yul\":6477:6478   */\n      dup2\n        /* \"#utility.yul\":6472:6475   */\n      dup5\n        /* \"#utility.yul\":6468:6479   */\n      add\n        /* \"#utility.yul\":6461:6500   */\n      mstore\n        /* \"#utility.yul\":6433:6435   */\n      0x20\n        /* \"#utility.yul\":6430:6431   */\n      dup2\n        /* \"#utility.yul\":6426:6436   */\n      add\n        /* \"#utility.yul\":6421:6436   */\n      swap1\n      pop\n        /* \"#utility.yul\":6397:6510   */\n      jump(tag_247)\n    tag_249:\n        /* \"#utility.yul\":6544:6545   */\n      0x00\n        /* \"#utility.yul\":6535:6541   */\n      dup5\n        /* \"#utility.yul\":6530:6533   */\n      dup5\n        /* \"#utility.yul\":6526:6542   */\n      add\n        /* \"#utility.yul\":6519:6546   */\n      mstore\n        /* \"#utility.yul\":6368:6552   */\n      pop\n        /* \"#utility.yul\":6306:6552   */\n      pop\n      pop\n      pop\n      jump\t// out\n        /* \"#utility.yul\":6558:6935   */\n    tag_136:\n        /* \"#utility.yul\":6646:6649   */\n      0x00\n        /* \"#utility.yul\":6674:6713   */\n      tag_251\n        /* \"#utility.yul\":6707:6712   */\n      dup3\n        /* \"#utility.yul\":6674:6713   */\n      tag_133\n      jump\t// in\n    tag_251:\n        /* \"#utility.yul\":6729:6800   */\n      tag_252\n        /* \"#utility.yul\":6793:6799   */\n      dup2\n        /* \"#utility.yul\":6788:6791   */\n      dup6\n        /* \"#utility.yul\":6729:6800   */\n      tag_134\n      jump\t// in\n    tag_252:\n        /* \"#utility.yul\":6722:6800   */\n      swap4\n      pop\n        /* \"#utility.yul\":6809:6874   */\n      tag_253\n        /* \"#utility.yul\":6867:6873   */\n      dup2\n        /* \"#utility.yul\":6862:6865   */\n      dup6\n        /* \"#utility.yul\":6855:6859   */\n      0x20\n        /* \"#utility.yul\":6848:6853   */\n      dup7\n        /* \"#utility.yul\":6844:6860   */\n      add\n        /* \"#utility.yul\":6809:6874   */\n      tag_135\n      jump\t// in\n    tag_253:\n        /* \"#utility.yul\":6899:6928   */\n      tag_254\n        /* \"#utility.yul\":6921:6927   */\n      dup2\n        /* \"#utility.yul\":6899:6928   */\n      tag_115\n      jump\t// in\n    tag_254:\n        /* \"#utility.yul\":6894:6897   */\n      dup5\n        /* \"#utility.yul\":6890:6929   */\n      add\n        /* \"#utility.yul\":6883:6929   */\n      swap2\n      pop\n        /* \"#utility.yul\":6650:6935   */\n      pop\n        /* \"#utility.yul\":6558:6935   */\n      swap3\n      swap2\n      pop\n      pop\n      jump\t// out\n        /* \"#utility.yul\":6941:7083   */\n    tag_137:\n        /* \"#utility.yul\":7044:7076   */\n      tag_256\n        /* \"#utility.yul\":7070:7075   */\n      dup2\n        /* \"#utility.yul\":7044:7076   */\n      tag_124\n      jump\t// in\n    tag_256:\n        /* \"#utility.yul\":7039:7042   */\n      dup3\n        /* \"#utility.yul\":7032:7077   */\n      mstore\n        /* \"#utility.yul\":6941:7083   */\n      pop\n      pop\n      jump\t// out\n        /* \"#utility.yul\":7089:7179   */\n    tag_138:\n        /* \"#utility.yul\":7123:7130   */\n      0x00\n        /* \"#utility.yul\":7166:7171   */\n      dup2\n        /* \"#utility.yul\":7159:7172   */\n      iszero\n        /* \"#utility.yul\":7152:7173   */\n      iszero\n        /* \"#utility.yul\":7141:7173   */\n      swap1\n      pop\n        /* \"#utility.yul\":7089:7179   */\n      swap2\n      swap1\n      pop\n      jump\t// out\n        /* \"#utility.yul\":7185:7294   */\n    tag_139:\n        /* \"#utility.yul\":7266:7287   */\n      tag_259\n        /* \"#utility.yul\":7281:7286   */\n      dup2\n        /* \"#utility.yul\":7266:7287   */\n      tag_138\n      jump\t// in\n    tag_259:\n        /* \"#utility.yul\":7261:7264   */\n      dup3\n        /* \"#utility.yul\":7254:7288   */\n      mstore\n        /* \"#utility.yul\":7185:7294   */\n      pop\n      pop\n      jump\t// out\n        /* \"#utility.yul\":7300:7964   */\n    tag_53:\n        /* \"#utility.yul\":7507:7511   */\n      0x00\n        /* \"#utility.yul\":7545:7548   */\n      0x80\n        /* \"#utility.yul\":7534:7543   */\n      dup3\n        /* \"#utility.yul\":7530:7549   */\n      add\n        /* \"#utility.yul\":7522:7549   */\n      swap1\n      pop\n        /* \"#utility.yul\":7595:7604   */\n      dup2\n        /* \"#utility.yul\":7589:7593   */\n      dup2\n        /* \"#utility.yul\":7585:7605   */\n      sub\n        /* \"#utility.yul\":7581:7582   */\n      0x00\n        /* \"#utility.yul\":7570:7579   */\n      dup4\n        /* \"#utility.yul\":7566:7583   */\n      add\n        /* \"#utility.yul\":7559:7606   */\n      mstore\n        /* \"#utility.yul\":7623:7701   */\n      tag_261\n        /* \"#utility.yul\":7696:7700   */\n      dup2\n        /* \"#utility.yul\":7687:7693   */\n      dup8\n        /* \"#utility.yul\":7623:7701   */\n      tag_136\n      jump\t// in\n    tag_261:\n        /* \"#utility.yul\":7615:7701   */\n      swap1\n      pop\n        /* \"#utility.yul\":7711:7799   */\n      tag_262\n        /* \"#utility.yul\":7795:7797   */\n      0x20\n        /* \"#utility.yul\":7784:7793   */\n      dup4\n        /* \"#utility.yul\":7780:7798   */\n      add\n        /* \"#utility.yul\":7771:7777   */\n      dup7\n        /* \"#utility.yul\":7711:7799   */\n      tag_137\n      jump\t// in\n    tag_262:\n        /* \"#utility.yul\":7809:7881   */\n      tag_263\n        /* \"#utility.yul\":7877:7879   */\n      0x40\n        /* \"#utility.yul\":7866:7875   */\n      dup4\n        /* \"#utility.yul\":7862:7880   */\n      add\n        /* \"#utility.yul\":7853:7859   */\n      dup6\n        /* \"#utility.yul\":7809:7881   */\n      tag_109\n      jump\t// in\n    tag_263:\n        /* \"#utility.yul\":7891:7957   */\n      tag_264\n        /* \"#utility.yul\":7953:7955   */\n      0x60\n        /* \"#utility.yul\":7942:7951   */\n      dup4\n        /* \"#utility.yul\":7938:7956   */\n      add\n        /* \"#utility.yul\":7929:7935   */\n      dup5\n        /* \"#utility.yul\":7891:7957   */\n      tag_139\n      jump\t// in\n    tag_264:\n        /* \"#utility.yul\":7300:7964   */\n      swap6\n      swap5\n      pop\n      pop\n      pop\n      pop\n      pop\n      jump\t// out\n        /* \"#utility.yul\":7970:8150   */\n    tag_140:\n        /* \"#utility.yul\":8018:8095   */\n      0x4e487b7100000000000000000000000000000000000000000000000000000000\n        /* \"#utility.yul\":8015:8016   */\n      0x00\n        /* \"#utility.yul\":8008:8096   */\n      mstore\n        /* \"#utility.yul\":8115:8119   */\n      0x11\n        /* \"#utility.yul\":8112:8113   */\n      0x04\n        /* \"#utility.yul\":8105:8120   */\n      mstore\n        /* \"#utility.yul\":8139:8143   */\n      0x24\n        /* \"#utility.yul\":8136:8137   */\n      0x00\n        /* \"#utility.yul\":8129:8144   */\n      revert\n        /* \"#utility.yul\":8156:8389   */\n    tag_71:\n        /* \"#utility.yul\":8195:8198   */\n      0x00\n        /* \"#utility.yul\":8218:8242   */\n      tag_267\n        /* \"#utility.yul\":8236:8241   */\n      dup3\n        /* \"#utility.yul\":8218:8242   */\n      tag_108\n      jump\t// in\n    tag_267:\n        /* \"#utility.yul\":8209:8242   */\n      swap2\n      pop\n        /* \"#utility.yul\":8264:8330   */\n      0xffffffffffffffffffffffffffffffffffffffffffffffffffffffffffffffff\n        /* \"#utility.yul\":8257:8262   */\n      dup3\n        /* \"#utility.yul\":8254:8331   */\n      sub\n        /* \"#utility.yul\":8251:8354   */\n      tag_268\n      jumpi\n        /* \"#utility.yul\":8334:8352   */\n      tag_269\n      tag_140\n      jump\t// in\n    tag_269:\n        /* \"#utility.yul\":8251:8354   */\n    tag_268:\n        /* \"#utility.yul\":8381:8382   */\n      0x01\n        /* \"#utility.yul\":8374:8379   */\n      dup3\n        /* \"#utility.yul\":8370:8383   */\n      add\n        /* \"#utility.yul\":8363:8383   */\n      swap1\n      pop\n        /* \"#utility.yul\":8156:8389   */\n      swap2\n      swap1\n      pop\n      jump\t// out\n        /* \"#utility.yul\":8395:8575   */\n    tag_141:\n        /* \"#utility.yul\":8443:8520   */\n      0x4e487b7100000000000000000000000000000000000000000000000000000000\n        /* \"#utility.yul\":8440:8441   */\n      0x00\n        /* \"#utility.yul\":8433:8521   */\n      mstore\n        /* \"#utility.yul\":8540:8544   */\n      0x22\n        /* \"#utility.yul\":8537:8538   */\n      0x04\n        /* \"#utility.yul\":8530:8545   */\n      mstore\n        /* \"#utility.yul\":8564:8568   */\n      0x24\n        /* \"#utility.yul\":8561:8562   */\n      0x00\n        /* \"#utility.yul\":8554:8569   */\n      revert\n        /* \"#utility.yul\":8581:8901   */\n    tag_83:\n        /* \"#utility.yul\":8625:8631   */\n      0x00\n        /* \"#utility.yul\":8662:8663   */\n      0x02\n        /* \"#utility.yul\":8656:8660   */\n      dup3\n        /* \"#utility.yul\":8652:8664   */\n      div\n        /* \"#utility.yul\":8642:8664   */\n      swap1\n      pop\n        /* \"#utility.yul\":8709:8710   */\n      0x01\n        /* \"#utility.yul\":8703:8707   */\n      dup3\n        /* \"#utility.yul\":8699:8711   */\n      and\n        /* \"#utility.yul\":8730:8748   */\n      dup1\n        /* \"#utility.yul\":8720:8801   */\n      tag_272\n      jumpi\n        /* \"#utility.yul\":8786:8790   */\n      0x7f\n        /* \"#utility.yul\":8778:8784   */\n      dup3\n        /* \"#utility.yul\":8774:8791   */\n      and\n        /* \"#utility.yul\":8764:8791   */\n      swap2\n      pop\n        /* \"#utility.yul\":8720:8801   */\n    tag_272:\n        /* \"#utility.yul\":8848:8850   */\n      0x20\n        /* \"#utility.yul\":8840:8846   */\n      dup3\n        /* \"#utility.yul\":8837:8851   */\n      lt\n        /* \"#utility.yul\":8817:8835   */\n      dup2\n        /* \"#utility.yul\":8814:8852   */\n      sub\n        /* \"#utility.yul\":8811:8895   */\n      tag_273\n      jumpi\n        /* \"#utility.yul\":8867:8885   */\n      tag_274\n      tag_141\n      jump\t// in\n    tag_274:\n        /* \"#utility.yul\":8811:8895   */\n    tag_273:\n        /* \"#utility.yul\":8632:8901   */\n      pop\n        /* \"#utility.yul\":8581:8901   */\n      swap2\n      swap1\n      pop\n      jump\t// out\n        /* \"#utility.yul\":8907:9048   */\n    tag_142:\n        /* \"#utility.yul\":8956:8960   */\n      0x00\n        /* \"#utility.yul\":8979:8982   */\n      dup2\n        /* \"#utility.yul\":8971:8982   */\n      swap1\n      pop\n        /* \"#utility.yul\":9002:9005   */\n      dup2\n        /* \"#utility.yul\":8999:9000   */\n      0x00\n        /* \"#utility.yul\":8992:9006   */\n      mstore\n        /* \"#utility.yul\":9036:9040   */\n      0x20\n        /* \"#utility.yul\":9033:9034   */\n      0x00\n        /* \"#utility.yul\":9023:9041   */\n      keccak256\n        /* \"#utility.yul\":9015:9041   */\n      swap1\n      pop\n        /* \"#utility.yul\":8907:9048   */\n      swap2\n      swap1\n      pop\n      jump\t// out\n        /* \"#utility.yul\":9054:9147   */\n    tag_143:\n        /* \"#utility.yul\":9091:9097   */\n      0x00\n        /* \"#utility.yul\":9138:9140   */\n      0x20\n        /* \"#utility.yul\":9133:9135   */\n      0x1f\n        /* \"#utility.yul\":9126:9131   */\n      dup4\n        /* \"#utility.yul\":9122:9136   */\n      add\n        /* \"#utility.yul\":9118:9141   */\n      div\n        /* \"#utility.yul\":9108:9141   */\n      swap1\n      pop\n        /* \"#utility.yul\":9054:9147   */\n      swap2\n      swap1\n      pop\n      jump\t// out\n        /* \"#utility.yul\":9153:9260   */\n    tag_144:\n        /* \"#utility.yul\":9197:9205   */\n      0x00\n        /* \"#utility.yul\":9247:9252   */\n      dup3\n        /* \"#utility.yul\":9241:9245   */\n      dup3\n        /* \"#utility.yul\":9237:9253   */\n      shl\n        /* \"#utility.yul\":9216:9253   */\n      swap1\n      pop\n        /* \"#utility.yul\":9153:9260   */\n      swap3\n      swap2\n      pop\n      pop\n      jump\t// out\n        /* \"#utility.yul\":9266:9659   */\n    tag_145:\n        /* \"#utility.yul\":9335:9341   */\n      0x00\n        /* \"#utility.yul\":9385:9386   */\n      0x08\n        /* \"#utility.yul\":9373:9383   */\n      dup4\n        /* \"#utility.yul\":9369:9387   */\n      mul\n        /* \"#utility.yul\":9408:9505   */\n      tag_279\n        /* \"#utility.yul\":9438:9504   */\n      0xffffffffffffffffffffffffffffffffffffffffffffffffffffffffffffffff\n        /* \"#utility.yul\":9427:9436   */\n      dup3\n        /* \"#utility.yul\":9408:9505   */\n      tag_144\n      jump\t// in\n    tag_279:\n        /* \"#utility.yul\":9526:9565   */\n      tag_280\n        /* \"#utility.yul\":9556:9564   */\n      dup7\n        /* \"#utility.yul\":9545:9554   */\n      dup4\n        /* \"#utility.yul\":9526:9565   */\n      tag_144\n      jump\t// in\n    tag_280:\n        /* \"#utility.yul\":9514:9565   */\n      swap6\n      pop\n        /* \"#utility.yul\":9598:9602   */\n      dup1\n        /* \"#utility.yul\":9594:9603   */\n      not\n        /* \"#utility.yul\":9587:9592   */\n      dup5\n        /* \"#utility.yul\":9583:9604   */\n      and\n        /* \"#utility.yul\":9574:9604   */\n      swap4\n      pop\n        /* \"#utility.yul\":9647:9651   */\n      dup1\n        /* \"#utility.yul\":9637:9645   */\n      dup7\n        /* \"#utility.yul\":9633:9652   */\n      and\n        /* \"#utility.yul\":9626:9631   */\n      dup5\n        /* \"#utility.yul\":9623:9653   */\n      or\n        /* \"#utility.yul\":9613:9653   */\n      swap3\n      pop\n        /* \"#utility.yul\":9342:9659   */\n      pop\n      pop\n        /* \"#utility.yul\":9266:9659   */\n      swap4\n      swap3\n      pop\n      pop\n      pop\n      jump\t// out\n        /* \"#utility.yul\":9665:9725   */\n    tag_146:\n        /* \"#utility.yul\":9693:9696   */\n      0x00\n        /* \"#utility.yul\":9714:9719   */\n      dup2\n        /* \"#utility.yul\":9707:9719   */\n      swap1\n      pop\n        /* \"#utility.yul\":9665:9725   */\n      swap2\n      swap1\n      pop\n      jump\t// out\n        /* \"#utility.yul\":9731:9873   */\n    tag_147:\n        /* \"#utility.yul\":9781:9790   */\n      0x00\n        /* \"#utility.yul\":9814:9867   */\n      tag_283\n        /* \"#utility.yul\":9832:9866   */\n      tag_284\n        /* \"#utility.yul\":9841:9865   */\n      tag_285\n        /* \"#utility.yul\":9859:9864   */\n      dup5\n        /* \"#utility.yul\":9841:9865   */\n      tag_108\n      jump\t// in\n    tag_285:\n        /* \"#utility.yul\":9832:9866   */\n      tag_146\n      jump\t// in\n    tag_284:\n        /* \"#utility.yul\":9814:9867   */\n      tag_108\n      jump\t// in\n    tag_283:\n        /* \"#utility.yul\":9801:9867   */\n      swap1\n      pop\n        /* \"#utility.yul\":9731:9873   */\n      swap2\n      swap1\n      pop\n      jump\t// out\n        /* \"#utility.yul\":9879:9954   */\n    tag_148:\n        /* \"#utility.yul\":9922:9925   */\n      0x00\n        /* \"#utility.yul\":9943:9948   */\n      dup2\n        /* \"#utility.yul\":9936:9948   */\n      swap1\n      pop\n        /* \"#utility.yul\":9879:9954   */\n      swap2\n      swap1\n      pop\n      jump\t// out\n        /* \"#utility.yul\":9960:10229   */\n    tag_149:\n        /* \"#utility.yul\":10070:10109   */\n      tag_288\n        /* \"#utility.yul\":10101:10108   */\n      dup4\n        /* \"#utility.yul\":10070:10109   */\n      tag_147\n      jump\t// in\n    tag_288:\n        /* \"#utility.yul\":10131:10222   */\n      tag_289\n        /* \"#utility.yul\":10180:10221   */\n      tag_290\n        /* \"#utility.yul\":10204:10220   */\n      dup3\n        /* \"#utility.yul\":10180:10221   */\n      tag_148\n      jump\t// in\n    tag_290:\n        /* \"#utility.yul\":10172:10178   */\n      dup5\n        /* \"#utility.yul\":10165:10169   */\n      dup5\n        /* \"#utility.yul\":10159:10170   */\n      sload\n        /* \"#utility.yul\":10131:10222   */\n      tag_145\n      jump\t// in\n    tag_289:\n        /* \"#utility.yul\":10125:10129   */\n      dup3\n        /* \"#utility.yul\":10118:10223   */\n      sstore\n        /* \"#utility.yul\":10036:10229   */\n      pop\n        /* \"#utility.yul\":9960:10229   */\n      pop\n      pop\n      pop\n      jump\t// out\n        /* \"#utility.yul\":10235:10308   */\n    tag_150:\n        /* \"#utility.yul\":10280:10283   */\n      0x00\n        /* \"#utility.yul\":10235:10308   */\n      swap1\n      jump\t// out\n        /* \"#utility.yul\":10314:10503   */\n    tag_151:\n        /* \"#utility.yul\":10391:10423   */\n      tag_293\n      tag_150\n      jump\t// in\n    tag_293:\n        /* \"#utility.yul\":10432:10497   */\n      tag_294\n        /* \"#utility.yul\":10490:10496   */\n      dup2\n        /* \"#utility.yul\":10482:10488   */\n      dup5\n        /* \"#utility.yul\":10476:10480   */\n      dup5\n        /* \"#utility.yul\":10432:10497   */\n      tag_149\n      jump\t// in\n    tag_294:\n        /* \"#utility.yul\":10367:10503   */\n      pop\n        /* \"#utility.yul\":10314:10503   */\n      pop\n      pop\n      jump\t// out\n        /* \"#utility.yul\":10509:10695   */\n    tag_152:\n        /* \"#utility.yul\":10569:10689   */\n    tag_296:\n        /* \"#utility.yul\":10586:10589   */\n      dup2\n        /* \"#utility.yul\":10579:10584   */\n      dup2\n        /* \"#utility.yul\":10576:10590   */\n      lt\n        /* \"#utility.yul\":10569:10689   */\n      iszero\n      tag_298\n      jumpi\n        /* \"#utility.yul\":10640:10679   */\n      tag_299\n        /* \"#utility.yul\":10677:10678   */\n      0x00\n        /* \"#utility.yul\":10670:10675   */\n      dup3\n        /* \"#utility.yul\":10640:10679   */\n      tag_151\n      jump\t// in\n    tag_299:\n        /* \"#utility.yul\":10613:10614   */\n      0x01\n        /* \"#utility.yul\":10606:10611   */\n      dup2\n        /* \"#utility.yul\":10602:10615   */\n      add\n        /* \"#utility.yul\":10593:10615   */\n      swap1\n      pop\n        /* \"#utility.yul\":10569:10689   */\n      jump(tag_296)\n    tag_298:\n        /* \"#utility.yul\":10509:10695   */\n      pop\n      pop\n      jump\t// out\n        /* \"#utility.yul\":10701:11244   */\n    tag_153:\n        /* \"#utility.yul\":10802:10804   */\n      0x1f\n        /* \"#utility.yul\":10797:10800   */\n      dup3\n        /* \"#utility.yul\":10794:10805   */\n      gt\n        /* \"#utility.yul\":10791:11237   */\n      iszero\n      tag_301\n      jumpi\n        /* \"#utility.yul\":10836:10874   */\n      tag_302\n        /* \"#utility.yul\":10868:10873   */\n      dup2\n        /* \"#utility.yul\":10836:10874   */\n      tag_142\n      jump\t// in\n    tag_302:\n        /* \"#utility.yul\":10920:10949   */\n      tag_303\n        /* \"#utility.yul\":10938:10948   */\n      dup5\n        /* \"#utility.yul\":10920:10949   */\n      tag_143\n      jump\t// in\n    tag_303:\n        /* \"#utility.yul\":10910:10918   */\n      dup2\n        /* \"#utility.yul\":10906:10950   */\n      add\n        /* \"#utility.yul\":11103:11105   */\n      0x20\n        /* \"#utility.yul\":11091:11101   */\n      dup6\n        /* \"#utility.yul\":11088:11106   */\n      lt\n        /* \"#utility.yul\":11085:11134   */\n      iszero\n      tag_304\n      jumpi\n        /* \"#utility.yul\":11124:11132   */\n      dup2\n        /* \"#utility.yul\":11109:11132   */\n      swap1\n      pop\n        /* \"#utility.yul\":11085:11134   */\n    tag_304:\n        /* \"#utility.yul\":11147:11227   */\n      tag_305\n        /* \"#utility.yul\":11203:11225   */\n      tag_306\n        /* \"#utility.yul\":11221:11224   */\n      dup6\n        /* \"#utility.yul\":11203:11225   */\n      tag_143\n      jump\t// in\n    tag_306:\n        /* \"#utility.yul\":11193:11201   */\n      dup4\n        /* \"#utility.yul\":11189:11226   */\n      add\n        /* \"#utility.yul\":11176:11187   */\n      dup3\n        /* \"#utility.yul\":11147:11227   */\n      tag_152\n      jump\t// in\n    tag_305:\n        /* \"#utility.yul\":10806:11237   */\n      pop\n      pop\n        /* \"#utility.yul\":10791:11237   */\n    tag_301:\n        /* \"#utility.yul\":10701:11244   */\n      pop\n      pop\n      pop\n      jump\t// out\n        /* \"#utility.yul\":11250:11367   */\n    tag_154:\n        /* \"#utility.yul\":11304:11312   */\n      0x00\n        /* \"#utility.yul\":11354:11359   */\n      dup3\n        /* \"#utility.yul\":11348:11352   */\n      dup3\n        /* \"#utility.yul\":11344:11360   */\n      shr\n        /* \"#utility.yul\":11323:11360   */\n      swap1\n      pop\n        /* \"#utility.yul\":11250:11367   */\n      swap3\n      swap2\n      pop\n      pop\n      jump\t// out\n        /* \"#utility.yul\":11373:11542   */\n    tag_155:\n        /* \"#utility.yul\":11417:11423   */\n      0x00\n        /* \"#utility.yul\":11450:11501   */\n      tag_309\n        /* \"#utility.yul\":11498:11499   */\n      0x00\n        /* \"#utility.yul\":11494:11500   */\n      not\n        /* \"#utility.yul\":11486:11491   */\n      dup5\n        /* \"#utility.yul\":11483:11484   */\n      0x08\n        /* \"#utility.yul\":11479:11492   */\n      mul\n        /* \"#utility.yul\":11450:11501   */\n      tag_154\n      jump\t// in\n    tag_309:\n        /* \"#utility.yul\":11446:11502   */\n      not\n        /* \"#utility.yul\":11531:11535   */\n      dup1\n        /* \"#utility.yul\":11525:11529   */\n      dup4\n        /* \"#utility.yul\":11521:11536   */\n      and\n        /* \"#utility.yul\":11511:11536   */\n      swap2\n      pop\n        /* \"#utility.yul\":11424:11542   */\n      pop\n        /* \"#utility.yul\":11373:11542   */\n      swap3\n      swap2\n      pop\n      pop\n      jump\t// out\n        /* \"#utility.yul\":11547:11842   */\n    tag_156:\n        /* \"#utility.yul\":11623:11627   */\n      0x00\n        /* \"#utility.yul\":11769:11798   */\n      tag_311\n        /* \"#utility.yul\":11794:11797   */\n      dup4\n        /* \"#utility.yul\":11788:11792   */\n      dup4\n        /* \"#utility.yul\":11769:11798   */\n      tag_155\n      jump\t// in\n    tag_311:\n        /* \"#utility.yul\":11761:11798   */\n      swap2\n      pop\n        /* \"#utility.yul\":11831:11834   */\n      dup3\n        /* \"#utility.yul\":11828:11829   */\n      0x02\n        /* \"#utility.yul\":11824:11835   */\n      mul\n        /* \"#utility.yul\":11818:11822   */\n      dup3\n        /* \"#utility.yul\":11815:11836   */\n      or\n        /* \"#utility.yul\":11807:11836   */\n      swap1\n      pop\n        /* \"#utility.yul\":11547:11842   */\n      swap3\n      swap2\n      pop\n      pop\n      jump\t// out\n        /* \"#utility.yul\":11847:13242   */\n    tag_73:\n        /* \"#utility.yul\":11964:12001   */\n      tag_313\n        /* \"#utility.yul\":11997:12000   */\n      dup3\n        /* \"#utility.yul\":11964:12001   */\n      tag_133\n      jump\t// in\n    tag_313:\n        /* \"#utility.yul\":12066:12084   */\n      0xffffffffffffffff\n        /* \"#utility.yul\":12058:12064   */\n      dup2\n        /* \"#utility.yul\":12055:12085   */\n      gt\n        /* \"#utility.yul\":12052:12108   */\n      iszero\n      tag_314\n      jumpi\n        /* \"#utility.yul\":12088:12106   */\n      tag_315\n      tag_116\n      jump\t// in\n    tag_315:\n        /* \"#utility.yul\":12052:12108   */\n    tag_314:\n        /* \"#utility.yul\":12132:12170   */\n      tag_316\n        /* \"#utility.yul\":12164:12168   */\n      dup3\n        /* \"#utility.yul\":12158:12169   */\n      sload\n        /* \"#utility.yul\":12132:12170   */\n      tag_83\n      jump\t// in\n    tag_316:\n        /* \"#utility.yul\":12217:12284   */\n      tag_317\n        /* \"#utility.yul\":12277:12283   */\n      dup3\n        /* \"#utility.yul\":12269:12275   */\n      dup3\n        /* \"#utility.yul\":12263:12267   */\n      dup6\n        /* \"#utility.yul\":12217:12284   */\n      tag_153\n      jump\t// in\n    tag_317:\n        /* \"#utility.yul\":12311:12312   */\n      0x00\n        /* \"#utility.yul\":12335:12339   */\n      0x20\n        /* \"#utility.yul\":12322:12339   */\n      swap1\n      pop\n        /* \"#utility.yul\":12367:12369   */\n      0x1f\n        /* \"#utility.yul\":12359:12365   */\n      dup4\n        /* \"#utility.yul\":12356:12370   */\n      gt\n        /* \"#utility.yul\":12384:12385   */\n      0x01\n        /* \"#utility.yul\":12379:12997   */\n      dup2\n      eq\n      tag_319\n      jumpi\n        /* \"#utility.yul\":13041:13042   */\n      0x00\n        /* \"#utility.yul\":13058:13064   */\n      dup5\n        /* \"#utility.yul\":13055:13132   */\n      iszero\n      tag_320\n      jumpi\n        /* \"#utility.yul\":13107:13116   */\n      dup3\n        /* \"#utility.yul\":13102:13105   */\n      dup8\n        /* \"#utility.yul\":13098:13117   */\n      add\n        /* \"#utility.yul\":13092:13118   */\n      mload\n        /* \"#utility.yul\":13083:13118   */\n      swap1\n      pop\n        /* \"#utility.yul\":13055:13132   */\n    tag_320:\n        /* \"#utility.yul\":13158:13225   */\n      tag_321\n        /* \"#utility.yul\":13218:13224   */\n      dup6\n        /* \"#utility.yul\":13211:13216   */\n      dup3\n        /* \"#utility.yul\":13158:13225   */\n      tag_156\n      jump\t// in\n    tag_321:\n        /* \"#utility.yul\":13152:13156   */\n      dup7\n        /* \"#utility.yul\":13145:13226   */\n      sstore\n        /* \"#utility.yul\":13014:13236   */\n      pop\n        /* \"#utility.yul\":12349:13236   */\n      jump(tag_318)\n        /* \"#utility.yul\":12379:12997   */\n    tag_319:\n        /* \"#utility.yul\":12431:12435   */\n      0x1f\n        /* \"#utility.yul\":12427:12436   */\n      not\n        /* \"#utility.yul\":12419:12425   */\n      dup5\n        /* \"#utility.yul\":12415:12437   */\n      and\n        /* \"#utility.yul\":12465:12502   */\n      tag_322\n        /* \"#utility.yul\":12497:12501   */\n      dup7\n        /* \"#utility.yul\":12465:12502   */\n      tag_142\n      jump\t// in\n    tag_322:\n        /* \"#utility.yul\":12524:12525   */\n      0x00\n        /* \"#utility.yul\":12538:12746   */\n    tag_323:\n        /* \"#utility.yul\":12552:12559   */\n      dup3\n        /* \"#utility.yul\":12549:12550   */\n      dup2\n        /* \"#utility.yul\":12546:12560   */\n      lt\n        /* \"#utility.yul\":12538:12746   */\n      iszero\n      tag_325\n      jumpi\n        /* \"#utility.yul\":12631:12640   */\n      dup5\n        /* \"#utility.yul\":12626:12629   */\n      dup10\n        /* \"#utility.yul\":12622:12641   */\n      add\n        /* \"#utility.yul\":12616:12642   */\n      mload\n        /* \"#utility.yul\":12608:12614   */\n      dup3\n        /* \"#utility.yul\":12601:12643   */\n      sstore\n        /* \"#utility.yul\":12682:12683   */\n      0x01\n        /* \"#utility.yul\":12674:12680   */\n      dup3\n        /* \"#utility.yul\":12670:12684   */\n      add\n        /* \"#utility.yul\":12660:12684   */\n      swap2\n      pop\n        /* \"#utility.yul\":12729:12731   */\n      0x20\n        /* \"#utility.yul\":12718:12727   */\n      dup6\n        /* \"#utility.yul\":12714:12732   */\n      add\n        /* \"#utility.yul\":12701:12732   */\n      swap5\n      pop\n        /* \"#utility.yul\":12575:12579   */\n      0x20\n        /* \"#utility.yul\":12572:12573   */\n      dup2\n        /* \"#utility.yul\":12568:12580   */\n      add\n        /* \"#utility.yul\":12563:12580   */\n      swap1\n      pop\n        /* \"#utility.yul\":12538:12746   */\n      jump(tag_323)\n    tag_325:\n        /* \"#utility.yul\":12774:12780   */\n      dup7\n        /* \"#utility.yul\":12765:12772   */\n      dup4\n        /* \"#utility.yul\":12762:12781   */\n      lt\n        /* \"#utility.yul\":12759:12938   */\n      iszero\n      tag_326\n      jumpi\n        /* \"#utility.yul\":12832:12841   */\n      dup5\n        /* \"#utility.yul\":12827:12830   */\n      dup10\n        /* \"#utility.yul\":12823:12842   */\n      add\n        /* \"#utility.yul\":12817:12843   */\n      mload\n        /* \"#utility.yul\":12875:12923   */\n      tag_327\n        /* \"#utility.yul\":12917:12921   */\n      0x1f\n        /* \"#utility.yul\":12909:12915   */\n      dup10\n        /* \"#utility.yul\":12905:12922   */\n      and\n        /* \"#utility.yul\":12894:12903   */\n      dup3\n        /* \"#utility.yul\":12875:12923   */\n      tag_155\n      jump\t// in\n    tag_327:\n        /* \"#utility.yul\":12867:12873   */\n      dup4\n        /* \"#utility.yul\":12860:12924   */\n      sstore\n        /* \"#utility.yul\":12782:12938   */\n      pop\n        /* \"#utility.yul\":12759:12938   */\n    tag_326:\n        /* \"#utility.yul\":12984:12985   */\n      0x01\n        /* \"#utility.yul\":12980:12981   */\n      0x02\n        /* \"#utility.yul\":12972:12978   */\n      dup9\n        /* \"#utility.yul\":12968:12982   */\n      mul\n        /* \"#utility.yul\":12964:12986   */\n      add\n        /* \"#utility.yul\":12958:12962   */\n      dup9\n        /* \"#utility.yul\":12951:12987   */\n      sstore\n        /* \"#utility.yul\":12386:12997   */\n      pop\n      pop\n      pop\n        /* \"#utility.yul\":12349:13236   */\n    tag_318:\n      pop\n        /* \"#utility.yul\":11939:13242   */\n      pop\n      pop\n      pop\n        /* \"#utility.yul\":11847:13242   */\n      pop\n      pop\n      jump\t// out\n        /* \"#utility.yul\":13248:13485   */\n    tag_157:\n        /* \"#utility.yul\":13388:13422   */\n      0x4e6f2073652063756d706c696f20656c206f626a657469766f2c207465207265\n        /* \"#utility.yul\":13384:13385   */\n      0x00\n        /* \"#utility.yul\":13376:13382   */\n      dup3\n        /* \"#utility.yul\":13372:13386   */\n      add\n        /* \"#utility.yul\":13365:13423   */\n      mstore\n        /* \"#utility.yul\":13457:13477   */\n      0x67726573616d6f7320656c2064696e65726f0000000000000000000000000000\n        /* \"#utility.yul\":13452:13454   */\n      0x20\n        /* \"#utility.yul\":13444:13450   */\n      dup3\n        /* \"#utility.yul\":13440:13455   */\n      add\n        /* \"#utility.yul\":13433:13478   */\n      mstore\n        /* \"#utility.yul\":13248:13485   */\n      pop\n      jump\t// out\n        /* \"#utility.yul\":13491:13857   */\n    tag_158:\n        /* \"#utility.yul\":13633:13636   */\n      0x00\n        /* \"#utility.yul\":13654:13721   */\n      tag_330\n        /* \"#utility.yul\":13718:13720   */\n      0x32\n        /* \"#utility.yul\":13713:13716   */\n      dup4\n        /* \"#utility.yul\":13654:13721   */\n      tag_134\n      jump\t// in\n    tag_330:\n        /* \"#utility.yul\":13647:13721   */\n      swap2\n      pop\n        /* \"#utility.yul\":13730:13823   */\n      tag_331\n        /* \"#utility.yul\":13819:13822   */\n      dup3\n        /* \"#utility.yul\":13730:13823   */\n      tag_157\n      jump\t// in\n    tag_331:\n        /* \"#utility.yul\":13848:13850   */\n      0x40\n        /* \"#utility.yul\":13843:13846   */\n      dup3\n        /* \"#utility.yul\":13839:13851   */\n      add\n        /* \"#utility.yul\":13832:13851   */\n      swap1\n      pop\n        /* \"#utility.yul\":13491:13857   */\n      swap2\n      swap1\n      pop\n      jump\t// out\n        /* \"#utility.yul\":13863:14282   */\n    tag_78:\n        /* \"#utility.yul\":14029:14033   */\n      0x00\n        /* \"#utility.yul\":14067:14069   */\n      0x20\n        /* \"#utility.yul\":14056:14065   */\n      dup3\n        /* \"#utility.yul\":14052:14070   */\n      add\n        /* \"#utility.yul\":14044:14070   */\n      swap1\n      pop\n        /* \"#utility.yul\":14116:14125   */\n      dup2\n        /* \"#utility.yul\":14110:14114   */\n      dup2\n        /* \"#utility.yul\":14106:14126   */\n      sub\n        /* \"#utility.yul\":14102:14103   */\n      0x00\n        /* \"#utility.yul\":14091:14100   */\n      dup4\n        /* \"#utility.yul\":14087:14104   */\n      add\n        /* \"#utility.yul\":14080:14127   */\n      mstore\n        /* \"#utility.yul\":14144:14275   */\n      tag_333\n        /* \"#utility.yul\":14270:14274   */\n      dup2\n        /* \"#utility.yul\":14144:14275   */\n      tag_158\n      jump\t// in\n    tag_333:\n        /* \"#utility.yul\":14136:14275   */\n      swap1\n      pop\n        /* \"#utility.yul\":13863:14282   */\n      swap2\n      swap1\n      pop\n      jump\t// out\n        /* \"#utility.yul\":14288:14461   */\n    tag_159:\n        /* \"#utility.yul\":14428:14453   */\n      0x4e6f20707573697374652070617261206c612076616361000000000000000000\n        /* \"#utility.yul\":14424:14425   */\n      0x00\n        /* \"#utility.yul\":14416:14422   */\n      dup3\n        /* \"#utility.yul\":14412:14426   */\n      add\n        /* \"#utility.yul\":14405:14454   */\n      mstore\n        /* \"#utility.yul\":14288:14461   */\n      pop\n      jump\t// out\n        /* \"#utility.yul\":14467:14833   */\n    tag_160:\n        /* \"#utility.yul\":14609:14612   */\n      0x00\n        /* \"#utility.yul\":14630:14697   */\n      tag_336\n        /* \"#utility.yul\":14694:14696   */\n      0x17\n        /* \"#utility.yul\":14689:14692   */\n      dup4\n        /* \"#utility.yul\":14630:14697   */\n      tag_134\n      jump\t// in\n    tag_336:\n        /* \"#utility.yul\":14623:14697   */\n      swap2\n      pop\n        /* \"#utility.yul\":14706:14799   */\n      tag_337\n        /* \"#utility.yul\":14795:14798   */\n      dup3\n        /* \"#utility.yul\":14706:14799   */\n      tag_159\n      jump\t// in\n    tag_337:\n        /* \"#utility.yul\":14824:14826   */\n      0x20\n        /* \"#utility.yul\":14819:14822   */\n      dup3\n        /* \"#utility.yul\":14815:14827   */\n      add\n        /* \"#utility.yul\":14808:14827   */\n      swap1\n      pop\n        /* \"#utility.yul\":14467:14833   */\n      swap2\n      swap1\n      pop\n      jump\t// out\n        /* \"#utility.yul\":14839:15258   */\n    tag_81:\n        /* \"#utility.yul\":15005:15009   */\n      0x00\n        /* \"#utility.yul\":15043:15045   */\n      0x20\n        /* \"#utility.yul\":15032:15041   */\n      dup3\n        /* \"#utility.yul\":15028:15046   */\n      add\n        /* \"#utility.yul\":15020:15046   */\n      swap1\n      pop\n        /* \"#utility.yul\":15092:15101   */\n      dup2\n        /* \"#utility.yul\":15086:15090   */\n      dup2\n        /* \"#utility.yul\":15082:15102   */\n      sub\n        /* \"#utility.yul\":15078:15079   */\n      0x00\n        /* \"#utility.yul\":15067:15076   */\n      dup4\n        /* \"#utility.yul\":15063:15080   */\n      add\n        /* \"#utility.yul\":15056:15103   */\n      mstore\n        /* \"#utility.yul\":15120:15251   */\n      tag_339\n        /* \"#utility.yul\":15246:15250   */\n      dup2\n        /* \"#utility.yul\":15120:15251   */\n      tag_160\n      jump\t// in\n    tag_339:\n        /* \"#utility.yul\":15112:15251   */\n      swap1\n      pop\n        /* \"#utility.yul\":14839:15258   */\n      swap2\n      swap1\n      pop\n      jump\t// out\n        /* \"#utility.yul\":15264:15433   */\n    tag_161:\n        /* \"#utility.yul\":15404:15425   */\n      0x5465726d696e6f20656c20646561646c696e6500000000000000000000000000\n        /* \"#utility.yul\":15400:15401   */\n      0x00\n        /* \"#utility.yul\":15392:15398   */\n      dup3\n        /* \"#utility.yul\":15388:15402   */\n      add\n        /* \"#utility.yul\":15381:15426   */\n      mstore\n        /* \"#utility.yul\":15264:15433   */\n      pop\n      jump\t// out\n        /* \"#utility.yul\":15439:15805   */\n    tag_162:\n        /* \"#utility.yul\":15581:15584   */\n      0x00\n        /* \"#utility.yul\":15602:15669   */\n      tag_342\n        /* \"#utility.yul\":15666:15668   */\n      0x13\n        /* \"#utility.yul\":15661:15664   */\n      dup4\n        /* \"#utility.yul\":15602:15669   */\n      tag_134\n      jump\t// in\n    tag_342:\n        /* \"#utility.yul\":15595:15669   */\n      swap2\n      pop\n        /* \"#utility.yul\":15678:15771   */\n      tag_343\n        /* \"#utility.yul\":15767:15770   */\n      dup3\n        /* \"#utility.yul\":15678:15771   */\n      tag_161\n      jump\t// in\n    tag_343:\n        /* \"#utility.yul\":15796:15798   */\n      0x20\n        /* \"#utility.yul\":15791:15794   */\n      dup3\n        /* \"#utility.yul\":15787:15799   */\n      add\n        /* \"#utility.yul\":15780:15799   */\n      swap1\n      pop\n        /* \"#utility.yul\":15439:15805   */\n      swap2\n      swap1\n      pop\n      jump\t// out\n        /* \"#utility.yul\":15811:16230   */\n    tag_91:\n        /* \"#utility.yul\":15977:15981   */\n      0x00\n        /* \"#utility.yul\":16015:16017   */\n      0x20\n        /* \"#utility.yul\":16004:16013   */\n      dup3\n        /* \"#utility.yul\":16000:16018   */\n      add\n        /* \"#utility.yul\":15992:16018   */\n      swap1\n      pop\n        /* \"#utility.yul\":16064:16073   */\n      dup2\n        /* \"#utility.yul\":16058:16062   */\n      dup2\n        /* \"#utility.yul\":16054:16074   */\n      sub\n        /* \"#utility.yul\":16050:16051   */\n      0x00\n        /* \"#utility.yul\":16039:16048   */\n      dup4\n        /* \"#utility.yul\":16035:16052   */\n      add\n        /* \"#utility.yul\":16028:16075   */\n      mstore\n        /* \"#utility.yul\":16092:16223   */\n      tag_345\n        /* \"#utility.yul\":16218:16222   */\n      dup2\n        /* \"#utility.yul\":16092:16223   */\n      tag_162\n      jump\t// in\n    tag_345:\n        /* \"#utility.yul\":16084:16223   */\n      swap1\n      pop\n        /* \"#utility.yul\":15811:16230   */\n      swap2\n      swap1\n      pop\n      jump\t// out\n        /* \"#utility.yul\":16236:16427   */\n    tag_93:\n        /* \"#utility.yul\":16276:16279   */\n      0x00\n        /* \"#utility.yul\":16295:16315   */\n      tag_347\n        /* \"#utility.yul\":16313:16314   */\n      dup3\n        /* \"#utility.yul\":16295:16315   */\n      tag_108\n      jump\t// in\n    tag_347:\n        /* \"#utility.yul\":16290:16315   */\n      swap2\n      pop\n        /* \"#utility.yul\":16329:16349   */\n      tag_348\n        /* \"#utility.yul\":16347:16348   */\n      dup4\n        /* \"#utility.yul\":16329:16349   */\n      tag_108\n      jump\t// in\n    tag_348:\n        /* \"#utility.yul\":16324:16349   */\n      swap3\n      pop\n        /* \"#utility.yul\":16372:16373   */\n      dup3\n        /* \"#utility.yul\":16369:16370   */\n      dup3\n        /* \"#utility.yul\":16365:16374   */\n      add\n        /* \"#utility.yul\":16358:16374   */\n      swap1\n      pop\n        /* \"#utility.yul\":16393:16396   */\n      dup1\n        /* \"#utility.yul\":16390:16391   */\n      dup3\n        /* \"#utility.yul\":16387:16397   */\n      gt\n        /* \"#utility.yul\":16384:16420   */\n      iszero\n      tag_349\n      jumpi\n        /* \"#utility.yul\":16400:16418   */\n      tag_350\n      tag_140\n      jump\t// in\n    tag_350:\n        /* \"#utility.yul\":16384:16420   */\n    tag_349:\n        /* \"#utility.yul\":16236:16427   */\n      swap3\n      swap2\n      pop\n      pop\n      jump\t// out\n        /* \"#utility.yul\":16433:16679   */\n    tag_163:\n        /* \"#utility.yul\":16573:16607   */\n      0x536f6c6f20656c2061646d696e6973747261646f722064656c20636f6e747261\n        /* \"#utility.yul\":16569:16570   */\n      0x00\n        /* \"#utility.yul\":16561:16567   */\n      dup3\n        /* \"#utility.yul\":16557:16571   */\n      add\n        /* \"#utility.yul\":16550:16608   */\n      mstore\n        /* \"#utility.yul\":16642:16671   */\n      0x746f207075656465207265746f726172206c6f7320666f6e646f730000000000\n        /* \"#utility.yul\":16637:16639   */\n      0x20\n        /* \"#utility.yul\":16629:16635   */\n      dup3\n        /* \"#utility.yul\":16625:16640   */\n      add\n        /* \"#utility.yul\":16618:16672   */\n      mstore\n        /* \"#utility.yul\":16433:16679   */\n      pop\n      jump\t// out\n        /* \"#utility.yul\":16685:17051   */\n    tag_164:\n        /* \"#utility.yul\":16827:16830   */\n      0x00\n        /* \"#utility.yul\":16848:16915   */\n      tag_353\n        /* \"#utility.yul\":16912:16914   */\n      0x3b\n        /* \"#utility.yul\":16907:16910   */\n      dup4\n        /* \"#utility.yul\":16848:16915   */\n      tag_134\n      jump\t// in\n    tag_353:\n        /* \"#utility.yul\":16841:16915   */\n      swap2\n      pop\n        /* \"#utility.yul\":16924:17017   */\n      tag_354\n        /* \"#utility.yul\":17013:17016   */\n      dup3\n        /* \"#utility.yul\":16924:17017   */\n      tag_163\n      jump\t// in\n    tag_354:\n        /* \"#utility.yul\":17042:17044   */\n      0x40\n        /* \"#utility.yul\":17037:17040   */\n      dup3\n        /* \"#utility.yul\":17033:17045   */\n      add\n        /* \"#utility.yul\":17026:17045   */\n      swap1\n      pop\n        /* \"#utility.yul\":16685:17051   */\n      swap2\n      swap1\n      pop\n      jump\t// out\n        /* \"#utility.yul\":17057:17476   */\n    tag_98:\n        /* \"#utility.yul\":17223:17227   */\n      0x00\n        /* \"#utility.yul\":17261:17263   */\n      0x20\n        /* \"#utility.yul\":17250:17259   */\n      dup3\n        /* \"#utility.yul\":17246:17264   */\n      add\n        /* \"#utility.yul\":17238:17264   */\n      swap1\n      pop\n        /* \"#utility.yul\":17310:17319   */\n      dup2\n        /* \"#utility.yul\":17304:17308   */\n      dup2\n        /* \"#utility.yul\":17300:17320   */\n      sub\n        /* \"#utility.yul\":17296:17297   */\n      0x00\n        /* \"#utility.yul\":17285:17294   */\n      dup4\n        /* \"#utility.yul\":17281:17298   */\n      add\n        /* \"#utility.yul\":17274:17321   */\n      mstore\n        /* \"#utility.yul\":17338:17469   */\n      tag_356\n        /* \"#utility.yul\":17464:17468   */\n      dup2\n        /* \"#utility.yul\":17338:17469   */\n      tag_164\n      jump\t// in\n    tag_356:\n        /* \"#utility.yul\":17330:17469   */\n      swap1\n      pop\n        /* \"#utility.yul\":17057:17476   */\n      swap2\n      swap1\n      pop\n      jump\t// out\n        /* \"#utility.yul\":17482:17653   */\n    tag_165:\n        /* \"#utility.yul\":17622:17645   */\n      0x4e6f2073652063756d706c696f206c61206d6574610000000000000000000000\n        /* \"#utility.yul\":17618:17619   */\n      0x00\n        /* \"#utility.yul\":17610:17616   */\n      dup3\n        /* \"#utility.yul\":17606:17620   */\n      add\n        /* \"#utility.yul\":17599:17646   */\n      mstore\n        /* \"#utility.yul\":17482:17653   */\n      pop\n      jump\t// out\n        /* \"#utility.yul\":17659:18025   */\n    tag_166:\n        /* \"#utility.yul\":17801:17804   */\n      0x00\n        /* \"#utility.yul\":17822:17889   */\n      tag_359\n        /* \"#utility.yul\":17886:17888   */\n      0x15\n        /* \"#utility.yul\":17881:17884   */\n      dup4\n        /* \"#utility.yul\":17822:17889   */\n      tag_134\n      jump\t// in\n    tag_359:\n        /* \"#utility.yul\":17815:17889   */\n      swap2\n      pop\n        /* \"#utility.yul\":17898:17991   */\n      tag_360\n        /* \"#utility.yul\":17987:17990   */\n      dup3\n        /* \"#utility.yul\":17898:17991   */\n      tag_165\n      jump\t// in\n    tag_360:\n        /* \"#utility.yul\":18016:18018   */\n      0x20\n        /* \"#utility.yul\":18011:18014   */\n      dup3\n        /* \"#utility.yul\":18007:18019   */\n      add\n        /* \"#utility.yul\":18000:18019   */\n      swap1\n      pop\n        /* \"#utility.yul\":17659:18025   */\n      swap2\n      swap1\n      pop\n      jump\t// out\n        /* \"#utility.yul\":18031:18450   */\n    tag_102:\n        /* \"#utility.yul\":18197:18201   */\n      0x00\n        /* \"#utility.yul\":18235:18237   */\n      0x20\n        /* \"#utility.yul\":18224:18233   */\n      dup3\n        /* \"#utility.yul\":18220:18238   */\n      add\n        /* \"#utility.yul\":18212:18238   */\n      swap1\n      pop\n        /* \"#utility.yul\":18284:18293   */\n      dup2\n        /* \"#utility.yul\":18278:18282   */\n      dup2\n        /* \"#utility.yul\":18274:18294   */\n      sub\n        /* \"#utility.yul\":18270:18271   */\n      0x00\n        /* \"#utility.yul\":18259:18268   */\n      dup4\n        /* \"#utility.yul\":18255:18272   */\n      add\n        /* \"#utility.yul\":18248:18295   */\n      mstore\n        /* \"#utility.yul\":18312:18443   */\n      tag_362\n        /* \"#utility.yul\":18438:18442   */\n      dup2\n        /* \"#utility.yul\":18312:18443   */\n      tag_166\n      jump\t// in\n    tag_362:\n        /* \"#utility.yul\":18304:18443   */\n      swap1\n      pop\n        /* \"#utility.yul\":18031:18450   */\n      swap2\n      swap1\n      pop\n      jump\t// out\n        /* \"#utility.yul\":18456:18637   */\n    tag_167:\n        /* \"#utility.yul\":18596:18629   */\n      0x45737461207065746963696f6e206e6f2066756520636f6d706c657461646100\n        /* \"#utility.yul\":18592:18593   */\n      0x00\n        /* \"#utility.yul\":18584:18590   */\n      dup3\n        /* \"#utility.yul\":18580:18594   */\n      add\n        /* \"#utility.yul\":18573:18630   */\n      mstore\n        /* \"#utility.yul\":18456:18637   */\n      pop\n      jump\t// out\n        /* \"#utility.yul\":18643:19009   */\n    tag_168:\n        /* \"#utility.yul\":18785:18788   */\n      0x00\n        /* \"#utility.yul\":18806:18873   */\n      tag_365\n        /* \"#utility.yul\":18870:18872   */\n      0x1f\n        /* \"#utility.yul\":18865:18868   */\n      dup4\n        /* \"#utility.yul\":18806:18873   */\n      tag_134\n      jump\t// in\n    tag_365:\n        /* \"#utility.yul\":18799:18873   */\n      swap2\n      pop\n        /* \"#utility.yul\":18882:18975   */\n      tag_366\n        /* \"#utility.yul\":18971:18974   */\n      dup3\n        /* \"#utility.yul\":18882:18975   */\n      tag_167\n      jump\t// in\n    tag_366:\n        /* \"#utility.yul\":19000:19002   */\n      0x20\n        /* \"#utility.yul\":18995:18998   */\n      dup3\n        /* \"#utility.yul\":18991:19003   */\n      add\n        /* \"#utility.yul\":18984:19003   */\n      swap1\n      pop\n        /* \"#utility.yul\":18643:19009   */\n      swap2\n      swap1\n      pop\n      jump\t// out\n        /* \"#utility.yul\":19015:19434   */\n    tag_105:\n        /* \"#utility.yul\":19181:19185   */\n      0x00\n        /* \"#utility.yul\":19219:19221   */\n      0x20\n        /* \"#utility.yul\":19208:19217   */\n      dup3\n        /* \"#utility.yul\":19204:19222   */\n      add\n        /* \"#utility.yul\":19196:19222   */\n      swap1\n      pop\n        /* \"#utility.yul\":19268:19277   */\n      dup2\n        /* \"#utility.yul\":19262:19266   */\n      dup2\n        /* \"#utility.yul\":19258:19278   */\n      sub\n        /* \"#utility.yul\":19254:19255   */\n      0x00\n        /* \"#utility.yul\":19243:19252   */\n      dup4\n        /* \"#utility.yul\":19239:19256   */\n      add\n        /* \"#utility.yul\":19232:19279   */\n      mstore\n        /* \"#utility.yul\":19296:19427   */\n      tag_368\n        /* \"#utility.yul\":19422:19426   */\n      dup2\n        /* \"#utility.yul\":19296:19427   */\n      tag_168\n      jump\t// in\n    tag_368:\n        /* \"#utility.yul\":19288:19427   */\n      swap1\n      pop\n        /* \"#utility.yul\":19015:19434   */\n      swap2\n      swap1\n      pop\n      jump\t// out\n\n    auxdata: 0xa2646970667358221220473256b939cd505d140f54874382174c6743fb92c29b459421e0a1af18613e1764736f6c63430008180033\n}\n",
				"bytecode": {
					"linkReferences": {},
					"object": "608060405234801562000010575f80fd5b5060405162001410380380620014108339818101604052810190620000369190620000dc565b816003819055508060028190555080426200005291906200014e565b6002819055503360015f6101000a81548173ffffffffffffffffffffffffffffffffffffffff021916908373ffffffffffffffffffffffffffffffffffffffff160217905550505062000188565b5f80fd5b5f819050919050565b620000b881620000a4565b8114620000c3575f80fd5b50565b5f81519050620000d681620000ad565b92915050565b5f8060408385031215620000f557620000f4620000a0565b5b5f6200010485828601620000c6565b92505060206200011785828601620000c6565b9150509250929050565b7f4e487b71000000000000000000000000000000000000000000000000000000005f52601160045260245ffd5b5f6200015a82620000a4565b91506200016783620000a4565b925082820190508082111562000182576200018162000121565b5b92915050565b61127a80620001965f395ff3fe6080604052600436106100a6575f3560e01c8063590e1ae311610063578063590e1ae3146101b657806381d12c58146101cc57806387a316dc1461020b5780638d68cf5914610235578063953b8fb81461023f578063c1597b3314610269576100a6565b806312065fe0146100aa5780631b16bb5c146100d457806329dcb0cf146100fc5780634034a5391461012657806341a67b6f14610162578063481c6a751461018c575b5f80fd5b3480156100b5575f80fd5b506100be610291565b6040516100cb919061081c565b60405180910390f35b3480156100df575f80fd5b506100fa60048036038101906100f59190610a06565b610298565b005b348015610107575f80fd5b50610110610342565b60405161011d919061081c565b60405180910390f35b348015610131575f80fd5b5061014c60048036038101906101479190610aad565b610348565b604051610159919061081c565b60405180910390f35b34801561016d575f80fd5b5061017661035c565b604051610183919061081c565b60405180910390f35b348015610197575f80fd5b506101a0610362565b6040516101ad9190610ae7565b60405180910390f35b3480156101c1575f80fd5b506101ca610387565b005b3480156101d7575f80fd5b506101f260048036038101906101ed9190610b00565b6104a0565b6040516102029493929190610bce565b60405180910390f35b348015610216575f80fd5b5061021f61057d565b60405161022c919061081c565b60405180910390f35b61023d610583565b005b34801561024a575f80fd5b50610253610633565b604051610260919061081c565b60405180910390f35b348015610274575f80fd5b5061028f600480360381019061028a9190610b00565b610639565b005b5f47905090565b5f60055f60065481526020019081526020015f20905060065f8154809291906102c090610c45565b919050555083815f0190816102d59190610e86565b5082816001015f6101000a81548173ffffffffffffffffffffffffffffffffffffffff021916908373ffffffffffffffffffffffffffffffffffffffff1602179055508181600201819055505f816003015f6101000a81548160ff02191690831515021790555050505050565b60025481565b5f602052805f5260405f205f915090505481565b60065481565b60015f9054906101000a900473ffffffffffffffffffffffffffffffffffffffff1681565b6002544211801561039b5750600354600454105b6103da576040517f08c379a00000000000000000000000000000000000000000000000000000000081526004016103d190610fc5565b60405180910390fd5b5f805f3373ffffffffffffffffffffffffffffffffffffffff1673ffffffffffffffffffffffffffffffffffffffff1681526020019081526020015f205490505f811161045c576040517f08c379a00000000000000000000000000000000000000000000000000000000081526004016104539061102d565b60405180910390fd5b5f805f3373ffffffffffffffffffffffffffffffffffffffff1673ffffffffffffffffffffffffffffffffffffffff1681526020019081526020015f208190555050565b6005602052805f5260405f205f91509050805f0180546104bf90610cb9565b80601f01602080910402602001604051908101604052809291908181526020018280546104eb90610cb9565b80156105365780601f1061050d57610100808354040283529160200191610536565b820191905f5260205f20905b81548152906001019060200180831161051957829003601f168201915b505050505090806001015f9054906101000a900473ffffffffffffffffffffffffffffffffffffffff1690806002015490806003015f9054906101000a900460ff16905084565b60045481565b60025442106105c7576040517f08c379a00000000000000000000000000000000000000000000000000000000081526004016105be90611095565b60405180910390fd5b345f803373ffffffffffffffffffffffffffffffffffffffff1673ffffffffffffffffffffffffffffffffffffffff1681526020019081526020015f205f82825461061291906110b3565b925050819055503460045f82825461062a91906110b3565b92505081905550565b60035481565b60015f9054906101000a900473ffffffffffffffffffffffffffffffffffffffff1673ffffffffffffffffffffffffffffffffffffffff163373ffffffffffffffffffffffffffffffffffffffff16146106c8576040517f08c379a00000000000000000000000000000000000000000000000000000000081526004016106bf90611156565b60405180910390fd5b600354600454101561070f576040517f08c379a0000000000000000000000000000000000000000000000000000000008152600401610706906111be565b60405180910390fd5b5f60055f8381526020019081526020015f2090505f1515816003015f9054906101000a900460ff16151514610779576040517f08c379a000000000000000000000000000000000000000000000000000000000815260040161077090611226565b60405180910390fd5b806001015f9054906101000a900473ffffffffffffffffffffffffffffffffffffffff1673ffffffffffffffffffffffffffffffffffffffff166108fc826002015490811502906040515f60405180830381858888f193505050501580156107e3573d5f803e3d5ffd5b506001816003015f6101000a81548160ff0219169083151502179055505050565b5f819050919050565b61081681610804565b82525050565b5f60208201905061082f5f83018461080d565b92915050565b5f604051905090565b5f80fd5b5f80fd5b5f80fd5b5f80fd5b5f601f19601f8301169050919050565b7f4e487b71000000000000000000000000000000000000000000000000000000005f52604160045260245ffd5b6108948261084e565b810181811067ffffffffffffffff821117156108b3576108b261085e565b5b80604052505050565b5f6108c5610835565b90506108d1828261088b565b919050565b5f67ffffffffffffffff8211156108f0576108ef61085e565b5b6108f98261084e565b9050602081019050919050565b828183375f83830152505050565b5f610926610921846108d6565b6108bc565b9050828152602081018484840111156109425761094161084a565b5b61094d848285610906565b509392505050565b5f82601f83011261096957610968610846565b5b8135610979848260208601610914565b91505092915050565b5f73ffffffffffffffffffffffffffffffffffffffff82169050919050565b5f6109ab82610982565b9050919050565b6109bb816109a1565b81146109c5575f80fd5b50565b5f813590506109d6816109b2565b92915050565b6109e581610804565b81146109ef575f80fd5b50565b5f81359050610a00816109dc565b92915050565b5f805f60608486031215610a1d57610a1c61083e565b5b5f84013567ffffffffffffffff811115610a3a57610a39610842565b5b610a4686828701610955565b9350506020610a57868287016109c8565b9250506040610a68868287016109f2565b9150509250925092565b5f610a7c82610982565b9050919050565b610a8c81610a72565b8114610a96575f80fd5b50565b5f81359050610aa781610a83565b92915050565b5f60208284031215610ac257610ac161083e565b5b5f610acf84828501610a99565b91505092915050565b610ae181610a72565b82525050565b5f602082019050610afa5f830184610ad8565b92915050565b5f60208284031215610b1557610b1461083e565b5b5f610b22848285016109f2565b91505092915050565b5f81519050919050565b5f82825260208201905092915050565b5f5b83811015610b62578082015181840152602081019050610b47565b5f8484015250505050565b5f610b7782610b2b565b610b818185610b35565b9350610b91818560208601610b45565b610b9a8161084e565b840191505092915050565b610bae816109a1565b82525050565b5f8115159050919050565b610bc881610bb4565b82525050565b5f6080820190508181035f830152610be68187610b6d565b9050610bf56020830186610ba5565b610c02604083018561080d565b610c0f6060830184610bbf565b95945050505050565b7f4e487b71000000000000000000000000000000000000000000000000000000005f52601160045260245ffd5b5f610c4f82610804565b91507fffffffffffffffffffffffffffffffffffffffffffffffffffffffffffffffff8203610c8157610c80610c18565b5b600182019050919050565b7f4e487b71000000000000000000000000000000000000000000000000000000005f52602260045260245ffd5b5f6002820490506001821680610cd057607f821691505b602082108103610ce357610ce2610c8c565b5b50919050565b5f819050815f5260205f209050919050565b5f6020601f8301049050919050565b5f82821b905092915050565b5f60088302610d457fffffffffffffffffffffffffffffffffffffffffffffffffffffffffffffffff82610d0a565b610d4f8683610d0a565b95508019841693508086168417925050509392505050565b5f819050919050565b5f610d8a610d85610d8084610804565b610d67565b610804565b9050919050565b5f819050919050565b610da383610d70565b610db7610daf82610d91565b848454610d16565b825550505050565b5f90565b610dcb610dbf565b610dd6818484610d9a565b505050565b5b81811015610df957610dee5f82610dc3565b600181019050610ddc565b5050565b601f821115610e3e57610e0f81610ce9565b610e1884610cfb565b81016020851015610e27578190505b610e3b610e3385610cfb565b830182610ddb565b50505b505050565b5f82821c905092915050565b5f610e5e5f1984600802610e43565b1980831691505092915050565b5f610e768383610e4f565b9150826002028217905092915050565b610e8f82610b2b565b67ffffffffffffffff811115610ea857610ea761085e565b5b610eb28254610cb9565b610ebd828285610dfd565b5f60209050601f831160018114610eee575f8415610edc578287015190505b610ee68582610e6b565b865550610f4d565b601f198416610efc86610ce9565b5f5b82811015610f2357848901518255600182019150602085019450602081019050610efe565b86831015610f405784890151610f3c601f891682610e4f565b8355505b6001600288020188555050505b505050505050565b7f4e6f2073652063756d706c696f20656c206f626a657469766f2c2074652072655f8201527f67726573616d6f7320656c2064696e65726f0000000000000000000000000000602082015250565b5f610faf603283610b35565b9150610fba82610f55565b604082019050919050565b5f6020820190508181035f830152610fdc81610fa3565b9050919050565b7f4e6f20707573697374652070617261206c6120766163610000000000000000005f82015250565b5f611017601783610b35565b915061102282610fe3565b602082019050919050565b5f6020820190508181035f8301526110448161100b565b9050919050565b7f5465726d696e6f20656c20646561646c696e65000000000000000000000000005f82015250565b5f61107f601383610b35565b915061108a8261104b565b602082019050919050565b5f6020820190508181035f8301526110ac81611073565b9050919050565b5f6110bd82610804565b91506110c883610804565b92508282019050808211156110e0576110df610c18565b5b92915050565b7f536f6c6f20656c2061646d696e6973747261646f722064656c20636f6e7472615f8201527f746f207075656465207265746f726172206c6f7320666f6e646f730000000000602082015250565b5f611140603b83610b35565b915061114b826110e6565b604082019050919050565b5f6020820190508181035f83015261116d81611134565b9050919050565b7f4e6f2073652063756d706c696f206c61206d65746100000000000000000000005f82015250565b5f6111a8601583610b35565b91506111b382611174565b602082019050919050565b5f6020820190508181035f8301526111d58161119c565b9050919050565b7f45737461207065746963696f6e206e6f2066756520636f6d706c6574616461005f82015250565b5f611210601f83610b35565b915061121b826111dc565b602082019050919050565b5f6020820190508181035f83015261123d81611204565b905091905056fea2646970667358221220473256b939cd505d140f54874382174c6743fb92c29b459421e0a1af18613e1764736f6c63430008180033",
					"opcodes": "PUSH1 0x80 PUSH1 0x40 MSTORE CALLVALUE DUP1 ISZERO PUSH3 0x10 JUMPI PUSH0 DUP1 REVERT JUMPDEST POP PUSH1 0x40 MLOAD PUSH3 0x1410 CODESIZE SUB DUP1 PUSH3 0x1410 DUP4 CODECOPY DUP2 DUP2 ADD PUSH1 0x40 MSTORE DUP2 ADD SWAP1 PUSH3 0x36 SWAP2 SWAP1 PUSH3 0xDC JUMP JUMPDEST DUP2 PUSH1 0x3 DUP2 SWAP1 SSTORE POP DUP1 PUSH1 0x2 DUP2 SWAP1 SSTORE POP DUP1 TIMESTAMP PUSH3 0x52 SWAP2 SWAP1 PUSH3 0x14E JUMP JUMPDEST PUSH1 0x2 DUP2 SWAP1 SSTORE POP CALLER PUSH1 0x1 PUSH0 PUSH2 0x100 EXP DUP2 SLOAD DUP2 PUSH20 0xFFFFFFFFFFFFFFFFFFFFFFFFFFFFFFFFFFFFFFFF MUL NOT AND SWAP1 DUP4 PUSH20 0xFFFFFFFFFFFFFFFFFFFFFFFFFFFFFFFFFFFFFFFF AND MUL OR SWAP1 SSTORE POP POP POP PUSH3 0x188 JUMP JUMPDEST PUSH0 DUP1 REVERT JUMPDEST PUSH0 DUP2 SWAP1 POP SWAP2 SWAP1 POP JUMP JUMPDEST PUSH3 0xB8 DUP2 PUSH3 0xA4 JUMP JUMPDEST DUP2 EQ PUSH3 0xC3 JUMPI PUSH0 DUP1 REVERT JUMPDEST POP JUMP JUMPDEST PUSH0 DUP2 MLOAD SWAP1 POP PUSH3 0xD6 DUP2 PUSH3 0xAD JUMP JUMPDEST SWAP3 SWAP2 POP POP JUMP JUMPDEST PUSH0 DUP1 PUSH1 0x40 DUP4 DUP6 SUB SLT ISZERO PUSH3 0xF5 JUMPI PUSH3 0xF4 PUSH3 0xA0 JUMP JUMPDEST JUMPDEST PUSH0 PUSH3 0x104 DUP6 DUP3 DUP7 ADD PUSH3 0xC6 JUMP JUMPDEST SWAP3 POP POP PUSH1 0x20 PUSH3 0x117 DUP6 DUP3 DUP7 ADD PUSH3 0xC6 JUMP JUMPDEST SWAP2 POP POP SWAP3 POP SWAP3 SWAP1 POP JUMP JUMPDEST PUSH32 0x4E487B7100000000000000000000000000000000000000000000000000000000 PUSH0 MSTORE PUSH1 0x11 PUSH1 0x4 MSTORE PUSH1 0x24 PUSH0 REVERT JUMPDEST PUSH0 PUSH3 0x15A DUP3 PUSH3 0xA4 JUMP JUMPDEST SWAP2 POP PUSH3 0x167 DUP4 PUSH3 0xA4 JUMP JUMPDEST SWAP3 POP DUP3 DUP3 ADD SWAP1 POP DUP1 DUP3 GT ISZERO PUSH3 0x182 JUMPI PUSH3 0x181 PUSH3 0x121 JUMP JUMPDEST JUMPDEST SWAP3 SWAP2 POP POP JUMP JUMPDEST PUSH2 0x127A DUP1 PUSH3 0x196 PUSH0 CODECOPY PUSH0 RETURN INVALID PUSH1 0x80 PUSH1 0x40 MSTORE PUSH1 0x4 CALLDATASIZE LT PUSH2 0xA6 JUMPI PUSH0 CALLDATALOAD PUSH1 0xE0 SHR DUP1 PUSH4 0x590E1AE3 GT PUSH2 0x63 JUMPI DUP1 PUSH4 0x590E1AE3 EQ PUSH2 0x1B6 JUMPI DUP1 PUSH4 0x81D12C58 EQ PUSH2 0x1CC JUMPI DUP1 PUSH4 0x87A316DC EQ PUSH2 0x20B JUMPI DUP1 PUSH4 0x8D68CF59 EQ PUSH2 0x235 JUMPI DUP1 PUSH4 0x953B8FB8 EQ PUSH2 0x23F JUMPI DUP1 PUSH4 0xC1597B33 EQ PUSH2 0x269 JUMPI PUSH2 0xA6 JUMP JUMPDEST DUP1 PUSH4 0x12065FE0 EQ PUSH2 0xAA JUMPI DUP1 PUSH4 0x1B16BB5C EQ PUSH2 0xD4 JUMPI DUP1 PUSH4 0x29DCB0CF EQ PUSH2 0xFC JUMPI DUP1 PUSH4 0x4034A539 EQ PUSH2 0x126 JUMPI DUP1 PUSH4 0x41A67B6F EQ PUSH2 0x162 JUMPI DUP1 PUSH4 0x481C6A75 EQ PUSH2 0x18C JUMPI JUMPDEST PUSH0 DUP1 REVERT JUMPDEST CALLVALUE DUP1 ISZERO PUSH2 0xB5 JUMPI PUSH0 DUP1 REVERT JUMPDEST POP PUSH2 0xBE PUSH2 0x291 JUMP JUMPDEST PUSH1 0x40 MLOAD PUSH2 0xCB SWAP2 SWAP1 PUSH2 0x81C JUMP JUMPDEST PUSH1 0x40 MLOAD DUP1 SWAP2 SUB SWAP1 RETURN JUMPDEST CALLVALUE DUP1 ISZERO PUSH2 0xDF JUMPI PUSH0 DUP1 REVERT JUMPDEST POP PUSH2 0xFA PUSH1 0x4 DUP1 CALLDATASIZE SUB DUP2 ADD SWAP1 PUSH2 0xF5 SWAP2 SWAP1 PUSH2 0xA06 JUMP JUMPDEST PUSH2 0x298 JUMP JUMPDEST STOP JUMPDEST CALLVALUE DUP1 ISZERO PUSH2 0x107 JUMPI PUSH0 DUP1 REVERT JUMPDEST POP PUSH2 0x110 PUSH2 0x342 JUMP JUMPDEST PUSH1 0x40 MLOAD PUSH2 0x11D SWAP2 SWAP1 PUSH2 0x81C JUMP JUMPDEST PUSH1 0x40 MLOAD DUP1 SWAP2 SUB SWAP1 RETURN JUMPDEST CALLVALUE DUP1 ISZERO PUSH2 0x131 JUMPI PUSH0 DUP1 REVERT JUMPDEST POP PUSH2 0x14C PUSH1 0x4 DUP1 CALLDATASIZE SUB DUP2 ADD SWAP1 PUSH2 0x147 SWAP2 SWAP1 PUSH2 0xAAD JUMP JUMPDEST PUSH2 0x348 JUMP JUMPDEST PUSH1 0x40 MLOAD PUSH2 0x159 SWAP2 SWAP1 PUSH2 0x81C JUMP JUMPDEST PUSH1 0x40 MLOAD DUP1 SWAP2 SUB SWAP1 RETURN JUMPDEST CALLVALUE DUP1 ISZERO PUSH2 0x16D JUMPI PUSH0 DUP1 REVERT JUMPDEST POP PUSH2 0x176 PUSH2 0x35C JUMP JUMPDEST PUSH1 0x40 MLOAD PUSH2 0x183 SWAP2 SWAP1 PUSH2 0x81C JUMP JUMPDEST PUSH1 0x40 MLOAD DUP1 SWAP2 SUB SWAP1 RETURN JUMPDEST CALLVALUE DUP1 ISZERO PUSH2 0x197 JUMPI PUSH0 DUP1 REVERT JUMPDEST POP PUSH2 0x1A0 PUSH2 0x362 JUMP JUMPDEST PUSH1 0x40 MLOAD PUSH2 0x1AD SWAP2 SWAP1 PUSH2 0xAE7 JUMP JUMPDEST PUSH1 0x40 MLOAD DUP1 SWAP2 SUB SWAP1 RETURN JUMPDEST CALLVALUE DUP1 ISZERO PUSH2 0x1C1 JUMPI PUSH0 DUP1 REVERT JUMPDEST POP PUSH2 0x1CA PUSH2 0x387 JUMP JUMPDEST STOP JUMPDEST CALLVALUE DUP1 ISZERO PUSH2 0x1D7 JUMPI PUSH0 DUP1 REVERT JUMPDEST POP PUSH2 0x1F2 PUSH1 0x4 DUP1 CALLDATASIZE SUB DUP2 ADD SWAP1 PUSH2 0x1ED SWAP2 SWAP1 PUSH2 0xB00 JUMP JUMPDEST PUSH2 0x4A0 JUMP JUMPDEST PUSH1 0x40 MLOAD PUSH2 0x202 SWAP5 SWAP4 SWAP3 SWAP2 SWAP1 PUSH2 0xBCE JUMP JUMPDEST PUSH1 0x40 MLOAD DUP1 SWAP2 SUB SWAP1 RETURN JUMPDEST CALLVALUE DUP1 ISZERO PUSH2 0x216 JUMPI PUSH0 DUP1 REVERT JUMPDEST POP PUSH2 0x21F PUSH2 0x57D JUMP JUMPDEST PUSH1 0x40 MLOAD PUSH2 0x22C SWAP2 SWAP1 PUSH2 0x81C JUMP JUMPDEST PUSH1 0x40 MLOAD DUP1 SWAP2 SUB SWAP1 RETURN JUMPDEST PUSH2 0x23D PUSH2 0x583 JUMP JUMPDEST STOP JUMPDEST CALLVALUE DUP1 ISZERO PUSH2 0x24A JUMPI PUSH0 DUP1 REVERT JUMPDEST POP PUSH2 0x253 PUSH2 0x633 JUMP JUMPDEST PUSH1 0x40 MLOAD PUSH2 0x260 SWAP2 SWAP1 PUSH2 0x81C JUMP JUMPDEST PUSH1 0x40 MLOAD DUP1 SWAP2 SUB SWAP1 RETURN JUMPDEST CALLVALUE DUP1 ISZERO PUSH2 0x274 JUMPI PUSH0 DUP1 REVERT JUMPDEST POP PUSH2 0x28F PUSH1 0x4 DUP1 CALLDATASIZE SUB DUP2 ADD SWAP1 PUSH2 0x28A SWAP2 SWAP1 PUSH2 0xB00 JUMP JUMPDEST PUSH2 0x639 JUMP JUMPDEST STOP JUMPDEST PUSH0 SELFBALANCE SWAP1 POP SWAP1 JUMP JUMPDEST PUSH0 PUSH1 0x5 PUSH0 PUSH1 0x6 SLOAD DUP2 MSTORE PUSH1 0x20 ADD SWAP1 DUP2 MSTORE PUSH1 0x20 ADD PUSH0 KECCAK256 SWAP1 POP PUSH1 0x6 PUSH0 DUP2 SLOAD DUP1 SWAP3 SWAP2 SWAP1 PUSH2 0x2C0 SWAP1 PUSH2 0xC45 JUMP JUMPDEST SWAP2 SWAP1 POP SSTORE POP DUP4 DUP2 PUSH0 ADD SWAP1 DUP2 PUSH2 0x2D5 SWAP2 SWAP1 PUSH2 0xE86 JUMP JUMPDEST POP DUP3 DUP2 PUSH1 0x1 ADD PUSH0 PUSH2 0x100 EXP DUP2 SLOAD DUP2 PUSH20 0xFFFFFFFFFFFFFFFFFFFFFFFFFFFFFFFFFFFFFFFF MUL NOT AND SWAP1 DUP4 PUSH20 0xFFFFFFFFFFFFFFFFFFFFFFFFFFFFFFFFFFFFFFFF AND MUL OR SWAP1 SSTORE POP DUP2 DUP2 PUSH1 0x2 ADD DUP2 SWAP1 SSTORE POP PUSH0 DUP2 PUSH1 0x3 ADD PUSH0 PUSH2 0x100 EXP DUP2 SLOAD DUP2 PUSH1 0xFF MUL NOT AND SWAP1 DUP4 ISZERO ISZERO MUL OR SWAP1 SSTORE POP POP POP POP POP JUMP JUMPDEST PUSH1 0x2 SLOAD DUP2 JUMP JUMPDEST PUSH0 PUSH1 0x20 MSTORE DUP1 PUSH0 MSTORE PUSH1 0x40 PUSH0 KECCAK256 PUSH0 SWAP2 POP SWAP1 POP SLOAD DUP2 JUMP JUMPDEST PUSH1 0x6 SLOAD DUP2 JUMP JUMPDEST PUSH1 0x1 PUSH0 SWAP1 SLOAD SWAP1 PUSH2 0x100 EXP SWAP1 DIV PUSH20 0xFFFFFFFFFFFFFFFFFFFFFFFFFFFFFFFFFFFFFFFF AND DUP2 JUMP JUMPDEST PUSH1 0x2 SLOAD TIMESTAMP GT DUP1 ISZERO PUSH2 0x39B JUMPI POP PUSH1 0x3 SLOAD PUSH1 0x4 SLOAD LT JUMPDEST PUSH2 0x3DA JUMPI PUSH1 0x40 MLOAD PUSH32 0x8C379A000000000000000000000000000000000000000000000000000000000 DUP2 MSTORE PUSH1 0x4 ADD PUSH2 0x3D1 SWAP1 PUSH2 0xFC5 JUMP JUMPDEST PUSH1 0x40 MLOAD DUP1 SWAP2 SUB SWAP1 REVERT JUMPDEST PUSH0 DUP1 PUSH0 CALLER PUSH20 0xFFFFFFFFFFFFFFFFFFFFFFFFFFFFFFFFFFFFFFFF AND PUSH20 0xFFFFFFFFFFFFFFFFFFFFFFFFFFFFFFFFFFFFFFFF AND DUP2 MSTORE PUSH1 0x20 ADD SWAP1 DUP2 MSTORE PUSH1 0x20 ADD PUSH0 KECCAK256 SLOAD SWAP1 POP PUSH0 DUP2 GT PUSH2 0x45C JUMPI PUSH1 0x40 MLOAD PUSH32 0x8C379A000000000000000000000000000000000000000000000000000000000 DUP2 MSTORE PUSH1 0x4 ADD PUSH2 0x453 SWAP1 PUSH2 0x102D JUMP JUMPDEST PUSH1 0x40 MLOAD DUP1 SWAP2 SUB SWAP1 REVERT JUMPDEST PUSH0 DUP1 PUSH0 CALLER PUSH20 0xFFFFFFFFFFFFFFFFFFFFFFFFFFFFFFFFFFFFFFFF AND PUSH20 0xFFFFFFFFFFFFFFFFFFFFFFFFFFFFFFFFFFFFFFFF AND DUP2 MSTORE PUSH1 0x20 ADD SWAP1 DUP2 MSTORE PUSH1 0x20 ADD PUSH0 KECCAK256 DUP2 SWAP1 SSTORE POP POP JUMP JUMPDEST PUSH1 0x5 PUSH1 0x20 MSTORE DUP1 PUSH0 MSTORE PUSH1 0x40 PUSH0 KECCAK256 PUSH0 SWAP2 POP SWAP1 POP DUP1 PUSH0 ADD DUP1 SLOAD PUSH2 0x4BF SWAP1 PUSH2 0xCB9 JUMP JUMPDEST DUP1 PUSH1 0x1F ADD PUSH1 0x20 DUP1 SWAP2 DIV MUL PUSH1 0x20 ADD PUSH1 0x40 MLOAD SWAP1 DUP2 ADD PUSH1 0x40 MSTORE DUP1 SWAP3 SWAP2 SWAP1 DUP2 DUP2 MSTORE PUSH1 0x20 ADD DUP3 DUP1 SLOAD PUSH2 0x4EB SWAP1 PUSH2 0xCB9 JUMP JUMPDEST DUP1 ISZERO PUSH2 0x536 JUMPI DUP1 PUSH1 0x1F LT PUSH2 0x50D JUMPI PUSH2 0x100 DUP1 DUP4 SLOAD DIV MUL DUP4 MSTORE SWAP2 PUSH1 0x20 ADD SWAP2 PUSH2 0x536 JUMP JUMPDEST DUP3 ADD SWAP2 SWAP1 PUSH0 MSTORE PUSH1 0x20 PUSH0 KECCAK256 SWAP1 JUMPDEST DUP2 SLOAD DUP2 MSTORE SWAP1 PUSH1 0x1 ADD SWAP1 PUSH1 0x20 ADD DUP1 DUP4 GT PUSH2 0x519 JUMPI DUP3 SWAP1 SUB PUSH1 0x1F AND DUP3 ADD SWAP2 JUMPDEST POP POP POP POP POP SWAP1 DUP1 PUSH1 0x1 ADD PUSH0 SWAP1 SLOAD SWAP1 PUSH2 0x100 EXP SWAP1 DIV PUSH20 0xFFFFFFFFFFFFFFFFFFFFFFFFFFFFFFFFFFFFFFFF AND SWAP1 DUP1 PUSH1 0x2 ADD SLOAD SWAP1 DUP1 PUSH1 0x3 ADD PUSH0 SWAP1 SLOAD SWAP1 PUSH2 0x100 EXP SWAP1 DIV PUSH1 0xFF AND SWAP1 POP DUP5 JUMP JUMPDEST PUSH1 0x4 SLOAD DUP2 JUMP JUMPDEST PUSH1 0x2 SLOAD TIMESTAMP LT PUSH2 0x5C7 JUMPI PUSH1 0x40 MLOAD PUSH32 0x8C379A000000000000000000000000000000000000000000000000000000000 DUP2 MSTORE PUSH1 0x4 ADD PUSH2 0x5BE SWAP1 PUSH2 0x1095 JUMP JUMPDEST PUSH1 0x40 MLOAD DUP1 SWAP2 SUB SWAP1 REVERT JUMPDEST CALLVALUE PUSH0 DUP1 CALLER PUSH20 0xFFFFFFFFFFFFFFFFFFFFFFFFFFFFFFFFFFFFFFFF AND PUSH20 0xFFFFFFFFFFFFFFFFFFFFFFFFFFFFFFFFFFFFFFFF AND DUP2 MSTORE PUSH1 0x20 ADD SWAP1 DUP2 MSTORE PUSH1 0x20 ADD PUSH0 KECCAK256 PUSH0 DUP3 DUP3 SLOAD PUSH2 0x612 SWAP2 SWAP1 PUSH2 0x10B3 JUMP JUMPDEST SWAP3 POP POP DUP2 SWAP1 SSTORE POP CALLVALUE PUSH1 0x4 PUSH0 DUP3 DUP3 SLOAD PUSH2 0x62A SWAP2 SWAP1 PUSH2 0x10B3 JUMP JUMPDEST SWAP3 POP POP DUP2 SWAP1 SSTORE POP JUMP JUMPDEST PUSH1 0x3 SLOAD DUP2 JUMP JUMPDEST PUSH1 0x1 PUSH0 SWAP1 SLOAD SWAP1 PUSH2 0x100 EXP SWAP1 DIV PUSH20 0xFFFFFFFFFFFFFFFFFFFFFFFFFFFFFFFFFFFFFFFF AND PUSH20 0xFFFFFFFFFFFFFFFFFFFFFFFFFFFFFFFFFFFFFFFF AND CALLER PUSH20 0xFFFFFFFFFFFFFFFFFFFFFFFFFFFFFFFFFFFFFFFF AND EQ PUSH2 0x6C8 JUMPI PUSH1 0x40 MLOAD PUSH32 0x8C379A000000000000000000000000000000000000000000000000000000000 DUP2 MSTORE PUSH1 0x4 ADD PUSH2 0x6BF SWAP1 PUSH2 0x1156 JUMP JUMPDEST PUSH1 0x40 MLOAD DUP1 SWAP2 SUB SWAP1 REVERT JUMPDEST PUSH1 0x3 SLOAD PUSH1 0x4 SLOAD LT ISZERO PUSH2 0x70F JUMPI PUSH1 0x40 MLOAD PUSH32 0x8C379A000000000000000000000000000000000000000000000000000000000 DUP2 MSTORE PUSH1 0x4 ADD PUSH2 0x706 SWAP1 PUSH2 0x11BE JUMP JUMPDEST PUSH1 0x40 MLOAD DUP1 SWAP2 SUB SWAP1 REVERT JUMPDEST PUSH0 PUSH1 0x5 PUSH0 DUP4 DUP2 MSTORE PUSH1 0x20 ADD SWAP1 DUP2 MSTORE PUSH1 0x20 ADD PUSH0 KECCAK256 SWAP1 POP PUSH0 ISZERO ISZERO DUP2 PUSH1 0x3 ADD PUSH0 SWAP1 SLOAD SWAP1 PUSH2 0x100 EXP SWAP1 DIV PUSH1 0xFF AND ISZERO ISZERO EQ PUSH2 0x779 JUMPI PUSH1 0x40 MLOAD PUSH32 0x8C379A000000000000000000000000000000000000000000000000000000000 DUP2 MSTORE PUSH1 0x4 ADD PUSH2 0x770 SWAP1 PUSH2 0x1226 JUMP JUMPDEST PUSH1 0x40 MLOAD DUP1 SWAP2 SUB SWAP1 REVERT JUMPDEST DUP1 PUSH1 0x1 ADD PUSH0 SWAP1 SLOAD SWAP1 PUSH2 0x100 EXP SWAP1 DIV PUSH20 0xFFFFFFFFFFFFFFFFFFFFFFFFFFFFFFFFFFFFFFFF AND PUSH20 0xFFFFFFFFFFFFFFFFFFFFFFFFFFFFFFFFFFFFFFFF AND PUSH2 0x8FC DUP3 PUSH1 0x2 ADD SLOAD SWAP1 DUP2 ISZERO MUL SWAP1 PUSH1 0x40 MLOAD PUSH0 PUSH1 0x40 MLOAD DUP1 DUP4 SUB DUP2 DUP6 DUP9 DUP9 CALL SWAP4 POP POP POP POP ISZERO DUP1 ISZERO PUSH2 0x7E3 JUMPI RETURNDATASIZE PUSH0 DUP1 RETURNDATACOPY RETURNDATASIZE PUSH0 REVERT JUMPDEST POP PUSH1 0x1 DUP2 PUSH1 0x3 ADD PUSH0 PUSH2 0x100 EXP DUP2 SLOAD DUP2 PUSH1 0xFF MUL NOT AND SWAP1 DUP4 ISZERO ISZERO MUL OR SWAP1 SSTORE POP POP POP JUMP JUMPDEST PUSH0 DUP2 SWAP1 POP SWAP2 SWAP1 POP JUMP JUMPDEST PUSH2 0x816 DUP2 PUSH2 0x804 JUMP JUMPDEST DUP3 MSTORE POP POP JUMP JUMPDEST PUSH0 PUSH1 0x20 DUP3 ADD SWAP1 POP PUSH2 0x82F PUSH0 DUP4 ADD DUP5 PUSH2 0x80D JUMP JUMPDEST SWAP3 SWAP2 POP POP JUMP JUMPDEST PUSH0 PUSH1 0x40 MLOAD SWAP1 POP SWAP1 JUMP JUMPDEST PUSH0 DUP1 REVERT JUMPDEST PUSH0 DUP1 REVERT JUMPDEST PUSH0 DUP1 REVERT JUMPDEST PUSH0 DUP1 REVERT JUMPDEST PUSH0 PUSH1 0x1F NOT PUSH1 0x1F DUP4 ADD AND SWAP1 POP SWAP2 SWAP1 POP JUMP JUMPDEST PUSH32 0x4E487B7100000000000000000000000000000000000000000000000000000000 PUSH0 MSTORE PUSH1 0x41 PUSH1 0x4 MSTORE PUSH1 0x24 PUSH0 REVERT JUMPDEST PUSH2 0x894 DUP3 PUSH2 0x84E JUMP JUMPDEST DUP2 ADD DUP2 DUP2 LT PUSH8 0xFFFFFFFFFFFFFFFF DUP3 GT OR ISZERO PUSH2 0x8B3 JUMPI PUSH2 0x8B2 PUSH2 0x85E JUMP JUMPDEST JUMPDEST DUP1 PUSH1 0x40 MSTORE POP POP POP JUMP JUMPDEST PUSH0 PUSH2 0x8C5 PUSH2 0x835 JUMP JUMPDEST SWAP1 POP PUSH2 0x8D1 DUP3 DUP3 PUSH2 0x88B JUMP JUMPDEST SWAP2 SWAP1 POP JUMP JUMPDEST PUSH0 PUSH8 0xFFFFFFFFFFFFFFFF DUP3 GT ISZERO PUSH2 0x8F0 JUMPI PUSH2 0x8EF PUSH2 0x85E JUMP JUMPDEST JUMPDEST PUSH2 0x8F9 DUP3 PUSH2 0x84E JUMP JUMPDEST SWAP1 POP PUSH1 0x20 DUP2 ADD SWAP1 POP SWAP2 SWAP1 POP JUMP JUMPDEST DUP3 DUP2 DUP4 CALLDATACOPY PUSH0 DUP4 DUP4 ADD MSTORE POP POP POP JUMP JUMPDEST PUSH0 PUSH2 0x926 PUSH2 0x921 DUP5 PUSH2 0x8D6 JUMP JUMPDEST PUSH2 0x8BC JUMP JUMPDEST SWAP1 POP DUP3 DUP2 MSTORE PUSH1 0x20 DUP2 ADD DUP5 DUP5 DUP5 ADD GT ISZERO PUSH2 0x942 JUMPI PUSH2 0x941 PUSH2 0x84A JUMP JUMPDEST JUMPDEST PUSH2 0x94D DUP5 DUP3 DUP6 PUSH2 0x906 JUMP JUMPDEST POP SWAP4 SWAP3 POP POP POP JUMP JUMPDEST PUSH0 DUP3 PUSH1 0x1F DUP4 ADD SLT PUSH2 0x969 JUMPI PUSH2 0x968 PUSH2 0x846 JUMP JUMPDEST JUMPDEST DUP2 CALLDATALOAD PUSH2 0x979 DUP5 DUP3 PUSH1 0x20 DUP7 ADD PUSH2 0x914 JUMP JUMPDEST SWAP2 POP POP SWAP3 SWAP2 POP POP JUMP JUMPDEST PUSH0 PUSH20 0xFFFFFFFFFFFFFFFFFFFFFFFFFFFFFFFFFFFFFFFF DUP3 AND SWAP1 POP SWAP2 SWAP1 POP JUMP JUMPDEST PUSH0 PUSH2 0x9AB DUP3 PUSH2 0x982 JUMP JUMPDEST SWAP1 POP SWAP2 SWAP1 POP JUMP JUMPDEST PUSH2 0x9BB DUP2 PUSH2 0x9A1 JUMP JUMPDEST DUP2 EQ PUSH2 0x9C5 JUMPI PUSH0 DUP1 REVERT JUMPDEST POP JUMP JUMPDEST PUSH0 DUP2 CALLDATALOAD SWAP1 POP PUSH2 0x9D6 DUP2 PUSH2 0x9B2 JUMP JUMPDEST SWAP3 SWAP2 POP POP JUMP JUMPDEST PUSH2 0x9E5 DUP2 PUSH2 0x804 JUMP JUMPDEST DUP2 EQ PUSH2 0x9EF JUMPI PUSH0 DUP1 REVERT JUMPDEST POP JUMP JUMPDEST PUSH0 DUP2 CALLDATALOAD SWAP1 POP PUSH2 0xA00 DUP2 PUSH2 0x9DC JUMP JUMPDEST SWAP3 SWAP2 POP POP JUMP JUMPDEST PUSH0 DUP1 PUSH0 PUSH1 0x60 DUP5 DUP7 SUB SLT ISZERO PUSH2 0xA1D JUMPI PUSH2 0xA1C PUSH2 0x83E JUMP JUMPDEST JUMPDEST PUSH0 DUP5 ADD CALLDATALOAD PUSH8 0xFFFFFFFFFFFFFFFF DUP2 GT ISZERO PUSH2 0xA3A JUMPI PUSH2 0xA39 PUSH2 0x842 JUMP JUMPDEST JUMPDEST PUSH2 0xA46 DUP7 DUP3 DUP8 ADD PUSH2 0x955 JUMP JUMPDEST SWAP4 POP POP PUSH1 0x20 PUSH2 0xA57 DUP7 DUP3 DUP8 ADD PUSH2 0x9C8 JUMP JUMPDEST SWAP3 POP POP PUSH1 0x40 PUSH2 0xA68 DUP7 DUP3 DUP8 ADD PUSH2 0x9F2 JUMP JUMPDEST SWAP2 POP POP SWAP3 POP SWAP3 POP SWAP3 JUMP JUMPDEST PUSH0 PUSH2 0xA7C DUP3 PUSH2 0x982 JUMP JUMPDEST SWAP1 POP SWAP2 SWAP1 POP JUMP JUMPDEST PUSH2 0xA8C DUP2 PUSH2 0xA72 JUMP JUMPDEST DUP2 EQ PUSH2 0xA96 JUMPI PUSH0 DUP1 REVERT JUMPDEST POP JUMP JUMPDEST PUSH0 DUP2 CALLDATALOAD SWAP1 POP PUSH2 0xAA7 DUP2 PUSH2 0xA83 JUMP JUMPDEST SWAP3 SWAP2 POP POP JUMP JUMPDEST PUSH0 PUSH1 0x20 DUP3 DUP5 SUB SLT ISZERO PUSH2 0xAC2 JUMPI PUSH2 0xAC1 PUSH2 0x83E JUMP JUMPDEST JUMPDEST PUSH0 PUSH2 0xACF DUP5 DUP3 DUP6 ADD PUSH2 0xA99 JUMP JUMPDEST SWAP2 POP POP SWAP3 SWAP2 POP POP JUMP JUMPDEST PUSH2 0xAE1 DUP2 PUSH2 0xA72 JUMP JUMPDEST DUP3 MSTORE POP POP JUMP JUMPDEST PUSH0 PUSH1 0x20 DUP3 ADD SWAP1 POP PUSH2 0xAFA PUSH0 DUP4 ADD DUP5 PUSH2 0xAD8 JUMP JUMPDEST SWAP3 SWAP2 POP POP JUMP JUMPDEST PUSH0 PUSH1 0x20 DUP3 DUP5 SUB SLT ISZERO PUSH2 0xB15 JUMPI PUSH2 0xB14 PUSH2 0x83E JUMP JUMPDEST JUMPDEST PUSH0 PUSH2 0xB22 DUP5 DUP3 DUP6 ADD PUSH2 0x9F2 JUMP JUMPDEST SWAP2 POP POP SWAP3 SWAP2 POP POP JUMP JUMPDEST PUSH0 DUP2 MLOAD SWAP1 POP SWAP2 SWAP1 POP JUMP JUMPDEST PUSH0 DUP3 DUP3 MSTORE PUSH1 0x20 DUP3 ADD SWAP1 POP SWAP3 SWAP2 POP POP JUMP JUMPDEST PUSH0 JUMPDEST DUP4 DUP2 LT ISZERO PUSH2 0xB62 JUMPI DUP1 DUP3 ADD MLOAD DUP2 DUP5 ADD MSTORE PUSH1 0x20 DUP2 ADD SWAP1 POP PUSH2 0xB47 JUMP JUMPDEST PUSH0 DUP5 DUP5 ADD MSTORE POP POP POP POP JUMP JUMPDEST PUSH0 PUSH2 0xB77 DUP3 PUSH2 0xB2B JUMP JUMPDEST PUSH2 0xB81 DUP2 DUP6 PUSH2 0xB35 JUMP JUMPDEST SWAP4 POP PUSH2 0xB91 DUP2 DUP6 PUSH1 0x20 DUP7 ADD PUSH2 0xB45 JUMP JUMPDEST PUSH2 0xB9A DUP2 PUSH2 0x84E JUMP JUMPDEST DUP5 ADD SWAP2 POP POP SWAP3 SWAP2 POP POP JUMP JUMPDEST PUSH2 0xBAE DUP2 PUSH2 0x9A1 JUMP JUMPDEST DUP3 MSTORE POP POP JUMP JUMPDEST PUSH0 DUP2 ISZERO ISZERO SWAP1 POP SWAP2 SWAP1 POP JUMP JUMPDEST PUSH2 0xBC8 DUP2 PUSH2 0xBB4 JUMP JUMPDEST DUP3 MSTORE POP POP JUMP JUMPDEST PUSH0 PUSH1 0x80 DUP3 ADD SWAP1 POP DUP2 DUP2 SUB PUSH0 DUP4 ADD MSTORE PUSH2 0xBE6 DUP2 DUP8 PUSH2 0xB6D JUMP JUMPDEST SWAP1 POP PUSH2 0xBF5 PUSH1 0x20 DUP4 ADD DUP7 PUSH2 0xBA5 JUMP JUMPDEST PUSH2 0xC02 PUSH1 0x40 DUP4 ADD DUP6 PUSH2 0x80D JUMP JUMPDEST PUSH2 0xC0F PUSH1 0x60 DUP4 ADD DUP5 PUSH2 0xBBF JUMP JUMPDEST SWAP6 SWAP5 POP POP POP POP POP JUMP JUMPDEST PUSH32 0x4E487B7100000000000000000000000000000000000000000000000000000000 PUSH0 MSTORE PUSH1 0x11 PUSH1 0x4 MSTORE PUSH1 0x24 PUSH0 REVERT JUMPDEST PUSH0 PUSH2 0xC4F DUP3 PUSH2 0x804 JUMP JUMPDEST SWAP2 POP PUSH32 0xFFFFFFFFFFFFFFFFFFFFFFFFFFFFFFFFFFFFFFFFFFFFFFFFFFFFFFFFFFFFFFFF DUP3 SUB PUSH2 0xC81 JUMPI PUSH2 0xC80 PUSH2 0xC18 JUMP JUMPDEST JUMPDEST PUSH1 0x1 DUP3 ADD SWAP1 POP SWAP2 SWAP1 POP JUMP JUMPDEST PUSH32 0x4E487B7100000000000000000000000000000000000000000000000000000000 PUSH0 MSTORE PUSH1 0x22 PUSH1 0x4 MSTORE PUSH1 0x24 PUSH0 REVERT JUMPDEST PUSH0 PUSH1 0x2 DUP3 DIV SWAP1 POP PUSH1 0x1 DUP3 AND DUP1 PUSH2 0xCD0 JUMPI PUSH1 0x7F DUP3 AND SWAP2 POP JUMPDEST PUSH1 0x20 DUP3 LT DUP2 SUB PUSH2 0xCE3 JUMPI PUSH2 0xCE2 PUSH2 0xC8C JUMP JUMPDEST JUMPDEST POP SWAP2 SWAP1 POP JUMP JUMPDEST PUSH0 DUP2 SWAP1 POP DUP2 PUSH0 MSTORE PUSH1 0x20 PUSH0 KECCAK256 SWAP1 POP SWAP2 SWAP1 POP JUMP JUMPDEST PUSH0 PUSH1 0x20 PUSH1 0x1F DUP4 ADD DIV SWAP1 POP SWAP2 SWAP1 POP JUMP JUMPDEST PUSH0 DUP3 DUP3 SHL SWAP1 POP SWAP3 SWAP2 POP POP JUMP JUMPDEST PUSH0 PUSH1 0x8 DUP4 MUL PUSH2 0xD45 PUSH32 0xFFFFFFFFFFFFFFFFFFFFFFFFFFFFFFFFFFFFFFFFFFFFFFFFFFFFFFFFFFFFFFFF DUP3 PUSH2 0xD0A JUMP JUMPDEST PUSH2 0xD4F DUP7 DUP4 PUSH2 0xD0A JUMP JUMPDEST SWAP6 POP DUP1 NOT DUP5 AND SWAP4 POP DUP1 DUP7 AND DUP5 OR SWAP3 POP POP POP SWAP4 SWAP3 POP POP POP JUMP JUMPDEST PUSH0 DUP2 SWAP1 POP SWAP2 SWAP1 POP JUMP JUMPDEST PUSH0 PUSH2 0xD8A PUSH2 0xD85 PUSH2 0xD80 DUP5 PUSH2 0x804 JUMP JUMPDEST PUSH2 0xD67 JUMP JUMPDEST PUSH2 0x804 JUMP JUMPDEST SWAP1 POP SWAP2 SWAP1 POP JUMP JUMPDEST PUSH0 DUP2 SWAP1 POP SWAP2 SWAP1 POP JUMP JUMPDEST PUSH2 0xDA3 DUP4 PUSH2 0xD70 JUMP JUMPDEST PUSH2 0xDB7 PUSH2 0xDAF DUP3 PUSH2 0xD91 JUMP JUMPDEST DUP5 DUP5 SLOAD PUSH2 0xD16 JUMP JUMPDEST DUP3 SSTORE POP POP POP POP JUMP JUMPDEST PUSH0 SWAP1 JUMP JUMPDEST PUSH2 0xDCB PUSH2 0xDBF JUMP JUMPDEST PUSH2 0xDD6 DUP2 DUP5 DUP5 PUSH2 0xD9A JUMP JUMPDEST POP POP POP JUMP JUMPDEST JUMPDEST DUP2 DUP2 LT ISZERO PUSH2 0xDF9 JUMPI PUSH2 0xDEE PUSH0 DUP3 PUSH2 0xDC3 JUMP JUMPDEST PUSH1 0x1 DUP2 ADD SWAP1 POP PUSH2 0xDDC JUMP JUMPDEST POP POP JUMP JUMPDEST PUSH1 0x1F DUP3 GT ISZERO PUSH2 0xE3E JUMPI PUSH2 0xE0F DUP2 PUSH2 0xCE9 JUMP JUMPDEST PUSH2 0xE18 DUP5 PUSH2 0xCFB JUMP JUMPDEST DUP2 ADD PUSH1 0x20 DUP6 LT ISZERO PUSH2 0xE27 JUMPI DUP2 SWAP1 POP JUMPDEST PUSH2 0xE3B PUSH2 0xE33 DUP6 PUSH2 0xCFB JUMP JUMPDEST DUP4 ADD DUP3 PUSH2 0xDDB JUMP JUMPDEST POP POP JUMPDEST POP POP POP JUMP JUMPDEST PUSH0 DUP3 DUP3 SHR SWAP1 POP SWAP3 SWAP2 POP POP JUMP JUMPDEST PUSH0 PUSH2 0xE5E PUSH0 NOT DUP5 PUSH1 0x8 MUL PUSH2 0xE43 JUMP JUMPDEST NOT DUP1 DUP4 AND SWAP2 POP POP SWAP3 SWAP2 POP POP JUMP JUMPDEST PUSH0 PUSH2 0xE76 DUP4 DUP4 PUSH2 0xE4F JUMP JUMPDEST SWAP2 POP DUP3 PUSH1 0x2 MUL DUP3 OR SWAP1 POP SWAP3 SWAP2 POP POP JUMP JUMPDEST PUSH2 0xE8F DUP3 PUSH2 0xB2B JUMP JUMPDEST PUSH8 0xFFFFFFFFFFFFFFFF DUP2 GT ISZERO PUSH2 0xEA8 JUMPI PUSH2 0xEA7 PUSH2 0x85E JUMP JUMPDEST JUMPDEST PUSH2 0xEB2 DUP3 SLOAD PUSH2 0xCB9 JUMP JUMPDEST PUSH2 0xEBD DUP3 DUP3 DUP6 PUSH2 0xDFD JUMP JUMPDEST PUSH0 PUSH1 0x20 SWAP1 POP PUSH1 0x1F DUP4 GT PUSH1 0x1 DUP2 EQ PUSH2 0xEEE JUMPI PUSH0 DUP5 ISZERO PUSH2 0xEDC JUMPI DUP3 DUP8 ADD MLOAD SWAP1 POP JUMPDEST PUSH2 0xEE6 DUP6 DUP3 PUSH2 0xE6B JUMP JUMPDEST DUP7 SSTORE POP PUSH2 0xF4D JUMP JUMPDEST PUSH1 0x1F NOT DUP5 AND PUSH2 0xEFC DUP7 PUSH2 0xCE9 JUMP JUMPDEST PUSH0 JUMPDEST DUP3 DUP2 LT ISZERO PUSH2 0xF23 JUMPI DUP5 DUP10 ADD MLOAD DUP3 SSTORE PUSH1 0x1 DUP3 ADD SWAP2 POP PUSH1 0x20 DUP6 ADD SWAP5 POP PUSH1 0x20 DUP2 ADD SWAP1 POP PUSH2 0xEFE JUMP JUMPDEST DUP7 DUP4 LT ISZERO PUSH2 0xF40 JUMPI DUP5 DUP10 ADD MLOAD PUSH2 0xF3C PUSH1 0x1F DUP10 AND DUP3 PUSH2 0xE4F JUMP JUMPDEST DUP4 SSTORE POP JUMPDEST PUSH1 0x1 PUSH1 0x2 DUP9 MUL ADD DUP9 SSTORE POP POP POP JUMPDEST POP POP POP POP POP POP JUMP JUMPDEST PUSH32 0x4E6F2073652063756D706C696F20656C206F626A657469766F2C207465207265 PUSH0 DUP3 ADD MSTORE PUSH32 0x67726573616D6F7320656C2064696E65726F0000000000000000000000000000 PUSH1 0x20 DUP3 ADD MSTORE POP JUMP JUMPDEST PUSH0 PUSH2 0xFAF PUSH1 0x32 DUP4 PUSH2 0xB35 JUMP JUMPDEST SWAP2 POP PUSH2 0xFBA DUP3 PUSH2 0xF55 JUMP JUMPDEST PUSH1 0x40 DUP3 ADD SWAP1 POP SWAP2 SWAP1 POP JUMP JUMPDEST PUSH0 PUSH1 0x20 DUP3 ADD SWAP1 POP DUP2 DUP2 SUB PUSH0 DUP4 ADD MSTORE PUSH2 0xFDC DUP2 PUSH2 0xFA3 JUMP JUMPDEST SWAP1 POP SWAP2 SWAP1 POP JUMP JUMPDEST PUSH32 0x4E6F20707573697374652070617261206C612076616361000000000000000000 PUSH0 DUP3 ADD MSTORE POP JUMP JUMPDEST PUSH0 PUSH2 0x1017 PUSH1 0x17 DUP4 PUSH2 0xB35 JUMP JUMPDEST SWAP2 POP PUSH2 0x1022 DUP3 PUSH2 0xFE3 JUMP JUMPDEST PUSH1 0x20 DUP3 ADD SWAP1 POP SWAP2 SWAP1 POP JUMP JUMPDEST PUSH0 PUSH1 0x20 DUP3 ADD SWAP1 POP DUP2 DUP2 SUB PUSH0 DUP4 ADD MSTORE PUSH2 0x1044 DUP2 PUSH2 0x100B JUMP JUMPDEST SWAP1 POP SWAP2 SWAP1 POP JUMP JUMPDEST PUSH32 0x5465726D696E6F20656C20646561646C696E6500000000000000000000000000 PUSH0 DUP3 ADD MSTORE POP JUMP JUMPDEST PUSH0 PUSH2 0x107F PUSH1 0x13 DUP4 PUSH2 0xB35 JUMP JUMPDEST SWAP2 POP PUSH2 0x108A DUP3 PUSH2 0x104B JUMP JUMPDEST PUSH1 0x20 DUP3 ADD SWAP1 POP SWAP2 SWAP1 POP JUMP JUMPDEST PUSH0 PUSH1 0x20 DUP3 ADD SWAP1 POP DUP2 DUP2 SUB PUSH0 DUP4 ADD MSTORE PUSH2 0x10AC DUP2 PUSH2 0x1073 JUMP JUMPDEST SWAP1 POP SWAP2 SWAP1 POP JUMP JUMPDEST PUSH0 PUSH2 0x10BD DUP3 PUSH2 0x804 JUMP JUMPDEST SWAP2 POP PUSH2 0x10C8 DUP4 PUSH2 0x804 JUMP JUMPDEST SWAP3 POP DUP3 DUP3 ADD SWAP1 POP DUP1 DUP3 GT ISZERO PUSH2 0x10E0 JUMPI PUSH2 0x10DF PUSH2 0xC18 JUMP JUMPDEST JUMPDEST SWAP3 SWAP2 POP POP JUMP JUMPDEST PUSH32 0x536F6C6F20656C2061646D696E6973747261646F722064656C20636F6E747261 PUSH0 DUP3 ADD MSTORE PUSH32 0x746F207075656465207265746F726172206C6F7320666F6E646F730000000000 PUSH1 0x20 DUP3 ADD MSTORE POP JUMP JUMPDEST PUSH0 PUSH2 0x1140 PUSH1 0x3B DUP4 PUSH2 0xB35 JUMP JUMPDEST SWAP2 POP PUSH2 0x114B DUP3 PUSH2 0x10E6 JUMP JUMPDEST PUSH1 0x40 DUP3 ADD SWAP1 POP SWAP2 SWAP1 POP JUMP JUMPDEST PUSH0 PUSH1 0x20 DUP3 ADD SWAP1 POP DUP2 DUP2 SUB PUSH0 DUP4 ADD MSTORE PUSH2 0x116D DUP2 PUSH2 0x1134 JUMP JUMPDEST SWAP1 POP SWAP2 SWAP1 POP JUMP JUMPDEST PUSH32 0x4E6F2073652063756D706C696F206C61206D6574610000000000000000000000 PUSH0 DUP3 ADD MSTORE POP JUMP JUMPDEST PUSH0 PUSH2 0x11A8 PUSH1 0x15 DUP4 PUSH2 0xB35 JUMP JUMPDEST SWAP2 POP PUSH2 0x11B3 DUP3 PUSH2 0x1174 JUMP JUMPDEST PUSH1 0x20 DUP3 ADD SWAP1 POP SWAP2 SWAP1 POP JUMP JUMPDEST PUSH0 PUSH1 0x20 DUP3 ADD SWAP1 POP DUP2 DUP2 SUB PUSH0 DUP4 ADD MSTORE PUSH2 0x11D5 DUP2 PUSH2 0x119C JUMP JUMPDEST SWAP1 POP SWAP2 SWAP1 POP JUMP JUMPDEST PUSH32 0x45737461207065746963696F6E206E6F2066756520636F6D706C657461646100 PUSH0 DUP3 ADD MSTORE POP JUMP JUMPDEST PUSH0 PUSH2 0x1210 PUSH1 0x1F DUP4 PUSH2 0xB35 JUMP JUMPDEST SWAP2 POP PUSH2 0x121B DUP3 PUSH2 0x11DC JUMP JUMPDEST PUSH1 0x20 DUP3 ADD SWAP1 POP SWAP2 SWAP1 POP JUMP JUMPDEST PUSH0 PUSH1 0x20 DUP3 ADD SWAP1 POP DUP2 DUP2 SUB PUSH0 DUP4 ADD MSTORE PUSH2 0x123D DUP2 PUSH2 0x1204 JUMP JUMPDEST SWAP1 POP SWAP2 SWAP1 POP JUMP INVALID LOG2 PUSH5 0x6970667358 0x22 SLT KECCAK256 SELFBALANCE ORIGIN JUMP 0xB9 CODECOPY 0xCD POP TSTORE EQ 0xF SLOAD DUP8 NUMBER DUP3 OR 0x4C PUSH8 0x43FB92C29B459421 0xE0 LOG1 0xAF XOR PUSH2 0x3E17 PUSH5 0x736F6C6343 STOP ADDMOD XOR STOP CALLER "
				},
				"gasEstimates": {
					"creation": {
						"codeDepositCost": "946000",
						"executionCost": "infinite",
						"totalCost": "infinite"
					},
					"external": {
						"createRequest(string,address,uint256)": "infinite",
						"deadline()": "2470",
						"fundContributors(address)": "2868",
						"getBalance()": "335",
						"makePayament(uint256)": "infinite",
						"manager()": "2619",
						"numRequets()": "2514",
						"reaisedAmount()": "2469",
						"refund()": "13817",
						"requests(uint256)": "infinite",
						"sendFunds()": "infinite",
						"targetAmount()": "2513"
					}
				},
				"methodIdentifiers": {
					"createRequest(string,address,uint256)": "1b16bb5c",
					"deadline()": "29dcb0cf",
					"fundContributors(address)": "4034a539",
					"getBalance()": "12065fe0",
					"makePayament(uint256)": "c1597b33",
					"manager()": "481c6a75",
					"numRequets()": "41a67b6f",
					"reaisedAmount()": "87a316dc",
					"refund()": "590e1ae3",
					"requests(uint256)": "81d12c58",
					"sendFunds()": "8d68cf59",
					"targetAmount()": "953b8fb8"
				}
			},
			"storageLayout": {
				"storage": [
					{
						"astId": 5,
						"contract": "crowdfunding.sol:crowdFunding",
						"label": "fundContributors",
						"offset": 0,
						"slot": "0",
						"type": "t_mapping(t_address,t_uint256)"
					},
					{
						"astId": 7,
						"contract": "crowdfunding.sol:crowdFunding",
						"label": "manager",
						"offset": 0,
						"slot": "1",
						"type": "t_address"
					},
					{
						"astId": 9,
						"contract": "crowdfunding.sol:crowdFunding",
						"label": "deadline",
						"offset": 0,
						"slot": "2",
						"type": "t_uint256"
					},
					{
						"astId": 11,
						"contract": "crowdfunding.sol:crowdFunding",
						"label": "targetAmount",
						"offset": 0,
						"slot": "3",
						"type": "t_uint256"
					},
					{
						"astId": 13,
						"contract": "crowdfunding.sol:crowdFunding",
						"label": "reaisedAmount",
						"offset": 0,
						"slot": "4",
						"type": "t_uint256"
					},
					{
						"astId": 27,
						"contract": "crowdfunding.sol:crowdFunding",
						"label": "requests",
						"offset": 0,
						"slot": "5",
						"type": "t_mapping(t_uint256,t_struct(Request)22_storage)"
					},
					{
						"astId": 29,
						"contract": "crowdfunding.sol:crowdFunding",
						"label": "numRequets",
						"offset": 0,
						"slot": "6",
						"type": "t_uint256"
					}
				],
				"types": {
					"t_address": {
						"encoding": "inplace",
						"label": "address",
						"numberOfBytes": "20"
					},
					"t_address_payable": {
						"encoding": "inplace",
						"label": "address payable",
						"numberOfBytes": "20"
					},
					"t_bool": {
						"encoding": "inplace",
						"label": "bool",
						"numberOfBytes": "1"
					},
					"t_mapping(t_address,t_uint256)": {
						"encoding": "mapping",
						"key": "t_address",
						"label": "mapping(address => uint256)",
						"numberOfBytes": "32",
						"value": "t_uint256"
					},
					"t_mapping(t_uint256,t_struct(Request)22_storage)": {
						"encoding": "mapping",
						"key": "t_uint256",
						"label": "mapping(uint256 => struct crowdFunding.Request)",
						"numberOfBytes": "32",
						"value": "t_struct(Request)22_storage"
					},
					"t_string_storage": {
						"encoding": "bytes",
						"label": "string",
						"numberOfBytes": "32"
					},
					"t_struct(Request)22_storage": {
						"encoding": "inplace",
						"label": "struct crowdFunding.Request",
						"members": [
							{
								"astId": 15,
								"contract": "crowdfunding.sol:crowdFunding",
								"label": "description",
								"offset": 0,
								"slot": "0",
								"type": "t_string_storage"
							},
							{
								"astId": 17,
								"contract": "crowdfunding.sol:crowdFunding",
								"label": "recipient",
								"offset": 0,
								"slot": "1",
								"type": "t_address_payable"
							},
							{
								"astId": 19,
								"contract": "crowdfunding.sol:crowdFunding",
								"label": "value",
								"offset": 0,
								"slot": "2",
								"type": "t_uint256"
							},
							{
								"astId": 21,
								"contract": "crowdfunding.sol:crowdFunding",
								"label": "completed",
								"offset": 0,
								"slot": "3",
								"type": "t_bool"
							}
						],
						"numberOfBytes": "128"
					},
					"t_uint256": {
						"encoding": "inplace",
						"label": "uint256",
						"numberOfBytes": "32"
					}
				}
			},
			"userdoc": {
				"kind": "user",
				"methods": {},
				"version": 1
			}
		}
	}
}