{
	"crowfounding.sol": {
		"crowdFunding": {
			"abi": [
				{
					"inputs": [
						{
							"internalType": "uint256",
							"name": "_targetAmount",
							"type": "uint256"
						},
						{
							"internalType": "uint256",
							"name": "_deadline",
							"type": "uint256"
						}
					],
					"stateMutability": "nonpayable",
					"type": "constructor"
				},
				{
					"inputs": [
						{
							"internalType": "string",
							"name": "_description",
							"type": "string"
						},
						{
							"internalType": "address payable",
							"name": "_recipient",
							"type": "address"
						},
						{
							"internalType": "uint256",
							"name": "_value",
							"type": "uint256"
						}
					],
					"name": "createRequest",
					"outputs": [],
					"stateMutability": "nonpayable",
					"type": "function"
				},
				{
					"inputs": [],
					"name": "deadline",
					"outputs": [
						{
							"internalType": "uint256",
							"name": "",
							"type": "uint256"
						}
					],
					"stateMutability": "view",
					"type": "function"
				},
				{
					"inputs": [
						{
							"internalType": "address",
							"name": "",
							"type": "address"
						}
					],
					"name": "fundContributors",
					"outputs": [
						{
							"internalType": "uint256",
							"name": "",
							"type": "uint256"
						}
					],
					"stateMutability": "view",
					"type": "function"
				},
				{
					"inputs": [],
					"name": "getBalance",
					"outputs": [
						{
							"internalType": "uint256",
							"name": "",
							"type": "uint256"
						}
					],
					"stateMutability": "view",
					"type": "function"
				},
				{
					"inputs": [
						{
							"internalType": "uint256",
							"name": "_requestNo",
							"type": "uint256"
						}
					],
					"name": "makePayment",
					"outputs": [],
					"stateMutability": "nonpayable",
					"type": "function"
				},
				{
					"inputs": [],
					"name": "manager",
					"outputs": [
						{
							"internalType": "address",
							"name": "",
							"type": "address"
						}
					],
					"stateMutability": "view",
					"type": "function"
				},
				{
					"inputs": [],
					"name": "numRequests",
					"outputs": [
						{
							"internalType": "uint256",
							"name": "",
							"type": "uint256"
						}
					],
					"stateMutability": "view",
					"type": "function"
				},
				{
					"inputs": [],
					"name": "raisedAmount",
					"outputs": [
						{
							"internalType": "uint256",
							"name": "",
							"type": "uint256"
						}
					],
					"stateMutability": "view",
					"type": "function"
				},
				{
					"inputs": [],
					"name": "refund",
					"outputs": [],
					"stateMutability": "nonpayable",
					"type": "function"
				},
				{
					"inputs": [
						{
							"internalType": "uint256",
							"name": "",
							"type": "uint256"
						}
					],
					"name": "requests",
					"outputs": [
						{
							"internalType": "string",
							"name": "description",
							"type": "string"
						},
						{
							"internalType": "address payable",
							"name": "recipient",
							"type": "address"
						},
						{
							"internalType": "uint256",
							"name": "value",
							"type": "uint256"
						},
						{
							"internalType": "bool",
							"name": "completed",
							"type": "bool"
						}
					],
					"stateMutability": "view",
					"type": "function"
				},
				{
					"inputs": [],
					"name": "sendFunds",
					"outputs": [],
					"stateMutability": "payable",
					"type": "function"
				},
				{
					"inputs": [],
					"name": "targetAmount",
					"outputs": [
						{
							"internalType": "uint256",
							"name": "",
							"type": "uint256"
						}
					],
					"stateMutability": "view",
					"type": "function"
				}
			],
			"devdoc": {
				"kind": "dev",
				"methods": {},
				"version": 1
			},
			"evm": {
				"assembly": "    /* \"crowfounding.sol\":58:2305  contract crowdFunding{... */\n  mstore(0x40, 0x80)\n    /* \"crowfounding.sol\":563:728  constructor (uint _targetAmount, uint _deadline) {... */\n  callvalue\n  dup1\n  iszero\n  tag_1\n  jumpi\n  0x00\n  dup1\n  revert\ntag_1:\n  pop\n  mload(0x40)\n  sub(codesize, bytecodeSize)\n  dup1\n  bytecodeSize\n  dup4\n  codecopy\n  dup2\n  dup2\n  add\n  0x40\n  mstore\n  dup2\n  add\n  swap1\n  tag_2\n  swap2\n  swap1\n  tag_3\n  jump\t// in\ntag_2:\n    /* \"crowfounding.sol\":635:648  _targetAmount */\n  dup2\n    /* \"crowfounding.sol\":620:632  targetAmount */\n  0x03\n    /* \"crowfounding.sol\":620:648  targetAmount = _targetAmount */\n  dup2\n  swap1\n  sstore\n  pop\n    /* \"crowfounding.sol\":685:694  _deadline */\n  dup1\n    /* \"crowfounding.sol\":667:682  block.timestamp */\n  timestamp\n    /* \"crowfounding.sol\":667:694  block.timestamp + _deadline */\n  tag_6\n  swap2\n  swap1\n  tag_7\n  jump\t// in\ntag_6:\n    /* \"crowfounding.sol\":656:664  deadline */\n  0x02\n    /* \"crowfounding.sol\":656:694  deadline = block.timestamp + _deadline */\n  dup2\n  swap1\n  sstore\n  pop\n    /* \"crowfounding.sol\":712:722  msg.sender */\n  caller\n    /* \"crowfounding.sol\":702:709  manager */\n  0x01\n  0x00\n    /* \"crowfounding.sol\":702:722  manager = msg.sender */\n  0x0100\n  exp\n  dup2\n  sload\n  dup2\n  0xffffffffffffffffffffffffffffffffffffffff\n  mul\n  not\n  and\n  swap1\n  dup4\n  0xffffffffffffffffffffffffffffffffffffffff\n  and\n  mul\n  or\n  swap1\n  sstore\n  pop\n    /* \"crowfounding.sol\":563:728  constructor (uint _targetAmount, uint _deadline) {... */\n  pop\n  pop\n    /* \"crowfounding.sol\":58:2305  contract crowdFunding{... */\n  jump(tag_8)\n    /* \"#utility.yul\":88:205   */\ntag_10:\n    /* \"#utility.yul\":197:198   */\n  0x00\n    /* \"#utility.yul\":194:195   */\n  dup1\n    /* \"#utility.yul\":187:199   */\n  revert\n    /* \"#utility.yul\":334:411   */\ntag_12:\n    /* \"#utility.yul\":371:378   */\n  0x00\n    /* \"#utility.yul\":400:405   */\n  dup2\n    /* \"#utility.yul\":389:405   */\n  swap1\n  pop\n    /* \"#utility.yul\":334:411   */\n  swap2\n  swap1\n  pop\n  jump\t// out\n    /* \"#utility.yul\":417:539   */\ntag_13:\n    /* \"#utility.yul\":490:514   */\n  tag_22\n    /* \"#utility.yul\":508:513   */\n  dup2\n    /* \"#utility.yul\":490:514   */\n  tag_12\n  jump\t// in\ntag_22:\n    /* \"#utility.yul\":483:488   */\n  dup2\n    /* \"#utility.yul\":480:515   */\n  eq\n    /* \"#utility.yul\":470:533   */\n  tag_23\n  jumpi\n    /* \"#utility.yul\":529:530   */\n  0x00\n    /* \"#utility.yul\":526:527   */\n  dup1\n    /* \"#utility.yul\":519:531   */\n  revert\n    /* \"#utility.yul\":470:533   */\ntag_23:\n    /* \"#utility.yul\":417:539   */\n  pop\n  jump\t// out\n    /* \"#utility.yul\":545:688   */\ntag_14:\n    /* \"#utility.yul\":602:607   */\n  0x00\n    /* \"#utility.yul\":633:639   */\n  dup2\n    /* \"#utility.yul\":627:640   */\n  mload\n    /* \"#utility.yul\":618:640   */\n  swap1\n  pop\n    /* \"#utility.yul\":649:682   */\n  tag_25\n    /* \"#utility.yul\":676:681   */\n  dup2\n    /* \"#utility.yul\":649:682   */\n  tag_13\n  jump\t// in\ntag_25:\n    /* \"#utility.yul\":545:688   */\n  swap3\n  swap2\n  pop\n  pop\n  jump\t// out\n    /* \"#utility.yul\":694:1201   */\ntag_3:\n    /* \"#utility.yul\":773:779   */\n  0x00\n    /* \"#utility.yul\":781:787   */\n  dup1\n    /* \"#utility.yul\":830:832   */\n  0x40\n    /* \"#utility.yul\":818:827   */\n  dup4\n    /* \"#utility.yul\":809:816   */\n  dup6\n    /* \"#utility.yul\":805:828   */\n  sub\n    /* \"#utility.yul\":801:833   */\n  slt\n    /* \"#utility.yul\":798:917   */\n  iszero\n  tag_27\n  jumpi\n    /* \"#utility.yul\":836:915   */\n  tag_28\n  tag_10\n  jump\t// in\ntag_28:\n    /* \"#utility.yul\":798:917   */\ntag_27:\n    /* \"#utility.yul\":956:957   */\n  0x00\n    /* \"#utility.yul\":981:1045   */\n  tag_29\n    /* \"#utility.yul\":1037:1044   */\n  dup6\n    /* \"#utility.yul\":1028:1034   */\n  dup3\n    /* \"#utility.yul\":1017:1026   */\n  dup7\n    /* \"#utility.yul\":1013:1035   */\n  add\n    /* \"#utility.yul\":981:1045   */\n  tag_14\n  jump\t// in\ntag_29:\n    /* \"#utility.yul\":971:1045   */\n  swap3\n  pop\n    /* \"#utility.yul\":927:1055   */\n  pop\n    /* \"#utility.yul\":1094:1096   */\n  0x20\n    /* \"#utility.yul\":1120:1184   */\n  tag_30\n    /* \"#utility.yul\":1176:1183   */\n  dup6\n    /* \"#utility.yul\":1167:1173   */\n  dup3\n    /* \"#utility.yul\":1156:1165   */\n  dup7\n    /* \"#utility.yul\":1152:1174   */\n  add\n    /* \"#utility.yul\":1120:1184   */\n  tag_14\n  jump\t// in\ntag_30:\n    /* \"#utility.yul\":1110:1184   */\n  swap2\n  pop\n    /* \"#utility.yul\":1065:1194   */\n  pop\n    /* \"#utility.yul\":694:1201   */\n  swap3\n  pop\n  swap3\n  swap1\n  pop\n  jump\t// out\n    /* \"#utility.yul\":1207:1387   */\ntag_15:\n    /* \"#utility.yul\":1255:1332   */\n  0x4e487b7100000000000000000000000000000000000000000000000000000000\n    /* \"#utility.yul\":1252:1253   */\n  0x00\n    /* \"#utility.yul\":1245:1333   */\n  mstore\n    /* \"#utility.yul\":1352:1356   */\n  0x11\n    /* \"#utility.yul\":1349:1350   */\n  0x04\n    /* \"#utility.yul\":1342:1357   */\n  mstore\n    /* \"#utility.yul\":1376:1380   */\n  0x24\n    /* \"#utility.yul\":1373:1374   */\n  0x00\n    /* \"#utility.yul\":1366:1381   */\n  revert\n    /* \"#utility.yul\":1393:1584   */\ntag_7:\n    /* \"#utility.yul\":1433:1436   */\n  0x00\n    /* \"#utility.yul\":1452:1472   */\n  tag_33\n    /* \"#utility.yul\":1470:1471   */\n  dup3\n    /* \"#utility.yul\":1452:1472   */\n  tag_12\n  jump\t// in\ntag_33:\n    /* \"#utility.yul\":1447:1472   */\n  swap2\n  pop\n    /* \"#utility.yul\":1486:1506   */\n  tag_34\n    /* \"#utility.yul\":1504:1505   */\n  dup4\n    /* \"#utility.yul\":1486:1506   */\n  tag_12\n  jump\t// in\ntag_34:\n    /* \"#utility.yul\":1481:1506   */\n  swap3\n  pop\n    /* \"#utility.yul\":1529:1530   */\n  dup3\n    /* \"#utility.yul\":1526:1527   */\n  dup3\n    /* \"#utility.yul\":1522:1531   */\n  add\n    /* \"#utility.yul\":1515:1531   */\n  swap1\n  pop\n    /* \"#utility.yul\":1550:1553   */\n  dup1\n    /* \"#utility.yul\":1547:1548   */\n  dup3\n    /* \"#utility.yul\":1544:1554   */\n  gt\n    /* \"#utility.yul\":1541:1577   */\n  iszero\n  tag_35\n  jumpi\n    /* \"#utility.yul\":1557:1575   */\n  tag_36\n  tag_15\n  jump\t// in\ntag_36:\n    /* \"#utility.yul\":1541:1577   */\ntag_35:\n    /* \"#utility.yul\":1393:1584   */\n  swap3\n  swap2\n  pop\n  pop\n  jump\t// out\n    /* \"crowfounding.sol\":58:2305  contract crowdFunding{... */\ntag_8:\n  dataSize(sub_0)\n  dup1\n  dataOffset(sub_0)\n  0x00\n  codecopy\n  0x00\n  return\nstop\n\nsub_0: assembly {\n        /* \"crowfounding.sol\":58:2305  contract crowdFunding{... */\n      mstore(0x40, 0x80)\n      jumpi(tag_1, lt(calldatasize, 0x04))\n      shr(0xe0, calldataload(0x00))\n      dup1\n      0x590e1ae3\n      gt\n      tag_14\n      jumpi\n      dup1\n      0x590e1ae3\n      eq\n      tag_8\n      jumpi\n      dup1\n      0x81d12c58\n      eq\n      tag_9\n      jumpi\n      dup1\n      0x8d68cf59\n      eq\n      tag_10\n      jumpi\n      dup1\n      0x953b8fb8\n      eq\n      tag_11\n      jumpi\n      dup1\n      0x9fb42b1f\n      eq\n      tag_12\n      jumpi\n      dup1\n      0xc59ee1dc\n      eq\n      tag_13\n      jumpi\n      jump(tag_1)\n    tag_14:\n      dup1\n      0x12065fe0\n      eq\n      tag_2\n      jumpi\n      dup1\n      0x1b16bb5c\n      eq\n      tag_3\n      jumpi\n      dup1\n      0x29dcb0cf\n      eq\n      tag_4\n      jumpi\n      dup1\n      0x4034a539\n      eq\n      tag_5\n      jumpi\n      dup1\n      0x481c6a75\n      eq\n      tag_6\n      jumpi\n      dup1\n      0x5114cb52\n      eq\n      tag_7\n      jumpi\n    tag_1:\n      0x00\n      dup1\n      revert\n        /* \"crowfounding.sol\":918:1006  function getBalance() public view returns(uint){... */\n    tag_2:\n      callvalue\n      dup1\n      iszero\n      tag_15\n      jumpi\n      0x00\n      dup1\n      revert\n    tag_15:\n      pop\n      tag_16\n      tag_17\n      jump\t// in\n    tag_16:\n      mload(0x40)\n      tag_18\n      swap2\n      swap1\n      tag_19\n      jump\t// in\n    tag_18:\n      mload(0x40)\n      dup1\n      swap2\n      sub\n      swap1\n      return\n        /* \"crowfounding.sol\":1602:1953  function createRequest (string memory _description, address payable _recipient, uint _value) public onlyManager {... */\n    tag_3:\n      callvalue\n      dup1\n      iszero\n      tag_20\n      jumpi\n      0x00\n      dup1\n      revert\n    tag_20:\n      pop\n      tag_21\n      0x04\n      dup1\n      calldatasize\n      sub\n      dup2\n      add\n      swap1\n      tag_22\n      swap2\n      swap1\n      tag_23\n      jump\t// in\n    tag_22:\n      tag_24\n      jump\t// in\n    tag_21:\n      stop\n        /* \"crowfounding.sol\":193:213  uint public deadline */\n    tag_4:\n      callvalue\n      dup1\n      iszero\n      tag_25\n      jumpi\n      0x00\n      dup1\n      revert\n    tag_25:\n      pop\n      tag_26\n      tag_27\n      jump\t// in\n    tag_26:\n      mload(0x40)\n      tag_28\n      swap2\n      swap1\n      tag_19\n      jump\t// in\n    tag_28:\n      mload(0x40)\n      dup1\n      swap2\n      sub\n      swap1\n      return\n        /* \"crowfounding.sol\":84:133  mapping (address => uint) public fundContributors */\n    tag_5:\n      callvalue\n      dup1\n      iszero\n      tag_29\n      jumpi\n      0x00\n      dup1\n      revert\n    tag_29:\n      pop\n      tag_30\n      0x04\n      dup1\n      calldatasize\n      sub\n      dup2\n      add\n      swap1\n      tag_31\n      swap2\n      swap1\n      tag_32\n      jump\t// in\n    tag_31:\n      tag_33\n      jump\t// in\n    tag_30:\n      mload(0x40)\n      tag_34\n      swap2\n      swap1\n      tag_19\n      jump\t// in\n    tag_34:\n      mload(0x40)\n      dup1\n      swap2\n      sub\n      swap1\n      return\n        /* \"crowfounding.sol\":137:159  address public manager */\n    tag_6:\n      callvalue\n      dup1\n      iszero\n      tag_35\n      jumpi\n      0x00\n      dup1\n      revert\n    tag_35:\n      pop\n      tag_36\n      tag_37\n      jump\t// in\n    tag_36:\n      mload(0x40)\n      tag_38\n      swap2\n      swap1\n      tag_39\n      jump\t// in\n    tag_38:\n      mload(0x40)\n      dup1\n      swap2\n      sub\n      swap1\n      return\n        /* \"crowfounding.sol\":1957:2300  function makePayment (uint _requestNo) public onlyManager{... */\n    tag_7:\n      callvalue\n      dup1\n      iszero\n      tag_40\n      jumpi\n      0x00\n      dup1\n      revert\n    tag_40:\n      pop\n      tag_41\n      0x04\n      dup1\n      calldatasize\n      sub\n      dup2\n      add\n      swap1\n      tag_42\n      swap2\n      swap1\n      tag_43\n      jump\t// in\n    tag_42:\n      tag_44\n      jump\t// in\n    tag_41:\n      stop\n        /* \"crowfounding.sol\":1035:1465  function refund() public {... */\n    tag_8:\n      callvalue\n      dup1\n      iszero\n      tag_45\n      jumpi\n      0x00\n      dup1\n      revert\n    tag_45:\n      pop\n      tag_46\n      tag_47\n      jump\t// in\n    tag_46:\n      stop\n        /* \"crowfounding.sol\":490:531  mapping (uint => Request) public requests */\n    tag_9:\n      callvalue\n      dup1\n      iszero\n      tag_48\n      jumpi\n      0x00\n      dup1\n      revert\n    tag_48:\n      pop\n      tag_49\n      0x04\n      dup1\n      calldatasize\n      sub\n      dup2\n      add\n      swap1\n      tag_50\n      swap2\n      swap1\n      tag_43\n      jump\t// in\n    tag_50:\n      tag_51\n      jump\t// in\n    tag_49:\n      mload(0x40)\n      tag_52\n      swap5\n      swap4\n      swap3\n      swap2\n      swap1\n      tag_53\n      jump\t// in\n    tag_52:\n      mload(0x40)\n      dup1\n      swap2\n      sub\n      swap1\n      return\n        /* \"crowfounding.sol\":732:914  function sendFunds() public payable {... */\n    tag_10:\n      tag_54\n      tag_55\n      jump\t// in\n    tag_54:\n      stop\n        /* \"crowfounding.sol\":254:278  uint public targetAmount */\n    tag_11:\n      callvalue\n      dup1\n      iszero\n      tag_56\n      jumpi\n      0x00\n      dup1\n      revert\n    tag_56:\n      pop\n      tag_57\n      tag_58\n      jump\t// in\n    tag_57:\n      mload(0x40)\n      tag_59\n      swap2\n      swap1\n      tag_19\n      jump\t// in\n    tag_59:\n      mload(0x40)\n      dup1\n      swap2\n      sub\n      swap1\n      return\n        /* \"crowfounding.sol\":535:558  uint public numRequests */\n    tag_12:\n      callvalue\n      dup1\n      iszero\n      tag_60\n      jumpi\n      0x00\n      dup1\n      revert\n    tag_60:\n      pop\n      tag_61\n      tag_62\n      jump\t// in\n    tag_61:\n      mload(0x40)\n      tag_63\n      swap2\n      swap1\n      tag_19\n      jump\t// in\n    tag_63:\n      mload(0x40)\n      dup1\n      swap2\n      sub\n      swap1\n      return\n        /* \"crowfounding.sol\":310:334  uint public raisedAmount */\n    tag_13:\n      callvalue\n      dup1\n      iszero\n      tag_64\n      jumpi\n      0x00\n      dup1\n      revert\n    tag_64:\n      pop\n      tag_65\n      tag_66\n      jump\t// in\n    tag_65:\n      mload(0x40)\n      tag_67\n      swap2\n      swap1\n      tag_19\n      jump\t// in\n    tag_67:\n      mload(0x40)\n      dup1\n      swap2\n      sub\n      swap1\n      return\n        /* \"crowfounding.sol\":918:1006  function getBalance() public view returns(uint){... */\n    tag_17:\n        /* \"crowfounding.sol\":960:964  uint */\n      0x00\n        /* \"crowfounding.sol\":980:1001  address(this).balance */\n      selfbalance\n        /* \"crowfounding.sol\":973:1001  return address(this).balance */\n      swap1\n      pop\n        /* \"crowfounding.sol\":918:1006  function getBalance() public view returns(uint){... */\n      swap1\n      jump\t// out\n        /* \"crowfounding.sol\":1602:1953  function createRequest (string memory _description, address payable _recipient, uint _value) public onlyManager {... */\n    tag_24:\n        /* \"crowfounding.sol\":1523:1530  manager */\n      0x01\n      0x00\n      swap1\n      sload\n      swap1\n      0x0100\n      exp\n      swap1\n      div\n      0xffffffffffffffffffffffffffffffffffffffff\n      and\n        /* \"crowfounding.sol\":1509:1530  msg.sender == manager */\n      0xffffffffffffffffffffffffffffffffffffffff\n      and\n        /* \"crowfounding.sol\":1509:1519  msg.sender */\n      caller\n        /* \"crowfounding.sol\":1509:1530  msg.sender == manager */\n      0xffffffffffffffffffffffffffffffffffffffff\n      and\n      eq\n        /* \"crowfounding.sol\":1501:1584  require(msg.sender == manager, \"Solo el administrador puede ejecutar esta funcion\") */\n      tag_70\n      jumpi\n      mload(0x40)\n      0x08c379a000000000000000000000000000000000000000000000000000000000\n      dup2\n      mstore\n      0x04\n      add\n      tag_71\n      swap1\n      tag_72\n      jump\t// in\n    tag_71:\n      mload(0x40)\n      dup1\n      swap2\n      sub\n      swap1\n      revert\n    tag_70:\n        /* \"crowfounding.sol\":1722:1748  Request storage newRequest */\n      0x00\n        /* \"crowfounding.sol\":1751:1759  requests */\n      0x05\n        /* \"crowfounding.sol\":1751:1772  requests[numRequests] */\n      0x00\n        /* \"crowfounding.sol\":1760:1771  numRequests */\n      sload(0x06)\n        /* \"crowfounding.sol\":1751:1772  requests[numRequests] */\n      dup2\n      mstore\n      0x20\n      add\n      swap1\n      dup2\n      mstore\n      0x20\n      add\n      0x00\n      keccak256\n        /* \"crowfounding.sol\":1722:1772  Request storage newRequest = requests[numRequests] */\n      swap1\n      pop\n        /* \"crowfounding.sol\":1780:1791  numRequests */\n      0x06\n      0x00\n        /* \"crowfounding.sol\":1780:1793  numRequests++ */\n      dup2\n      sload\n      dup1\n      swap3\n      swap2\n      swap1\n      tag_74\n      swap1\n      tag_75\n      jump\t// in\n    tag_74:\n      swap2\n      swap1\n      pop\n      sstore\n      pop\n        /* \"crowfounding.sol\":1826:1838  _description */\n      dup4\n        /* \"crowfounding.sol\":1801:1811  newRequest */\n      dup2\n        /* \"crowfounding.sol\":1801:1823  newRequest.description */\n      0x00\n      add\n        /* \"crowfounding.sol\":1801:1838  newRequest.description = _description */\n      swap1\n      dup2\n      tag_76\n      swap2\n      swap1\n      tag_77\n      jump\t// in\n    tag_76:\n      pop\n        /* \"crowfounding.sol\":1869:1879  _recipient */\n      dup3\n        /* \"crowfounding.sol\":1846:1856  newRequest */\n      dup2\n        /* \"crowfounding.sol\":1846:1866  newRequest.recipient */\n      0x01\n      add\n      0x00\n        /* \"crowfounding.sol\":1846:1879  newRequest.recipient = _recipient */\n      0x0100\n      exp\n      dup2\n      sload\n      dup2\n      0xffffffffffffffffffffffffffffffffffffffff\n      mul\n      not\n      and\n      swap1\n      dup4\n      0xffffffffffffffffffffffffffffffffffffffff\n      and\n      mul\n      or\n      swap1\n      sstore\n      pop\n        /* \"crowfounding.sol\":1906:1912  _value */\n      dup2\n        /* \"crowfounding.sol\":1887:1897  newRequest */\n      dup2\n        /* \"crowfounding.sol\":1887:1903  newRequest.value */\n      0x02\n      add\n        /* \"crowfounding.sol\":1887:1912  newRequest.value = _value */\n      dup2\n      swap1\n      sstore\n      pop\n        /* \"crowfounding.sol\":1943:1948  false */\n      0x00\n        /* \"crowfounding.sol\":1920:1930  newRequest */\n      dup2\n        /* \"crowfounding.sol\":1920:1940  newRequest.completed */\n      0x03\n      add\n      0x00\n        /* \"crowfounding.sol\":1920:1948  newRequest.completed = false */\n      0x0100\n      exp\n      dup2\n      sload\n      dup2\n      0xff\n      mul\n      not\n      and\n      swap1\n      dup4\n      iszero\n      iszero\n      mul\n      or\n      swap1\n      sstore\n      pop\n        /* \"crowfounding.sol\":1714:1953  {... */\n      pop\n        /* \"crowfounding.sol\":1602:1953  function createRequest (string memory _description, address payable _recipient, uint _value) public onlyManager {... */\n      pop\n      pop\n      pop\n      jump\t// out\n        /* \"crowfounding.sol\":193:213  uint public deadline */\n    tag_27:\n      sload(0x02)\n      dup2\n      jump\t// out\n        /* \"crowfounding.sol\":84:133  mapping (address => uint) public fundContributors */\n    tag_33:\n      mstore(0x20, 0x00)\n      dup1\n      0x00\n      mstore\n      keccak256(0x00, 0x40)\n      0x00\n      swap2\n      pop\n      swap1\n      pop\n      sload\n      dup2\n      jump\t// out\n        /* \"crowfounding.sol\":137:159  address public manager */\n    tag_37:\n      0x01\n      0x00\n      swap1\n      sload\n      swap1\n      0x0100\n      exp\n      swap1\n      div\n      0xffffffffffffffffffffffffffffffffffffffff\n      and\n      dup2\n      jump\t// out\n        /* \"crowfounding.sol\":1957:2300  function makePayment (uint _requestNo) public onlyManager{... */\n    tag_44:\n        /* \"crowfounding.sol\":1523:1530  manager */\n      0x01\n      0x00\n      swap1\n      sload\n      swap1\n      0x0100\n      exp\n      swap1\n      div\n      0xffffffffffffffffffffffffffffffffffffffff\n      and\n        /* \"crowfounding.sol\":1509:1530  msg.sender == manager */\n      0xffffffffffffffffffffffffffffffffffffffff\n      and\n        /* \"crowfounding.sol\":1509:1519  msg.sender */\n      caller\n        /* \"crowfounding.sol\":1509:1530  msg.sender == manager */\n      0xffffffffffffffffffffffffffffffffffffffff\n      and\n      eq\n        /* \"crowfounding.sol\":1501:1584  require(msg.sender == manager, \"Solo el administrador puede ejecutar esta funcion\") */\n      tag_79\n      jumpi\n      mload(0x40)\n      0x08c379a000000000000000000000000000000000000000000000000000000000\n      dup2\n      mstore\n      0x04\n      add\n      tag_80\n      swap1\n      tag_72\n      jump\t// in\n    tag_80:\n      mload(0x40)\n      dup1\n      swap2\n      sub\n      swap1\n      revert\n    tag_79:\n        /* \"crowfounding.sol\":2048:2060  targetAmount */\n      sload(0x03)\n        /* \"crowfounding.sol\":2032:2044  raisedAmount */\n      sload(0x04)\n        /* \"crowfounding.sol\":2032:2060  raisedAmount >= targetAmount */\n      lt\n      iszero\n        /* \"crowfounding.sol\":2023:2061  require (raisedAmount >= targetAmount) */\n      tag_82\n      jumpi\n      0x00\n      dup1\n      revert\n    tag_82:\n        /* \"crowfounding.sol\":2069:2096  Request storage thisRequest */\n      0x00\n        /* \"crowfounding.sol\":2099:2107  requests */\n      0x05\n        /* \"crowfounding.sol\":2099:2119  requests[_requestNo] */\n      0x00\n        /* \"crowfounding.sol\":2108:2118  _requestNo */\n      dup4\n        /* \"crowfounding.sol\":2099:2119  requests[_requestNo] */\n      dup2\n      mstore\n      0x20\n      add\n      swap1\n      dup2\n      mstore\n      0x20\n      add\n      0x00\n      keccak256\n        /* \"crowfounding.sol\":2069:2119  Request storage thisRequest = requests[_requestNo] */\n      swap1\n      pop\n        /* \"crowfounding.sol\":2160:2165  false */\n      0x00\n        /* \"crowfounding.sol\":2135:2165  thisRequest.completed == false */\n      iszero\n      iszero\n        /* \"crowfounding.sol\":2135:2146  thisRequest */\n      dup2\n        /* \"crowfounding.sol\":2135:2156  thisRequest.completed */\n      0x03\n      add\n      0x00\n      swap1\n      sload\n      swap1\n      0x0100\n      exp\n      swap1\n      div\n      0xff\n      and\n        /* \"crowfounding.sol\":2135:2165  thisRequest.completed == false */\n      iszero\n      iszero\n      eq\n        /* \"crowfounding.sol\":2127:2202  require(thisRequest.completed == false , \"Esta peticion no fue completada\") */\n      tag_83\n      jumpi\n      mload(0x40)\n      0x08c379a000000000000000000000000000000000000000000000000000000000\n      dup2\n      mstore\n      0x04\n      add\n      tag_84\n      swap1\n      tag_85\n      jump\t// in\n    tag_84:\n      mload(0x40)\n      dup1\n      swap2\n      sub\n      swap1\n      revert\n    tag_83:\n        /* \"crowfounding.sol\":2210:2221  thisRequest */\n      dup1\n        /* \"crowfounding.sol\":2210:2231  thisRequest.recipient */\n      0x01\n      add\n      0x00\n      swap1\n      sload\n      swap1\n      0x0100\n      exp\n      swap1\n      div\n      0xffffffffffffffffffffffffffffffffffffffff\n      and\n        /* \"crowfounding.sol\":2210:2240  thisRequest.recipient.transfer */\n      0xffffffffffffffffffffffffffffffffffffffff\n      and\n        /* \"crowfounding.sol\":2210:2259  thisRequest.recipient.transfer(thisRequest.value) */\n      0x08fc\n        /* \"crowfounding.sol\":2241:2252  thisRequest */\n      dup3\n        /* \"crowfounding.sol\":2241:2258  thisRequest.value */\n      0x02\n      add\n      sload\n        /* \"crowfounding.sol\":2210:2259  thisRequest.recipient.transfer(thisRequest.value) */\n      swap1\n      dup2\n      iszero\n      mul\n      swap1\n      mload(0x40)\n      0x00\n      mload(0x40)\n      dup1\n      dup4\n      sub\n      dup2\n      dup6\n      dup9\n      dup9\n      call\n      swap4\n      pop\n      pop\n      pop\n      pop\n      iszero\n      dup1\n      iszero\n      tag_87\n      jumpi\n      returndatasize\n      0x00\n      dup1\n      returndatacopy\n      revert(0x00, returndatasize)\n    tag_87:\n      pop\n        /* \"crowfounding.sol\":2291:2295  true */\n      0x01\n        /* \"crowfounding.sol\":2267:2278  thisRequest */\n      dup2\n        /* \"crowfounding.sol\":2267:2288  thisRequest.completed */\n      0x03\n      add\n      0x00\n        /* \"crowfounding.sol\":2267:2295  thisRequest.completed = true */\n      0x0100\n      exp\n      dup2\n      sload\n      dup2\n      0xff\n      mul\n      not\n      and\n      swap1\n      dup4\n      iszero\n      iszero\n      mul\n      or\n      swap1\n      sstore\n      pop\n        /* \"crowfounding.sol\":2014:2300  {... */\n      pop\n        /* \"crowfounding.sol\":1957:2300  function makePayment (uint _requestNo) public onlyManager{... */\n      pop\n      jump\t// out\n        /* \"crowfounding.sol\":1035:1465  function refund() public {... */\n    tag_47:\n        /* \"crowfounding.sol\":1094:1102  deadline */\n      sload(0x02)\n        /* \"crowfounding.sol\":1076:1091  block.timestamp */\n      timestamp\n        /* \"crowfounding.sol\":1076:1102  block.timestamp > deadline */\n      gt\n        /* \"crowfounding.sol\":1076:1133  block.timestamp > deadline && raisedAmount < targetAmount */\n      dup1\n      iszero\n      tag_89\n      jumpi\n      pop\n        /* \"crowfounding.sol\":1121:1133  targetAmount */\n      sload(0x03)\n        /* \"crowfounding.sol\":1106:1118  raisedAmount */\n      sload(0x04)\n        /* \"crowfounding.sol\":1106:1133  raisedAmount < targetAmount */\n      lt\n        /* \"crowfounding.sol\":1076:1133  block.timestamp > deadline && raisedAmount < targetAmount */\n    tag_89:\n        /* \"crowfounding.sol\":1068:1164  require(block.timestamp > deadline && raisedAmount < targetAmount, \"No se puede reembolsar ...\") */\n      tag_90\n      jumpi\n      mload(0x40)\n      0x08c379a000000000000000000000000000000000000000000000000000000000\n      dup2\n      mstore\n      0x04\n      add\n      tag_91\n      swap1\n      tag_92\n      jump\t// in\n    tag_91:\n      mload(0x40)\n      dup1\n      swap2\n      sub\n      swap1\n      revert\n    tag_90:\n        /* \"crowfounding.sol\":1172:1191  uint amountToRefund */\n      0x00\n        /* \"crowfounding.sol\":1194:1210  fundContributors */\n      dup1\n        /* \"crowfounding.sol\":1194:1222  fundContributors[msg.sender] */\n      0x00\n        /* \"crowfounding.sol\":1211:1221  msg.sender */\n      caller\n        /* \"crowfounding.sol\":1194:1222  fundContributors[msg.sender] */\n      0xffffffffffffffffffffffffffffffffffffffff\n      and\n      0xffffffffffffffffffffffffffffffffffffffff\n      and\n      dup2\n      mstore\n      0x20\n      add\n      swap1\n      dup2\n      mstore\n      0x20\n      add\n      0x00\n      keccak256\n      sload\n        /* \"crowfounding.sol\":1172:1222  uint amountToRefund = fundContributors[msg.sender] */\n      swap1\n      pop\n        /* \"crowfounding.sol\":1255:1256  0 */\n      0x00\n        /* \"crowfounding.sol\":1238:1252  amountToRefund */\n      dup2\n        /* \"crowfounding.sol\":1238:1256  amountToRefund > 0 */\n      gt\n        /* \"crowfounding.sol\":1230:1282  require(amountToRefund > 0, \"No pusiste pa la vaca\") */\n      tag_93\n      jumpi\n      mload(0x40)\n      0x08c379a000000000000000000000000000000000000000000000000000000000\n      dup2\n      mstore\n      0x04\n      add\n      tag_94\n      swap1\n      tag_95\n      jump\t// in\n    tag_94:\n      mload(0x40)\n      dup1\n      swap2\n      sub\n      swap1\n      revert\n    tag_93:\n        /* \"crowfounding.sol\":1299:1311  bool success */\n      0x00\n        /* \"crowfounding.sol\":1325:1335  msg.sender */\n      caller\n        /* \"crowfounding.sol\":1317:1341  address(msg.sender).call */\n      0xffffffffffffffffffffffffffffffffffffffff\n      and\n        /* \"crowfounding.sol\":1350:1364  amountToRefund */\n      dup3\n        /* \"crowfounding.sol\":1317:1370  address(msg.sender).call{ value: amountToRefund} ('') */\n      mload(0x40)\n      tag_96\n      swap1\n      tag_97\n      jump\t// in\n    tag_96:\n      0x00\n      mload(0x40)\n      dup1\n      dup4\n      sub\n      dup2\n      dup6\n      dup8\n      gas\n      call\n      swap3\n      pop\n      pop\n      pop\n      returndatasize\n      dup1\n      0x00\n      dup2\n      eq\n      tag_100\n      jumpi\n      mload(0x40)\n      swap2\n      pop\n      and(add(returndatasize, 0x3f), not(0x1f))\n      dup3\n      add\n      0x40\n      mstore\n      returndatasize\n      dup3\n      mstore\n      returndatasize\n      0x00\n      0x20\n      dup5\n      add\n      returndatacopy\n      jump(tag_99)\n    tag_100:\n      0x60\n      swap2\n      pop\n    tag_99:\n      pop\n        /* \"crowfounding.sol\":1298:1370  (bool success, ) = address(msg.sender).call{ value: amountToRefund} ('') */\n      pop\n      swap1\n      pop\n        /* \"crowfounding.sol\":1385:1392  success */\n      dup1\n        /* \"crowfounding.sol\":1377:1419  require(success, \"La transferencia fallo\") */\n      tag_101\n      jumpi\n      mload(0x40)\n      0x08c379a000000000000000000000000000000000000000000000000000000000\n      dup2\n      mstore\n      0x04\n      add\n      tag_102\n      swap1\n      tag_103\n      jump\t// in\n    tag_102:\n      mload(0x40)\n      dup1\n      swap2\n      sub\n      swap1\n      revert\n    tag_101:\n        /* \"crowfounding.sol\":1458:1459  0 */\n      0x00\n        /* \"crowfounding.sol\":1427:1443  fundContributors */\n      dup1\n        /* \"crowfounding.sol\":1427:1455  fundContributors[msg.sender] */\n      0x00\n        /* \"crowfounding.sol\":1444:1454  msg.sender */\n      caller\n        /* \"crowfounding.sol\":1427:1455  fundContributors[msg.sender] */\n      0xffffffffffffffffffffffffffffffffffffffff\n      and\n      0xffffffffffffffffffffffffffffffffffffffff\n      and\n      dup2\n      mstore\n      0x20\n      add\n      swap1\n      dup2\n      mstore\n      0x20\n      add\n      0x00\n      keccak256\n        /* \"crowfounding.sol\":1427:1459  fundContributors[msg.sender] = 0 */\n      dup2\n      swap1\n      sstore\n      pop\n        /* \"crowfounding.sol\":1060:1465  {... */\n      pop\n      pop\n        /* \"crowfounding.sol\":1035:1465  function refund() public {... */\n      jump\t// out\n        /* \"crowfounding.sol\":490:531  mapping (uint => Request) public requests */\n    tag_51:\n      mstore(0x20, 0x05)\n      dup1\n      0x00\n      mstore\n      keccak256(0x00, 0x40)\n      0x00\n      swap2\n      pop\n      swap1\n      pop\n      dup1\n      0x00\n      add\n      dup1\n      sload\n      tag_104\n      swap1\n      tag_105\n      jump\t// in\n    tag_104:\n      dup1\n      0x1f\n      add\n      0x20\n      dup1\n      swap2\n      div\n      mul\n      0x20\n      add\n      mload(0x40)\n      swap1\n      dup2\n      add\n      0x40\n      mstore\n      dup1\n      swap3\n      swap2\n      swap1\n      dup2\n      dup2\n      mstore\n      0x20\n      add\n      dup3\n      dup1\n      sload\n      tag_106\n      swap1\n      tag_105\n      jump\t// in\n    tag_106:\n      dup1\n      iszero\n      tag_107\n      jumpi\n      dup1\n      0x1f\n      lt\n      tag_108\n      jumpi\n      0x0100\n      dup1\n      dup4\n      sload\n      div\n      mul\n      dup4\n      mstore\n      swap2\n      0x20\n      add\n      swap2\n      jump(tag_107)\n    tag_108:\n      dup3\n      add\n      swap2\n      swap1\n      0x00\n      mstore\n      keccak256(0x00, 0x20)\n      swap1\n    tag_109:\n      dup2\n      sload\n      dup2\n      mstore\n      swap1\n      0x01\n      add\n      swap1\n      0x20\n      add\n      dup1\n      dup4\n      gt\n      tag_109\n      jumpi\n      dup3\n      swap1\n      sub\n      0x1f\n      and\n      dup3\n      add\n      swap2\n    tag_107:\n      pop\n      pop\n      pop\n      pop\n      pop\n      swap1\n      dup1\n      0x01\n      add\n      0x00\n      swap1\n      sload\n      swap1\n      0x0100\n      exp\n      swap1\n      div\n      0xffffffffffffffffffffffffffffffffffffffff\n      and\n      swap1\n      dup1\n      0x02\n      add\n      sload\n      swap1\n      dup1\n      0x03\n      add\n      0x00\n      swap1\n      sload\n      swap1\n      0x0100\n      exp\n      swap1\n      div\n      0xff\n      and\n      swap1\n      pop\n      dup5\n      jump\t// out\n        /* \"crowfounding.sol\":732:914  function sendFunds() public payable {... */\n    tag_55:\n        /* \"crowfounding.sol\":799:807  deadline */\n      sload(0x02)\n        /* \"crowfounding.sol\":781:796  block.timestamp */\n      timestamp\n        /* \"crowfounding.sol\":781:807  block.timestamp < deadline */\n      lt\n        /* \"crowfounding.sol\":773:834  require(block.timestamp < deadline, \"Termino la deadline :(\") */\n      tag_111\n      jumpi\n      mload(0x40)\n      0x08c379a000000000000000000000000000000000000000000000000000000000\n      dup2\n      mstore\n      0x04\n      add\n      tag_112\n      swap1\n      tag_113\n      jump\t// in\n    tag_112:\n      mload(0x40)\n      dup1\n      swap2\n      sub\n      swap1\n      revert\n    tag_111:\n        /* \"crowfounding.sol\":870:879  msg.value */\n      callvalue\n        /* \"crowfounding.sol\":838:854  fundContributors */\n      0x00\n        /* \"crowfounding.sol\":838:866  fundContributors[msg.sender] */\n      dup1\n        /* \"crowfounding.sol\":855:865  msg.sender */\n      caller\n        /* \"crowfounding.sol\":838:866  fundContributors[msg.sender] */\n      0xffffffffffffffffffffffffffffffffffffffff\n      and\n      0xffffffffffffffffffffffffffffffffffffffff\n      and\n      dup2\n      mstore\n      0x20\n      add\n      swap1\n      dup2\n      mstore\n      0x20\n      add\n      0x00\n      keccak256\n      0x00\n        /* \"crowfounding.sol\":838:879  fundContributors[msg.sender] += msg.value */\n      dup3\n      dup3\n      sload\n      tag_114\n      swap2\n      swap1\n      tag_115\n      jump\t// in\n    tag_114:\n      swap3\n      pop\n      pop\n      dup2\n      swap1\n      sstore\n      pop\n        /* \"crowfounding.sol\":899:908  msg.value */\n      callvalue\n        /* \"crowfounding.sol\":883:895  raisedAmount */\n      0x04\n      0x00\n        /* \"crowfounding.sol\":883:908  raisedAmount += msg.value */\n      dup3\n      dup3\n      sload\n      tag_116\n      swap2\n      swap1\n      tag_115\n      jump\t// in\n    tag_116:\n      swap3\n      pop\n      pop\n      dup2\n      swap1\n      sstore\n      pop\n        /* \"crowfounding.sol\":732:914  function sendFunds() public payable {... */\n      jump\t// out\n        /* \"crowfounding.sol\":254:278  uint public targetAmount */\n    tag_58:\n      sload(0x03)\n      dup2\n      jump\t// out\n        /* \"crowfounding.sol\":535:558  uint public numRequests */\n    tag_62:\n      sload(0x06)\n      dup2\n      jump\t// out\n        /* \"crowfounding.sol\":310:334  uint public raisedAmount */\n    tag_66:\n      sload(0x04)\n      dup2\n      jump\t// out\n        /* \"#utility.yul\":7:84   */\n    tag_117:\n        /* \"#utility.yul\":44:51   */\n      0x00\n        /* \"#utility.yul\":73:78   */\n      dup2\n        /* \"#utility.yul\":62:78   */\n      swap1\n      pop\n        /* \"#utility.yul\":7:84   */\n      swap2\n      swap1\n      pop\n      jump\t// out\n        /* \"#utility.yul\":90:208   */\n    tag_118:\n        /* \"#utility.yul\":177:201   */\n      tag_184\n        /* \"#utility.yul\":195:200   */\n      dup2\n        /* \"#utility.yul\":177:201   */\n      tag_117\n      jump\t// in\n    tag_184:\n        /* \"#utility.yul\":172:175   */\n      dup3\n        /* \"#utility.yul\":165:202   */\n      mstore\n        /* \"#utility.yul\":90:208   */\n      pop\n      pop\n      jump\t// out\n        /* \"#utility.yul\":214:436   */\n    tag_19:\n        /* \"#utility.yul\":307:311   */\n      0x00\n        /* \"#utility.yul\":345:347   */\n      0x20\n        /* \"#utility.yul\":334:343   */\n      dup3\n        /* \"#utility.yul\":330:348   */\n      add\n        /* \"#utility.yul\":322:348   */\n      swap1\n      pop\n        /* \"#utility.yul\":358:429   */\n      tag_186\n        /* \"#utility.yul\":426:427   */\n      0x00\n        /* \"#utility.yul\":415:424   */\n      dup4\n        /* \"#utility.yul\":411:428   */\n      add\n        /* \"#utility.yul\":402:408   */\n      dup5\n        /* \"#utility.yul\":358:429   */\n      tag_118\n      jump\t// in\n    tag_186:\n        /* \"#utility.yul\":214:436   */\n      swap3\n      swap2\n      pop\n      pop\n      jump\t// out\n        /* \"#utility.yul\":442:517   */\n    tag_119:\n        /* \"#utility.yul\":475:481   */\n      0x00\n        /* \"#utility.yul\":508:510   */\n      0x40\n        /* \"#utility.yul\":502:511   */\n      mload\n        /* \"#utility.yul\":492:511   */\n      swap1\n      pop\n        /* \"#utility.yul\":442:517   */\n      swap1\n      jump\t// out\n        /* \"#utility.yul\":523:640   */\n    tag_120:\n        /* \"#utility.yul\":632:633   */\n      0x00\n        /* \"#utility.yul\":629:630   */\n      dup1\n        /* \"#utility.yul\":622:634   */\n      revert\n        /* \"#utility.yul\":646:763   */\n    tag_121:\n        /* \"#utility.yul\":755:756   */\n      0x00\n        /* \"#utility.yul\":752:753   */\n      dup1\n        /* \"#utility.yul\":745:757   */\n      revert\n        /* \"#utility.yul\":769:886   */\n    tag_122:\n        /* \"#utility.yul\":878:879   */\n      0x00\n        /* \"#utility.yul\":875:876   */\n      dup1\n        /* \"#utility.yul\":868:880   */\n      revert\n        /* \"#utility.yul\":892:1009   */\n    tag_123:\n        /* \"#utility.yul\":1001:1002   */\n      0x00\n        /* \"#utility.yul\":998:999   */\n      dup1\n        /* \"#utility.yul\":991:1003   */\n      revert\n        /* \"#utility.yul\":1015:1117   */\n    tag_124:\n        /* \"#utility.yul\":1056:1062   */\n      0x00\n        /* \"#utility.yul\":1107:1109   */\n      0x1f\n        /* \"#utility.yul\":1103:1110   */\n      not\n        /* \"#utility.yul\":1098:1100   */\n      0x1f\n        /* \"#utility.yul\":1091:1096   */\n      dup4\n        /* \"#utility.yul\":1087:1101   */\n      add\n        /* \"#utility.yul\":1083:1111   */\n      and\n        /* \"#utility.yul\":1073:1111   */\n      swap1\n      pop\n        /* \"#utility.yul\":1015:1117   */\n      swap2\n      swap1\n      pop\n      jump\t// out\n        /* \"#utility.yul\":1123:1303   */\n    tag_125:\n        /* \"#utility.yul\":1171:1248   */\n      0x4e487b7100000000000000000000000000000000000000000000000000000000\n        /* \"#utility.yul\":1168:1169   */\n      0x00\n        /* \"#utility.yul\":1161:1249   */\n      mstore\n        /* \"#utility.yul\":1268:1272   */\n      0x41\n        /* \"#utility.yul\":1265:1266   */\n      0x04\n        /* \"#utility.yul\":1258:1273   */\n      mstore\n        /* \"#utility.yul\":1292:1296   */\n      0x24\n        /* \"#utility.yul\":1289:1290   */\n      0x00\n        /* \"#utility.yul\":1282:1297   */\n      revert\n        /* \"#utility.yul\":1309:1590   */\n    tag_126:\n        /* \"#utility.yul\":1392:1419   */\n      tag_195\n        /* \"#utility.yul\":1414:1418   */\n      dup3\n        /* \"#utility.yul\":1392:1419   */\n      tag_124\n      jump\t// in\n    tag_195:\n        /* \"#utility.yul\":1384:1390   */\n      dup2\n        /* \"#utility.yul\":1380:1420   */\n      add\n        /* \"#utility.yul\":1522:1528   */\n      dup2\n        /* \"#utility.yul\":1510:1520   */\n      dup2\n        /* \"#utility.yul\":1507:1529   */\n      lt\n        /* \"#utility.yul\":1486:1504   */\n      0xffffffffffffffff\n        /* \"#utility.yul\":1474:1484   */\n      dup3\n        /* \"#utility.yul\":1471:1505   */\n      gt\n        /* \"#utility.yul\":1468:1530   */\n      or\n        /* \"#utility.yul\":1465:1553   */\n      iszero\n      tag_196\n      jumpi\n        /* \"#utility.yul\":1533:1551   */\n      tag_197\n      tag_125\n      jump\t// in\n    tag_197:\n        /* \"#utility.yul\":1465:1553   */\n    tag_196:\n        /* \"#utility.yul\":1573:1583   */\n      dup1\n        /* \"#utility.yul\":1569:1571   */\n      0x40\n        /* \"#utility.yul\":1562:1584   */\n      mstore\n        /* \"#utility.yul\":1352:1590   */\n      pop\n        /* \"#utility.yul\":1309:1590   */\n      pop\n      pop\n      jump\t// out\n        /* \"#utility.yul\":1596:1725   */\n    tag_127:\n        /* \"#utility.yul\":1630:1636   */\n      0x00\n        /* \"#utility.yul\":1657:1677   */\n      tag_199\n      tag_119\n      jump\t// in\n    tag_199:\n        /* \"#utility.yul\":1647:1677   */\n      swap1\n      pop\n        /* \"#utility.yul\":1686:1719   */\n      tag_200\n        /* \"#utility.yul\":1714:1718   */\n      dup3\n        /* \"#utility.yul\":1706:1712   */\n      dup3\n        /* \"#utility.yul\":1686:1719   */\n      tag_126\n      jump\t// in\n    tag_200:\n        /* \"#utility.yul\":1596:1725   */\n      swap2\n      swap1\n      pop\n      jump\t// out\n        /* \"#utility.yul\":1731:2039   */\n    tag_128:\n        /* \"#utility.yul\":1793:1797   */\n      0x00\n        /* \"#utility.yul\":1883:1901   */\n      0xffffffffffffffff\n        /* \"#utility.yul\":1875:1881   */\n      dup3\n        /* \"#utility.yul\":1872:1902   */\n      gt\n        /* \"#utility.yul\":1869:1925   */\n      iszero\n      tag_202\n      jumpi\n        /* \"#utility.yul\":1905:1923   */\n      tag_203\n      tag_125\n      jump\t// in\n    tag_203:\n        /* \"#utility.yul\":1869:1925   */\n    tag_202:\n        /* \"#utility.yul\":1943:1972   */\n      tag_204\n        /* \"#utility.yul\":1965:1971   */\n      dup3\n        /* \"#utility.yul\":1943:1972   */\n      tag_124\n      jump\t// in\n    tag_204:\n        /* \"#utility.yul\":1935:1972   */\n      swap1\n      pop\n        /* \"#utility.yul\":2027:2031   */\n      0x20\n        /* \"#utility.yul\":2021:2025   */\n      dup2\n        /* \"#utility.yul\":2017:2032   */\n      add\n        /* \"#utility.yul\":2009:2032   */\n      swap1\n      pop\n        /* \"#utility.yul\":1731:2039   */\n      swap2\n      swap1\n      pop\n      jump\t// out\n        /* \"#utility.yul\":2045:2193   */\n    tag_129:\n        /* \"#utility.yul\":2143:2149   */\n      dup3\n        /* \"#utility.yul\":2138:2141   */\n      dup2\n        /* \"#utility.yul\":2133:2136   */\n      dup4\n        /* \"#utility.yul\":2120:2150   */\n      calldatacopy\n        /* \"#utility.yul\":2184:2185   */\n      0x00\n        /* \"#utility.yul\":2175:2181   */\n      dup4\n        /* \"#utility.yul\":2170:2173   */\n      dup4\n        /* \"#utility.yul\":2166:2182   */\n      add\n        /* \"#utility.yul\":2159:2186   */\n      mstore\n        /* \"#utility.yul\":2045:2193   */\n      pop\n      pop\n      pop\n      jump\t// out\n        /* \"#utility.yul\":2199:2624   */\n    tag_130:\n        /* \"#utility.yul\":2277:2282   */\n      0x00\n        /* \"#utility.yul\":2302:2368   */\n      tag_207\n        /* \"#utility.yul\":2318:2367   */\n      tag_208\n        /* \"#utility.yul\":2360:2366   */\n      dup5\n        /* \"#utility.yul\":2318:2367   */\n      tag_128\n      jump\t// in\n    tag_208:\n        /* \"#utility.yul\":2302:2368   */\n      tag_127\n      jump\t// in\n    tag_207:\n        /* \"#utility.yul\":2293:2368   */\n      swap1\n      pop\n        /* \"#utility.yul\":2391:2397   */\n      dup3\n        /* \"#utility.yul\":2384:2389   */\n      dup2\n        /* \"#utility.yul\":2377:2398   */\n      mstore\n        /* \"#utility.yul\":2429:2433   */\n      0x20\n        /* \"#utility.yul\":2422:2427   */\n      dup2\n        /* \"#utility.yul\":2418:2434   */\n      add\n        /* \"#utility.yul\":2467:2470   */\n      dup5\n        /* \"#utility.yul\":2458:2464   */\n      dup5\n        /* \"#utility.yul\":2453:2456   */\n      dup5\n        /* \"#utility.yul\":2449:2465   */\n      add\n        /* \"#utility.yul\":2446:2471   */\n      gt\n        /* \"#utility.yul\":2443:2555   */\n      iszero\n      tag_209\n      jumpi\n        /* \"#utility.yul\":2474:2553   */\n      tag_210\n      tag_123\n      jump\t// in\n    tag_210:\n        /* \"#utility.yul\":2443:2555   */\n    tag_209:\n        /* \"#utility.yul\":2564:2618   */\n      tag_211\n        /* \"#utility.yul\":2611:2617   */\n      dup5\n        /* \"#utility.yul\":2606:2609   */\n      dup3\n        /* \"#utility.yul\":2601:2604   */\n      dup6\n        /* \"#utility.yul\":2564:2618   */\n      tag_129\n      jump\t// in\n    tag_211:\n        /* \"#utility.yul\":2283:2624   */\n      pop\n        /* \"#utility.yul\":2199:2624   */\n      swap4\n      swap3\n      pop\n      pop\n      pop\n      jump\t// out\n        /* \"#utility.yul\":2644:2984   */\n    tag_131:\n        /* \"#utility.yul\":2700:2705   */\n      0x00\n        /* \"#utility.yul\":2749:2752   */\n      dup3\n        /* \"#utility.yul\":2742:2746   */\n      0x1f\n        /* \"#utility.yul\":2734:2740   */\n      dup4\n        /* \"#utility.yul\":2730:2747   */\n      add\n        /* \"#utility.yul\":2726:2753   */\n      slt\n        /* \"#utility.yul\":2716:2838   */\n      tag_213\n      jumpi\n        /* \"#utility.yul\":2757:2836   */\n      tag_214\n      tag_122\n      jump\t// in\n    tag_214:\n        /* \"#utility.yul\":2716:2838   */\n    tag_213:\n        /* \"#utility.yul\":2874:2880   */\n      dup2\n        /* \"#utility.yul\":2861:2881   */\n      calldataload\n        /* \"#utility.yul\":2899:2978   */\n      tag_215\n        /* \"#utility.yul\":2974:2977   */\n      dup5\n        /* \"#utility.yul\":2966:2972   */\n      dup3\n        /* \"#utility.yul\":2959:2963   */\n      0x20\n        /* \"#utility.yul\":2951:2957   */\n      dup7\n        /* \"#utility.yul\":2947:2964   */\n      add\n        /* \"#utility.yul\":2899:2978   */\n      tag_130\n      jump\t// in\n    tag_215:\n        /* \"#utility.yul\":2890:2978   */\n      swap2\n      pop\n        /* \"#utility.yul\":2706:2984   */\n      pop\n        /* \"#utility.yul\":2644:2984   */\n      swap3\n      swap2\n      pop\n      pop\n      jump\t// out\n        /* \"#utility.yul\":2990:3116   */\n    tag_132:\n        /* \"#utility.yul\":3027:3034   */\n      0x00\n        /* \"#utility.yul\":3067:3109   */\n      0xffffffffffffffffffffffffffffffffffffffff\n        /* \"#utility.yul\":3060:3065   */\n      dup3\n        /* \"#utility.yul\":3056:3110   */\n      and\n        /* \"#utility.yul\":3045:3110   */\n      swap1\n      pop\n        /* \"#utility.yul\":2990:3116   */\n      swap2\n      swap1\n      pop\n      jump\t// out\n        /* \"#utility.yul\":3122:3226   */\n    tag_133:\n        /* \"#utility.yul\":3167:3174   */\n      0x00\n        /* \"#utility.yul\":3196:3220   */\n      tag_218\n        /* \"#utility.yul\":3214:3219   */\n      dup3\n        /* \"#utility.yul\":3196:3220   */\n      tag_132\n      jump\t// in\n    tag_218:\n        /* \"#utility.yul\":3185:3220   */\n      swap1\n      pop\n        /* \"#utility.yul\":3122:3226   */\n      swap2\n      swap1\n      pop\n      jump\t// out\n        /* \"#utility.yul\":3232:3370   */\n    tag_134:\n        /* \"#utility.yul\":3313:3345   */\n      tag_220\n        /* \"#utility.yul\":3339:3344   */\n      dup2\n        /* \"#utility.yul\":3313:3345   */\n      tag_133\n      jump\t// in\n    tag_220:\n        /* \"#utility.yul\":3306:3311   */\n      dup2\n        /* \"#utility.yul\":3303:3346   */\n      eq\n        /* \"#utility.yul\":3293:3364   */\n      tag_221\n      jumpi\n        /* \"#utility.yul\":3360:3361   */\n      0x00\n        /* \"#utility.yul\":3357:3358   */\n      dup1\n        /* \"#utility.yul\":3350:3362   */\n      revert\n        /* \"#utility.yul\":3293:3364   */\n    tag_221:\n        /* \"#utility.yul\":3232:3370   */\n      pop\n      jump\t// out\n        /* \"#utility.yul\":3376:3531   */\n    tag_135:\n        /* \"#utility.yul\":3430:3435   */\n      0x00\n        /* \"#utility.yul\":3468:3474   */\n      dup2\n        /* \"#utility.yul\":3455:3475   */\n      calldataload\n        /* \"#utility.yul\":3446:3475   */\n      swap1\n      pop\n        /* \"#utility.yul\":3484:3525   */\n      tag_223\n        /* \"#utility.yul\":3519:3524   */\n      dup2\n        /* \"#utility.yul\":3484:3525   */\n      tag_134\n      jump\t// in\n    tag_223:\n        /* \"#utility.yul\":3376:3531   */\n      swap3\n      swap2\n      pop\n      pop\n      jump\t// out\n        /* \"#utility.yul\":3537:3659   */\n    tag_136:\n        /* \"#utility.yul\":3610:3634   */\n      tag_225\n        /* \"#utility.yul\":3628:3633   */\n      dup2\n        /* \"#utility.yul\":3610:3634   */\n      tag_117\n      jump\t// in\n    tag_225:\n        /* \"#utility.yul\":3603:3608   */\n      dup2\n        /* \"#utility.yul\":3600:3635   */\n      eq\n        /* \"#utility.yul\":3590:3653   */\n      tag_226\n      jumpi\n        /* \"#utility.yul\":3649:3650   */\n      0x00\n        /* \"#utility.yul\":3646:3647   */\n      dup1\n        /* \"#utility.yul\":3639:3651   */\n      revert\n        /* \"#utility.yul\":3590:3653   */\n    tag_226:\n        /* \"#utility.yul\":3537:3659   */\n      pop\n      jump\t// out\n        /* \"#utility.yul\":3665:3804   */\n    tag_137:\n        /* \"#utility.yul\":3711:3716   */\n      0x00\n        /* \"#utility.yul\":3749:3755   */\n      dup2\n        /* \"#utility.yul\":3736:3756   */\n      calldataload\n        /* \"#utility.yul\":3727:3756   */\n      swap1\n      pop\n        /* \"#utility.yul\":3765:3798   */\n      tag_228\n        /* \"#utility.yul\":3792:3797   */\n      dup2\n        /* \"#utility.yul\":3765:3798   */\n      tag_136\n      jump\t// in\n    tag_228:\n        /* \"#utility.yul\":3665:3804   */\n      swap3\n      swap2\n      pop\n      pop\n      jump\t// out\n        /* \"#utility.yul\":3810:4625   */\n    tag_23:\n        /* \"#utility.yul\":3905:3911   */\n      0x00\n        /* \"#utility.yul\":3913:3919   */\n      dup1\n        /* \"#utility.yul\":3921:3927   */\n      0x00\n        /* \"#utility.yul\":3970:3972   */\n      0x60\n        /* \"#utility.yul\":3958:3967   */\n      dup5\n        /* \"#utility.yul\":3949:3956   */\n      dup7\n        /* \"#utility.yul\":3945:3968   */\n      sub\n        /* \"#utility.yul\":3941:3973   */\n      slt\n        /* \"#utility.yul\":3938:4057   */\n      iszero\n      tag_230\n      jumpi\n        /* \"#utility.yul\":3976:4055   */\n      tag_231\n      tag_120\n      jump\t// in\n    tag_231:\n        /* \"#utility.yul\":3938:4057   */\n    tag_230:\n        /* \"#utility.yul\":4124:4125   */\n      0x00\n        /* \"#utility.yul\":4113:4122   */\n      dup5\n        /* \"#utility.yul\":4109:4126   */\n      add\n        /* \"#utility.yul\":4096:4127   */\n      calldataload\n        /* \"#utility.yul\":4154:4172   */\n      0xffffffffffffffff\n        /* \"#utility.yul\":4146:4152   */\n      dup2\n        /* \"#utility.yul\":4143:4173   */\n      gt\n        /* \"#utility.yul\":4140:4257   */\n      iszero\n      tag_232\n      jumpi\n        /* \"#utility.yul\":4176:4255   */\n      tag_233\n      tag_121\n      jump\t// in\n    tag_233:\n        /* \"#utility.yul\":4140:4257   */\n    tag_232:\n        /* \"#utility.yul\":4281:4344   */\n      tag_234\n        /* \"#utility.yul\":4336:4343   */\n      dup7\n        /* \"#utility.yul\":4327:4333   */\n      dup3\n        /* \"#utility.yul\":4316:4325   */\n      dup8\n        /* \"#utility.yul\":4312:4334   */\n      add\n        /* \"#utility.yul\":4281:4344   */\n      tag_131\n      jump\t// in\n    tag_234:\n        /* \"#utility.yul\":4271:4344   */\n      swap4\n      pop\n        /* \"#utility.yul\":4067:4354   */\n      pop\n        /* \"#utility.yul\":4393:4395   */\n      0x20\n        /* \"#utility.yul\":4419:4480   */\n      tag_235\n        /* \"#utility.yul\":4472:4479   */\n      dup7\n        /* \"#utility.yul\":4463:4469   */\n      dup3\n        /* \"#utility.yul\":4452:4461   */\n      dup8\n        /* \"#utility.yul\":4448:4470   */\n      add\n        /* \"#utility.yul\":4419:4480   */\n      tag_135\n      jump\t// in\n    tag_235:\n        /* \"#utility.yul\":4409:4480   */\n      swap3\n      pop\n        /* \"#utility.yul\":4364:4490   */\n      pop\n        /* \"#utility.yul\":4529:4531   */\n      0x40\n        /* \"#utility.yul\":4555:4608   */\n      tag_236\n        /* \"#utility.yul\":4600:4607   */\n      dup7\n        /* \"#utility.yul\":4591:4597   */\n      dup3\n        /* \"#utility.yul\":4580:4589   */\n      dup8\n        /* \"#utility.yul\":4576:4598   */\n      add\n        /* \"#utility.yul\":4555:4608   */\n      tag_137\n      jump\t// in\n    tag_236:\n        /* \"#utility.yul\":4545:4608   */\n      swap2\n      pop\n        /* \"#utility.yul\":4500:4618   */\n      pop\n        /* \"#utility.yul\":3810:4625   */\n      swap3\n      pop\n      swap3\n      pop\n      swap3\n      jump\t// out\n        /* \"#utility.yul\":4631:4727   */\n    tag_138:\n        /* \"#utility.yul\":4668:4675   */\n      0x00\n        /* \"#utility.yul\":4697:4721   */\n      tag_238\n        /* \"#utility.yul\":4715:4720   */\n      dup3\n        /* \"#utility.yul\":4697:4721   */\n      tag_132\n      jump\t// in\n    tag_238:\n        /* \"#utility.yul\":4686:4721   */\n      swap1\n      pop\n        /* \"#utility.yul\":4631:4727   */\n      swap2\n      swap1\n      pop\n      jump\t// out\n        /* \"#utility.yul\":4733:4855   */\n    tag_139:\n        /* \"#utility.yul\":4806:4830   */\n      tag_240\n        /* \"#utility.yul\":4824:4829   */\n      dup2\n        /* \"#utility.yul\":4806:4830   */\n      tag_138\n      jump\t// in\n    tag_240:\n        /* \"#utility.yul\":4799:4804   */\n      dup2\n        /* \"#utility.yul\":4796:4831   */\n      eq\n        /* \"#utility.yul\":4786:4849   */\n      tag_241\n      jumpi\n        /* \"#utility.yul\":4845:4846   */\n      0x00\n        /* \"#utility.yul\":4842:4843   */\n      dup1\n        /* \"#utility.yul\":4835:4847   */\n      revert\n        /* \"#utility.yul\":4786:4849   */\n    tag_241:\n        /* \"#utility.yul\":4733:4855   */\n      pop\n      jump\t// out\n        /* \"#utility.yul\":4861:5000   */\n    tag_140:\n        /* \"#utility.yul\":4907:4912   */\n      0x00\n        /* \"#utility.yul\":4945:4951   */\n      dup2\n        /* \"#utility.yul\":4932:4952   */\n      calldataload\n        /* \"#utility.yul\":4923:4952   */\n      swap1\n      pop\n        /* \"#utility.yul\":4961:4994   */\n      tag_243\n        /* \"#utility.yul\":4988:4993   */\n      dup2\n        /* \"#utility.yul\":4961:4994   */\n      tag_139\n      jump\t// in\n    tag_243:\n        /* \"#utility.yul\":4861:5000   */\n      swap3\n      swap2\n      pop\n      pop\n      jump\t// out\n        /* \"#utility.yul\":5006:5335   */\n    tag_32:\n        /* \"#utility.yul\":5065:5071   */\n      0x00\n        /* \"#utility.yul\":5114:5116   */\n      0x20\n        /* \"#utility.yul\":5102:5111   */\n      dup3\n        /* \"#utility.yul\":5093:5100   */\n      dup5\n        /* \"#utility.yul\":5089:5112   */\n      sub\n        /* \"#utility.yul\":5085:5117   */\n      slt\n        /* \"#utility.yul\":5082:5201   */\n      iszero\n      tag_245\n      jumpi\n        /* \"#utility.yul\":5120:5199   */\n      tag_246\n      tag_120\n      jump\t// in\n    tag_246:\n        /* \"#utility.yul\":5082:5201   */\n    tag_245:\n        /* \"#utility.yul\":5240:5241   */\n      0x00\n        /* \"#utility.yul\":5265:5318   */\n      tag_247\n        /* \"#utility.yul\":5310:5317   */\n      dup5\n        /* \"#utility.yul\":5301:5307   */\n      dup3\n        /* \"#utility.yul\":5290:5299   */\n      dup6\n        /* \"#utility.yul\":5286:5308   */\n      add\n        /* \"#utility.yul\":5265:5318   */\n      tag_140\n      jump\t// in\n    tag_247:\n        /* \"#utility.yul\":5255:5318   */\n      swap2\n      pop\n        /* \"#utility.yul\":5211:5328   */\n      pop\n        /* \"#utility.yul\":5006:5335   */\n      swap3\n      swap2\n      pop\n      pop\n      jump\t// out\n        /* \"#utility.yul\":5341:5459   */\n    tag_141:\n        /* \"#utility.yul\":5428:5452   */\n      tag_249\n        /* \"#utility.yul\":5446:5451   */\n      dup2\n        /* \"#utility.yul\":5428:5452   */\n      tag_138\n      jump\t// in\n    tag_249:\n        /* \"#utility.yul\":5423:5426   */\n      dup3\n        /* \"#utility.yul\":5416:5453   */\n      mstore\n        /* \"#utility.yul\":5341:5459   */\n      pop\n      pop\n      jump\t// out\n        /* \"#utility.yul\":5465:5687   */\n    tag_39:\n        /* \"#utility.yul\":5558:5562   */\n      0x00\n        /* \"#utility.yul\":5596:5598   */\n      0x20\n        /* \"#utility.yul\":5585:5594   */\n      dup3\n        /* \"#utility.yul\":5581:5599   */\n      add\n        /* \"#utility.yul\":5573:5599   */\n      swap1\n      pop\n        /* \"#utility.yul\":5609:5680   */\n      tag_251\n        /* \"#utility.yul\":5677:5678   */\n      0x00\n        /* \"#utility.yul\":5666:5675   */\n      dup4\n        /* \"#utility.yul\":5662:5679   */\n      add\n        /* \"#utility.yul\":5653:5659   */\n      dup5\n        /* \"#utility.yul\":5609:5680   */\n      tag_141\n      jump\t// in\n    tag_251:\n        /* \"#utility.yul\":5465:5687   */\n      swap3\n      swap2\n      pop\n      pop\n      jump\t// out\n        /* \"#utility.yul\":5693:6022   */\n    tag_43:\n        /* \"#utility.yul\":5752:5758   */\n      0x00\n        /* \"#utility.yul\":5801:5803   */\n      0x20\n        /* \"#utility.yul\":5789:5798   */\n      dup3\n        /* \"#utility.yul\":5780:5787   */\n      dup5\n        /* \"#utility.yul\":5776:5799   */\n      sub\n        /* \"#utility.yul\":5772:5804   */\n      slt\n        /* \"#utility.yul\":5769:5888   */\n      iszero\n      tag_253\n      jumpi\n        /* \"#utility.yul\":5807:5886   */\n      tag_254\n      tag_120\n      jump\t// in\n    tag_254:\n        /* \"#utility.yul\":5769:5888   */\n    tag_253:\n        /* \"#utility.yul\":5927:5928   */\n      0x00\n        /* \"#utility.yul\":5952:6005   */\n      tag_255\n        /* \"#utility.yul\":5997:6004   */\n      dup5\n        /* \"#utility.yul\":5988:5994   */\n      dup3\n        /* \"#utility.yul\":5977:5986   */\n      dup6\n        /* \"#utility.yul\":5973:5995   */\n      add\n        /* \"#utility.yul\":5952:6005   */\n      tag_137\n      jump\t// in\n    tag_255:\n        /* \"#utility.yul\":5942:6005   */\n      swap2\n      pop\n        /* \"#utility.yul\":5898:6015   */\n      pop\n        /* \"#utility.yul\":5693:6022   */\n      swap3\n      swap2\n      pop\n      pop\n      jump\t// out\n        /* \"#utility.yul\":6028:6127   */\n    tag_142:\n        /* \"#utility.yul\":6080:6086   */\n      0x00\n        /* \"#utility.yul\":6114:6119   */\n      dup2\n        /* \"#utility.yul\":6108:6120   */\n      mload\n        /* \"#utility.yul\":6098:6120   */\n      swap1\n      pop\n        /* \"#utility.yul\":6028:6127   */\n      swap2\n      swap1\n      pop\n      jump\t// out\n        /* \"#utility.yul\":6133:6302   */\n    tag_143:\n        /* \"#utility.yul\":6217:6228   */\n      0x00\n        /* \"#utility.yul\":6251:6257   */\n      dup3\n        /* \"#utility.yul\":6246:6249   */\n      dup3\n        /* \"#utility.yul\":6239:6258   */\n      mstore\n        /* \"#utility.yul\":6291:6295   */\n      0x20\n        /* \"#utility.yul\":6286:6289   */\n      dup3\n        /* \"#utility.yul\":6282:6296   */\n      add\n        /* \"#utility.yul\":6267:6296   */\n      swap1\n      pop\n        /* \"#utility.yul\":6133:6302   */\n      swap3\n      swap2\n      pop\n      pop\n      jump\t// out\n        /* \"#utility.yul\":6308:6447   */\n    tag_144:\n        /* \"#utility.yul\":6397:6403   */\n      dup3\n        /* \"#utility.yul\":6392:6395   */\n      dup2\n        /* \"#utility.yul\":6387:6390   */\n      dup4\n        /* \"#utility.yul\":6381:6404   */\n      mcopy\n        /* \"#utility.yul\":6438:6439   */\n      0x00\n        /* \"#utility.yul\":6429:6435   */\n      dup4\n        /* \"#utility.yul\":6424:6427   */\n      dup4\n        /* \"#utility.yul\":6420:6436   */\n      add\n        /* \"#utility.yul\":6413:6440   */\n      mstore\n        /* \"#utility.yul\":6308:6447   */\n      pop\n      pop\n      pop\n      jump\t// out\n        /* \"#utility.yul\":6453:6830   */\n    tag_145:\n        /* \"#utility.yul\":6541:6544   */\n      0x00\n        /* \"#utility.yul\":6569:6608   */\n      tag_260\n        /* \"#utility.yul\":6602:6607   */\n      dup3\n        /* \"#utility.yul\":6569:6608   */\n      tag_142\n      jump\t// in\n    tag_260:\n        /* \"#utility.yul\":6624:6695   */\n      tag_261\n        /* \"#utility.yul\":6688:6694   */\n      dup2\n        /* \"#utility.yul\":6683:6686   */\n      dup6\n        /* \"#utility.yul\":6624:6695   */\n      tag_143\n      jump\t// in\n    tag_261:\n        /* \"#utility.yul\":6617:6695   */\n      swap4\n      pop\n        /* \"#utility.yul\":6704:6769   */\n      tag_262\n        /* \"#utility.yul\":6762:6768   */\n      dup2\n        /* \"#utility.yul\":6757:6760   */\n      dup6\n        /* \"#utility.yul\":6750:6754   */\n      0x20\n        /* \"#utility.yul\":6743:6748   */\n      dup7\n        /* \"#utility.yul\":6739:6755   */\n      add\n        /* \"#utility.yul\":6704:6769   */\n      tag_144\n      jump\t// in\n    tag_262:\n        /* \"#utility.yul\":6794:6823   */\n      tag_263\n        /* \"#utility.yul\":6816:6822   */\n      dup2\n        /* \"#utility.yul\":6794:6823   */\n      tag_124\n      jump\t// in\n    tag_263:\n        /* \"#utility.yul\":6789:6792   */\n      dup5\n        /* \"#utility.yul\":6785:6824   */\n      add\n        /* \"#utility.yul\":6778:6824   */\n      swap2\n      pop\n        /* \"#utility.yul\":6545:6830   */\n      pop\n        /* \"#utility.yul\":6453:6830   */\n      swap3\n      swap2\n      pop\n      pop\n      jump\t// out\n        /* \"#utility.yul\":6836:6978   */\n    tag_146:\n        /* \"#utility.yul\":6939:6971   */\n      tag_265\n        /* \"#utility.yul\":6965:6970   */\n      dup2\n        /* \"#utility.yul\":6939:6971   */\n      tag_133\n      jump\t// in\n    tag_265:\n        /* \"#utility.yul\":6934:6937   */\n      dup3\n        /* \"#utility.yul\":6927:6972   */\n      mstore\n        /* \"#utility.yul\":6836:6978   */\n      pop\n      pop\n      jump\t// out\n        /* \"#utility.yul\":6984:7074   */\n    tag_147:\n        /* \"#utility.yul\":7018:7025   */\n      0x00\n        /* \"#utility.yul\":7061:7066   */\n      dup2\n        /* \"#utility.yul\":7054:7067   */\n      iszero\n        /* \"#utility.yul\":7047:7068   */\n      iszero\n        /* \"#utility.yul\":7036:7068   */\n      swap1\n      pop\n        /* \"#utility.yul\":6984:7074   */\n      swap2\n      swap1\n      pop\n      jump\t// out\n        /* \"#utility.yul\":7080:7189   */\n    tag_148:\n        /* \"#utility.yul\":7161:7182   */\n      tag_268\n        /* \"#utility.yul\":7176:7181   */\n      dup2\n        /* \"#utility.yul\":7161:7182   */\n      tag_147\n      jump\t// in\n    tag_268:\n        /* \"#utility.yul\":7156:7159   */\n      dup3\n        /* \"#utility.yul\":7149:7183   */\n      mstore\n        /* \"#utility.yul\":7080:7189   */\n      pop\n      pop\n      jump\t// out\n        /* \"#utility.yul\":7195:7859   */\n    tag_53:\n        /* \"#utility.yul\":7402:7406   */\n      0x00\n        /* \"#utility.yul\":7440:7443   */\n      0x80\n        /* \"#utility.yul\":7429:7438   */\n      dup3\n        /* \"#utility.yul\":7425:7444   */\n      add\n        /* \"#utility.yul\":7417:7444   */\n      swap1\n      pop\n        /* \"#utility.yul\":7490:7499   */\n      dup2\n        /* \"#utility.yul\":7484:7488   */\n      dup2\n        /* \"#utility.yul\":7480:7500   */\n      sub\n        /* \"#utility.yul\":7476:7477   */\n      0x00\n        /* \"#utility.yul\":7465:7474   */\n      dup4\n        /* \"#utility.yul\":7461:7478   */\n      add\n        /* \"#utility.yul\":7454:7501   */\n      mstore\n        /* \"#utility.yul\":7518:7596   */\n      tag_270\n        /* \"#utility.yul\":7591:7595   */\n      dup2\n        /* \"#utility.yul\":7582:7588   */\n      dup8\n        /* \"#utility.yul\":7518:7596   */\n      tag_145\n      jump\t// in\n    tag_270:\n        /* \"#utility.yul\":7510:7596   */\n      swap1\n      pop\n        /* \"#utility.yul\":7606:7694   */\n      tag_271\n        /* \"#utility.yul\":7690:7692   */\n      0x20\n        /* \"#utility.yul\":7679:7688   */\n      dup4\n        /* \"#utility.yul\":7675:7693   */\n      add\n        /* \"#utility.yul\":7666:7672   */\n      dup7\n        /* \"#utility.yul\":7606:7694   */\n      tag_146\n      jump\t// in\n    tag_271:\n        /* \"#utility.yul\":7704:7776   */\n      tag_272\n        /* \"#utility.yul\":7772:7774   */\n      0x40\n        /* \"#utility.yul\":7761:7770   */\n      dup4\n        /* \"#utility.yul\":7757:7775   */\n      add\n        /* \"#utility.yul\":7748:7754   */\n      dup6\n        /* \"#utility.yul\":7704:7776   */\n      tag_118\n      jump\t// in\n    tag_272:\n        /* \"#utility.yul\":7786:7852   */\n      tag_273\n        /* \"#utility.yul\":7848:7850   */\n      0x60\n        /* \"#utility.yul\":7837:7846   */\n      dup4\n        /* \"#utility.yul\":7833:7851   */\n      add\n        /* \"#utility.yul\":7824:7830   */\n      dup5\n        /* \"#utility.yul\":7786:7852   */\n      tag_148\n      jump\t// in\n    tag_273:\n        /* \"#utility.yul\":7195:7859   */\n      swap6\n      swap5\n      pop\n      pop\n      pop\n      pop\n      pop\n      jump\t// out\n        /* \"#utility.yul\":7865:8101   */\n    tag_149:\n        /* \"#utility.yul\":8005:8039   */\n      0x536f6c6f20656c2061646d696e6973747261646f7220707565646520656a6563\n        /* \"#utility.yul\":8001:8002   */\n      0x00\n        /* \"#utility.yul\":7993:7999   */\n      dup3\n        /* \"#utility.yul\":7989:8003   */\n      add\n        /* \"#utility.yul\":7982:8040   */\n      mstore\n        /* \"#utility.yul\":8074:8093   */\n      0x7574617220657374612066756e63696f6e000000000000000000000000000000\n        /* \"#utility.yul\":8069:8071   */\n      0x20\n        /* \"#utility.yul\":8061:8067   */\n      dup3\n        /* \"#utility.yul\":8057:8072   */\n      add\n        /* \"#utility.yul\":8050:8094   */\n      mstore\n        /* \"#utility.yul\":7865:8101   */\n      pop\n      jump\t// out\n        /* \"#utility.yul\":8107:8473   */\n    tag_150:\n        /* \"#utility.yul\":8249:8252   */\n      0x00\n        /* \"#utility.yul\":8270:8337   */\n      tag_276\n        /* \"#utility.yul\":8334:8336   */\n      0x31\n        /* \"#utility.yul\":8329:8332   */\n      dup4\n        /* \"#utility.yul\":8270:8337   */\n      tag_143\n      jump\t// in\n    tag_276:\n        /* \"#utility.yul\":8263:8337   */\n      swap2\n      pop\n        /* \"#utility.yul\":8346:8439   */\n      tag_277\n        /* \"#utility.yul\":8435:8438   */\n      dup3\n        /* \"#utility.yul\":8346:8439   */\n      tag_149\n      jump\t// in\n    tag_277:\n        /* \"#utility.yul\":8464:8466   */\n      0x40\n        /* \"#utility.yul\":8459:8462   */\n      dup3\n        /* \"#utility.yul\":8455:8467   */\n      add\n        /* \"#utility.yul\":8448:8467   */\n      swap1\n      pop\n        /* \"#utility.yul\":8107:8473   */\n      swap2\n      swap1\n      pop\n      jump\t// out\n        /* \"#utility.yul\":8479:8898   */\n    tag_72:\n        /* \"#utility.yul\":8645:8649   */\n      0x00\n        /* \"#utility.yul\":8683:8685   */\n      0x20\n        /* \"#utility.yul\":8672:8681   */\n      dup3\n        /* \"#utility.yul\":8668:8686   */\n      add\n        /* \"#utility.yul\":8660:8686   */\n      swap1\n      pop\n        /* \"#utility.yul\":8732:8741   */\n      dup2\n        /* \"#utility.yul\":8726:8730   */\n      dup2\n        /* \"#utility.yul\":8722:8742   */\n      sub\n        /* \"#utility.yul\":8718:8719   */\n      0x00\n        /* \"#utility.yul\":8707:8716   */\n      dup4\n        /* \"#utility.yul\":8703:8720   */\n      add\n        /* \"#utility.yul\":8696:8743   */\n      mstore\n        /* \"#utility.yul\":8760:8891   */\n      tag_279\n        /* \"#utility.yul\":8886:8890   */\n      dup2\n        /* \"#utility.yul\":8760:8891   */\n      tag_150\n      jump\t// in\n    tag_279:\n        /* \"#utility.yul\":8752:8891   */\n      swap1\n      pop\n        /* \"#utility.yul\":8479:8898   */\n      swap2\n      swap1\n      pop\n      jump\t// out\n        /* \"#utility.yul\":8904:9084   */\n    tag_151:\n        /* \"#utility.yul\":8952:9029   */\n      0x4e487b7100000000000000000000000000000000000000000000000000000000\n        /* \"#utility.yul\":8949:8950   */\n      0x00\n        /* \"#utility.yul\":8942:9030   */\n      mstore\n        /* \"#utility.yul\":9049:9053   */\n      0x11\n        /* \"#utility.yul\":9046:9047   */\n      0x04\n        /* \"#utility.yul\":9039:9054   */\n      mstore\n        /* \"#utility.yul\":9073:9077   */\n      0x24\n        /* \"#utility.yul\":9070:9071   */\n      0x00\n        /* \"#utility.yul\":9063:9078   */\n      revert\n        /* \"#utility.yul\":9090:9323   */\n    tag_75:\n        /* \"#utility.yul\":9129:9132   */\n      0x00\n        /* \"#utility.yul\":9152:9176   */\n      tag_282\n        /* \"#utility.yul\":9170:9175   */\n      dup3\n        /* \"#utility.yul\":9152:9176   */\n      tag_117\n      jump\t// in\n    tag_282:\n        /* \"#utility.yul\":9143:9176   */\n      swap2\n      pop\n        /* \"#utility.yul\":9198:9264   */\n      0xffffffffffffffffffffffffffffffffffffffffffffffffffffffffffffffff\n        /* \"#utility.yul\":9191:9196   */\n      dup3\n        /* \"#utility.yul\":9188:9265   */\n      sub\n        /* \"#utility.yul\":9185:9288   */\n      tag_283\n      jumpi\n        /* \"#utility.yul\":9268:9286   */\n      tag_284\n      tag_151\n      jump\t// in\n    tag_284:\n        /* \"#utility.yul\":9185:9288   */\n    tag_283:\n        /* \"#utility.yul\":9315:9316   */\n      0x01\n        /* \"#utility.yul\":9308:9313   */\n      dup3\n        /* \"#utility.yul\":9304:9317   */\n      add\n        /* \"#utility.yul\":9297:9317   */\n      swap1\n      pop\n        /* \"#utility.yul\":9090:9323   */\n      swap2\n      swap1\n      pop\n      jump\t// out\n        /* \"#utility.yul\":9329:9509   */\n    tag_152:\n        /* \"#utility.yul\":9377:9454   */\n      0x4e487b7100000000000000000000000000000000000000000000000000000000\n        /* \"#utility.yul\":9374:9375   */\n      0x00\n        /* \"#utility.yul\":9367:9455   */\n      mstore\n        /* \"#utility.yul\":9474:9478   */\n      0x22\n        /* \"#utility.yul\":9471:9472   */\n      0x04\n        /* \"#utility.yul\":9464:9479   */\n      mstore\n        /* \"#utility.yul\":9498:9502   */\n      0x24\n        /* \"#utility.yul\":9495:9496   */\n      0x00\n        /* \"#utility.yul\":9488:9503   */\n      revert\n        /* \"#utility.yul\":9515:9835   */\n    tag_105:\n        /* \"#utility.yul\":9559:9565   */\n      0x00\n        /* \"#utility.yul\":9596:9597   */\n      0x02\n        /* \"#utility.yul\":9590:9594   */\n      dup3\n        /* \"#utility.yul\":9586:9598   */\n      div\n        /* \"#utility.yul\":9576:9598   */\n      swap1\n      pop\n        /* \"#utility.yul\":9643:9644   */\n      0x01\n        /* \"#utility.yul\":9637:9641   */\n      dup3\n        /* \"#utility.yul\":9633:9645   */\n      and\n        /* \"#utility.yul\":9664:9682   */\n      dup1\n        /* \"#utility.yul\":9654:9735   */\n      tag_287\n      jumpi\n        /* \"#utility.yul\":9720:9724   */\n      0x7f\n        /* \"#utility.yul\":9712:9718   */\n      dup3\n        /* \"#utility.yul\":9708:9725   */\n      and\n        /* \"#utility.yul\":9698:9725   */\n      swap2\n      pop\n        /* \"#utility.yul\":9654:9735   */\n    tag_287:\n        /* \"#utility.yul\":9782:9784   */\n      0x20\n        /* \"#utility.yul\":9774:9780   */\n      dup3\n        /* \"#utility.yul\":9771:9785   */\n      lt\n        /* \"#utility.yul\":9751:9769   */\n      dup2\n        /* \"#utility.yul\":9748:9786   */\n      sub\n        /* \"#utility.yul\":9745:9829   */\n      tag_288\n      jumpi\n        /* \"#utility.yul\":9801:9819   */\n      tag_289\n      tag_152\n      jump\t// in\n    tag_289:\n        /* \"#utility.yul\":9745:9829   */\n    tag_288:\n        /* \"#utility.yul\":9566:9835   */\n      pop\n        /* \"#utility.yul\":9515:9835   */\n      swap2\n      swap1\n      pop\n      jump\t// out\n        /* \"#utility.yul\":9841:9982   */\n    tag_153:\n        /* \"#utility.yul\":9890:9894   */\n      0x00\n        /* \"#utility.yul\":9913:9916   */\n      dup2\n        /* \"#utility.yul\":9905:9916   */\n      swap1\n      pop\n        /* \"#utility.yul\":9936:9939   */\n      dup2\n        /* \"#utility.yul\":9933:9934   */\n      0x00\n        /* \"#utility.yul\":9926:9940   */\n      mstore\n        /* \"#utility.yul\":9970:9974   */\n      0x20\n        /* \"#utility.yul\":9967:9968   */\n      0x00\n        /* \"#utility.yul\":9957:9975   */\n      keccak256\n        /* \"#utility.yul\":9949:9975   */\n      swap1\n      pop\n        /* \"#utility.yul\":9841:9982   */\n      swap2\n      swap1\n      pop\n      jump\t// out\n        /* \"#utility.yul\":9988:10081   */\n    tag_154:\n        /* \"#utility.yul\":10025:10031   */\n      0x00\n        /* \"#utility.yul\":10072:10074   */\n      0x20\n        /* \"#utility.yul\":10067:10069   */\n      0x1f\n        /* \"#utility.yul\":10060:10065   */\n      dup4\n        /* \"#utility.yul\":10056:10070   */\n      add\n        /* \"#utility.yul\":10052:10075   */\n      div\n        /* \"#utility.yul\":10042:10075   */\n      swap1\n      pop\n        /* \"#utility.yul\":9988:10081   */\n      swap2\n      swap1\n      pop\n      jump\t// out\n        /* \"#utility.yul\":10087:10194   */\n    tag_155:\n        /* \"#utility.yul\":10131:10139   */\n      0x00\n        /* \"#utility.yul\":10181:10186   */\n      dup3\n        /* \"#utility.yul\":10175:10179   */\n      dup3\n        /* \"#utility.yul\":10171:10187   */\n      shl\n        /* \"#utility.yul\":10150:10187   */\n      swap1\n      pop\n        /* \"#utility.yul\":10087:10194   */\n      swap3\n      swap2\n      pop\n      pop\n      jump\t// out\n        /* \"#utility.yul\":10200:10593   */\n    tag_156:\n        /* \"#utility.yul\":10269:10275   */\n      0x00\n        /* \"#utility.yul\":10319:10320   */\n      0x08\n        /* \"#utility.yul\":10307:10317   */\n      dup4\n        /* \"#utility.yul\":10303:10321   */\n      mul\n        /* \"#utility.yul\":10342:10439   */\n      tag_294\n        /* \"#utility.yul\":10372:10438   */\n      0xffffffffffffffffffffffffffffffffffffffffffffffffffffffffffffffff\n        /* \"#utility.yul\":10361:10370   */\n      dup3\n        /* \"#utility.yul\":10342:10439   */\n      tag_155\n      jump\t// in\n    tag_294:\n        /* \"#utility.yul\":10460:10499   */\n      tag_295\n        /* \"#utility.yul\":10490:10498   */\n      dup7\n        /* \"#utility.yul\":10479:10488   */\n      dup4\n        /* \"#utility.yul\":10460:10499   */\n      tag_155\n      jump\t// in\n    tag_295:\n        /* \"#utility.yul\":10448:10499   */\n      swap6\n      pop\n        /* \"#utility.yul\":10532:10536   */\n      dup1\n        /* \"#utility.yul\":10528:10537   */\n      not\n        /* \"#utility.yul\":10521:10526   */\n      dup5\n        /* \"#utility.yul\":10517:10538   */\n      and\n        /* \"#utility.yul\":10508:10538   */\n      swap4\n      pop\n        /* \"#utility.yul\":10581:10585   */\n      dup1\n        /* \"#utility.yul\":10571:10579   */\n      dup7\n        /* \"#utility.yul\":10567:10586   */\n      and\n        /* \"#utility.yul\":10560:10565   */\n      dup5\n        /* \"#utility.yul\":10557:10587   */\n      or\n        /* \"#utility.yul\":10547:10587   */\n      swap3\n      pop\n        /* \"#utility.yul\":10276:10593   */\n      pop\n      pop\n        /* \"#utility.yul\":10200:10593   */\n      swap4\n      swap3\n      pop\n      pop\n      pop\n      jump\t// out\n        /* \"#utility.yul\":10599:10659   */\n    tag_157:\n        /* \"#utility.yul\":10627:10630   */\n      0x00\n        /* \"#utility.yul\":10648:10653   */\n      dup2\n        /* \"#utility.yul\":10641:10653   */\n      swap1\n      pop\n        /* \"#utility.yul\":10599:10659   */\n      swap2\n      swap1\n      pop\n      jump\t// out\n        /* \"#utility.yul\":10665:10807   */\n    tag_158:\n        /* \"#utility.yul\":10715:10724   */\n      0x00\n        /* \"#utility.yul\":10748:10801   */\n      tag_298\n        /* \"#utility.yul\":10766:10800   */\n      tag_299\n        /* \"#utility.yul\":10775:10799   */\n      tag_300\n        /* \"#utility.yul\":10793:10798   */\n      dup5\n        /* \"#utility.yul\":10775:10799   */\n      tag_117\n      jump\t// in\n    tag_300:\n        /* \"#utility.yul\":10766:10800   */\n      tag_157\n      jump\t// in\n    tag_299:\n        /* \"#utility.yul\":10748:10801   */\n      tag_117\n      jump\t// in\n    tag_298:\n        /* \"#utility.yul\":10735:10801   */\n      swap1\n      pop\n        /* \"#utility.yul\":10665:10807   */\n      swap2\n      swap1\n      pop\n      jump\t// out\n        /* \"#utility.yul\":10813:10888   */\n    tag_159:\n        /* \"#utility.yul\":10856:10859   */\n      0x00\n        /* \"#utility.yul\":10877:10882   */\n      dup2\n        /* \"#utility.yul\":10870:10882   */\n      swap1\n      pop\n        /* \"#utility.yul\":10813:10888   */\n      swap2\n      swap1\n      pop\n      jump\t// out\n        /* \"#utility.yul\":10894:11163   */\n    tag_160:\n        /* \"#utility.yul\":11004:11043   */\n      tag_303\n        /* \"#utility.yul\":11035:11042   */\n      dup4\n        /* \"#utility.yul\":11004:11043   */\n      tag_158\n      jump\t// in\n    tag_303:\n        /* \"#utility.yul\":11065:11156   */\n      tag_304\n        /* \"#utility.yul\":11114:11155   */\n      tag_305\n        /* \"#utility.yul\":11138:11154   */\n      dup3\n        /* \"#utility.yul\":11114:11155   */\n      tag_159\n      jump\t// in\n    tag_305:\n        /* \"#utility.yul\":11106:11112   */\n      dup5\n        /* \"#utility.yul\":11099:11103   */\n      dup5\n        /* \"#utility.yul\":11093:11104   */\n      sload\n        /* \"#utility.yul\":11065:11156   */\n      tag_156\n      jump\t// in\n    tag_304:\n        /* \"#utility.yul\":11059:11063   */\n      dup3\n        /* \"#utility.yul\":11052:11157   */\n      sstore\n        /* \"#utility.yul\":10970:11163   */\n      pop\n        /* \"#utility.yul\":10894:11163   */\n      pop\n      pop\n      pop\n      jump\t// out\n        /* \"#utility.yul\":11169:11242   */\n    tag_161:\n        /* \"#utility.yul\":11214:11217   */\n      0x00\n        /* \"#utility.yul\":11169:11242   */\n      swap1\n      jump\t// out\n        /* \"#utility.yul\":11248:11437   */\n    tag_162:\n        /* \"#utility.yul\":11325:11357   */\n      tag_308\n      tag_161\n      jump\t// in\n    tag_308:\n        /* \"#utility.yul\":11366:11431   */\n      tag_309\n        /* \"#utility.yul\":11424:11430   */\n      dup2\n        /* \"#utility.yul\":11416:11422   */\n      dup5\n        /* \"#utility.yul\":11410:11414   */\n      dup5\n        /* \"#utility.yul\":11366:11431   */\n      tag_160\n      jump\t// in\n    tag_309:\n        /* \"#utility.yul\":11301:11437   */\n      pop\n        /* \"#utility.yul\":11248:11437   */\n      pop\n      pop\n      jump\t// out\n        /* \"#utility.yul\":11443:11629   */\n    tag_163:\n        /* \"#utility.yul\":11503:11623   */\n    tag_311:\n        /* \"#utility.yul\":11520:11523   */\n      dup2\n        /* \"#utility.yul\":11513:11518   */\n      dup2\n        /* \"#utility.yul\":11510:11524   */\n      lt\n        /* \"#utility.yul\":11503:11623   */\n      iszero\n      tag_313\n      jumpi\n        /* \"#utility.yul\":11574:11613   */\n      tag_314\n        /* \"#utility.yul\":11611:11612   */\n      0x00\n        /* \"#utility.yul\":11604:11609   */\n      dup3\n        /* \"#utility.yul\":11574:11613   */\n      tag_162\n      jump\t// in\n    tag_314:\n        /* \"#utility.yul\":11547:11548   */\n      0x01\n        /* \"#utility.yul\":11540:11545   */\n      dup2\n        /* \"#utility.yul\":11536:11549   */\n      add\n        /* \"#utility.yul\":11527:11549   */\n      swap1\n      pop\n        /* \"#utility.yul\":11503:11623   */\n      jump(tag_311)\n    tag_313:\n        /* \"#utility.yul\":11443:11629   */\n      pop\n      pop\n      jump\t// out\n        /* \"#utility.yul\":11635:12178   */\n    tag_164:\n        /* \"#utility.yul\":11736:11738   */\n      0x1f\n        /* \"#utility.yul\":11731:11734   */\n      dup3\n        /* \"#utility.yul\":11728:11739   */\n      gt\n        /* \"#utility.yul\":11725:12171   */\n      iszero\n      tag_316\n      jumpi\n        /* \"#utility.yul\":11770:11808   */\n      tag_317\n        /* \"#utility.yul\":11802:11807   */\n      dup2\n        /* \"#utility.yul\":11770:11808   */\n      tag_153\n      jump\t// in\n    tag_317:\n        /* \"#utility.yul\":11854:11883   */\n      tag_318\n        /* \"#utility.yul\":11872:11882   */\n      dup5\n        /* \"#utility.yul\":11854:11883   */\n      tag_154\n      jump\t// in\n    tag_318:\n        /* \"#utility.yul\":11844:11852   */\n      dup2\n        /* \"#utility.yul\":11840:11884   */\n      add\n        /* \"#utility.yul\":12037:12039   */\n      0x20\n        /* \"#utility.yul\":12025:12035   */\n      dup6\n        /* \"#utility.yul\":12022:12040   */\n      lt\n        /* \"#utility.yul\":12019:12068   */\n      iszero\n      tag_319\n      jumpi\n        /* \"#utility.yul\":12058:12066   */\n      dup2\n        /* \"#utility.yul\":12043:12066   */\n      swap1\n      pop\n        /* \"#utility.yul\":12019:12068   */\n    tag_319:\n        /* \"#utility.yul\":12081:12161   */\n      tag_320\n        /* \"#utility.yul\":12137:12159   */\n      tag_321\n        /* \"#utility.yul\":12155:12158   */\n      dup6\n        /* \"#utility.yul\":12137:12159   */\n      tag_154\n      jump\t// in\n    tag_321:\n        /* \"#utility.yul\":12127:12135   */\n      dup4\n        /* \"#utility.yul\":12123:12160   */\n      add\n        /* \"#utility.yul\":12110:12121   */\n      dup3\n        /* \"#utility.yul\":12081:12161   */\n      tag_163\n      jump\t// in\n    tag_320:\n        /* \"#utility.yul\":11740:12171   */\n      pop\n      pop\n        /* \"#utility.yul\":11725:12171   */\n    tag_316:\n        /* \"#utility.yul\":11635:12178   */\n      pop\n      pop\n      pop\n      jump\t// out\n        /* \"#utility.yul\":12184:12301   */\n    tag_165:\n        /* \"#utility.yul\":12238:12246   */\n      0x00\n        /* \"#utility.yul\":12288:12293   */\n      dup3\n        /* \"#utility.yul\":12282:12286   */\n      dup3\n        /* \"#utility.yul\":12278:12294   */\n      shr\n        /* \"#utility.yul\":12257:12294   */\n      swap1\n      pop\n        /* \"#utility.yul\":12184:12301   */\n      swap3\n      swap2\n      pop\n      pop\n      jump\t// out\n        /* \"#utility.yul\":12307:12476   */\n    tag_166:\n        /* \"#utility.yul\":12351:12357   */\n      0x00\n        /* \"#utility.yul\":12384:12435   */\n      tag_324\n        /* \"#utility.yul\":12432:12433   */\n      0x00\n        /* \"#utility.yul\":12428:12434   */\n      not\n        /* \"#utility.yul\":12420:12425   */\n      dup5\n        /* \"#utility.yul\":12417:12418   */\n      0x08\n        /* \"#utility.yul\":12413:12426   */\n      mul\n        /* \"#utility.yul\":12384:12435   */\n      tag_165\n      jump\t// in\n    tag_324:\n        /* \"#utility.yul\":12380:12436   */\n      not\n        /* \"#utility.yul\":12465:12469   */\n      dup1\n        /* \"#utility.yul\":12459:12463   */\n      dup4\n        /* \"#utility.yul\":12455:12470   */\n      and\n        /* \"#utility.yul\":12445:12470   */\n      swap2\n      pop\n        /* \"#utility.yul\":12358:12476   */\n      pop\n        /* \"#utility.yul\":12307:12476   */\n      swap3\n      swap2\n      pop\n      pop\n      jump\t// out\n        /* \"#utility.yul\":12481:12776   */\n    tag_167:\n        /* \"#utility.yul\":12557:12561   */\n      0x00\n        /* \"#utility.yul\":12703:12732   */\n      tag_326\n        /* \"#utility.yul\":12728:12731   */\n      dup4\n        /* \"#utility.yul\":12722:12726   */\n      dup4\n        /* \"#utility.yul\":12703:12732   */\n      tag_166\n      jump\t// in\n    tag_326:\n        /* \"#utility.yul\":12695:12732   */\n      swap2\n      pop\n        /* \"#utility.yul\":12765:12768   */\n      dup3\n        /* \"#utility.yul\":12762:12763   */\n      0x02\n        /* \"#utility.yul\":12758:12769   */\n      mul\n        /* \"#utility.yul\":12752:12756   */\n      dup3\n        /* \"#utility.yul\":12749:12770   */\n      or\n        /* \"#utility.yul\":12741:12770   */\n      swap1\n      pop\n        /* \"#utility.yul\":12481:12776   */\n      swap3\n      swap2\n      pop\n      pop\n      jump\t// out\n        /* \"#utility.yul\":12781:14176   */\n    tag_77:\n        /* \"#utility.yul\":12898:12935   */\n      tag_328\n        /* \"#utility.yul\":12931:12934   */\n      dup3\n        /* \"#utility.yul\":12898:12935   */\n      tag_142\n      jump\t// in\n    tag_328:\n        /* \"#utility.yul\":13000:13018   */\n      0xffffffffffffffff\n        /* \"#utility.yul\":12992:12998   */\n      dup2\n        /* \"#utility.yul\":12989:13019   */\n      gt\n        /* \"#utility.yul\":12986:13042   */\n      iszero\n      tag_329\n      jumpi\n        /* \"#utility.yul\":13022:13040   */\n      tag_330\n      tag_125\n      jump\t// in\n    tag_330:\n        /* \"#utility.yul\":12986:13042   */\n    tag_329:\n        /* \"#utility.yul\":13066:13104   */\n      tag_331\n        /* \"#utility.yul\":13098:13102   */\n      dup3\n        /* \"#utility.yul\":13092:13103   */\n      sload\n        /* \"#utility.yul\":13066:13104   */\n      tag_105\n      jump\t// in\n    tag_331:\n        /* \"#utility.yul\":13151:13218   */\n      tag_332\n        /* \"#utility.yul\":13211:13217   */\n      dup3\n        /* \"#utility.yul\":13203:13209   */\n      dup3\n        /* \"#utility.yul\":13197:13201   */\n      dup6\n        /* \"#utility.yul\":13151:13218   */\n      tag_164\n      jump\t// in\n    tag_332:\n        /* \"#utility.yul\":13245:13246   */\n      0x00\n        /* \"#utility.yul\":13269:13273   */\n      0x20\n        /* \"#utility.yul\":13256:13273   */\n      swap1\n      pop\n        /* \"#utility.yul\":13301:13303   */\n      0x1f\n        /* \"#utility.yul\":13293:13299   */\n      dup4\n        /* \"#utility.yul\":13290:13304   */\n      gt\n        /* \"#utility.yul\":13318:13319   */\n      0x01\n        /* \"#utility.yul\":13313:13931   */\n      dup2\n      eq\n      tag_334\n      jumpi\n        /* \"#utility.yul\":13975:13976   */\n      0x00\n        /* \"#utility.yul\":13992:13998   */\n      dup5\n        /* \"#utility.yul\":13989:14066   */\n      iszero\n      tag_335\n      jumpi\n        /* \"#utility.yul\":14041:14050   */\n      dup3\n        /* \"#utility.yul\":14036:14039   */\n      dup8\n        /* \"#utility.yul\":14032:14051   */\n      add\n        /* \"#utility.yul\":14026:14052   */\n      mload\n        /* \"#utility.yul\":14017:14052   */\n      swap1\n      pop\n        /* \"#utility.yul\":13989:14066   */\n    tag_335:\n        /* \"#utility.yul\":14092:14159   */\n      tag_336\n        /* \"#utility.yul\":14152:14158   */\n      dup6\n        /* \"#utility.yul\":14145:14150   */\n      dup3\n        /* \"#utility.yul\":14092:14159   */\n      tag_167\n      jump\t// in\n    tag_336:\n        /* \"#utility.yul\":14086:14090   */\n      dup7\n        /* \"#utility.yul\":14079:14160   */\n      sstore\n        /* \"#utility.yul\":13948:14170   */\n      pop\n        /* \"#utility.yul\":13283:14170   */\n      jump(tag_333)\n        /* \"#utility.yul\":13313:13931   */\n    tag_334:\n        /* \"#utility.yul\":13365:13369   */\n      0x1f\n        /* \"#utility.yul\":13361:13370   */\n      not\n        /* \"#utility.yul\":13353:13359   */\n      dup5\n        /* \"#utility.yul\":13349:13371   */\n      and\n        /* \"#utility.yul\":13399:13436   */\n      tag_337\n        /* \"#utility.yul\":13431:13435   */\n      dup7\n        /* \"#utility.yul\":13399:13436   */\n      tag_153\n      jump\t// in\n    tag_337:\n        /* \"#utility.yul\":13458:13459   */\n      0x00\n        /* \"#utility.yul\":13472:13680   */\n    tag_338:\n        /* \"#utility.yul\":13486:13493   */\n      dup3\n        /* \"#utility.yul\":13483:13484   */\n      dup2\n        /* \"#utility.yul\":13480:13494   */\n      lt\n        /* \"#utility.yul\":13472:13680   */\n      iszero\n      tag_340\n      jumpi\n        /* \"#utility.yul\":13565:13574   */\n      dup5\n        /* \"#utility.yul\":13560:13563   */\n      dup10\n        /* \"#utility.yul\":13556:13575   */\n      add\n        /* \"#utility.yul\":13550:13576   */\n      mload\n        /* \"#utility.yul\":13542:13548   */\n      dup3\n        /* \"#utility.yul\":13535:13577   */\n      sstore\n        /* \"#utility.yul\":13616:13617   */\n      0x01\n        /* \"#utility.yul\":13608:13614   */\n      dup3\n        /* \"#utility.yul\":13604:13618   */\n      add\n        /* \"#utility.yul\":13594:13618   */\n      swap2\n      pop\n        /* \"#utility.yul\":13663:13665   */\n      0x20\n        /* \"#utility.yul\":13652:13661   */\n      dup6\n        /* \"#utility.yul\":13648:13666   */\n      add\n        /* \"#utility.yul\":13635:13666   */\n      swap5\n      pop\n        /* \"#utility.yul\":13509:13513   */\n      0x20\n        /* \"#utility.yul\":13506:13507   */\n      dup2\n        /* \"#utility.yul\":13502:13514   */\n      add\n        /* \"#utility.yul\":13497:13514   */\n      swap1\n      pop\n        /* \"#utility.yul\":13472:13680   */\n      jump(tag_338)\n    tag_340:\n        /* \"#utility.yul\":13708:13714   */\n      dup7\n        /* \"#utility.yul\":13699:13706   */\n      dup4\n        /* \"#utility.yul\":13696:13715   */\n      lt\n        /* \"#utility.yul\":13693:13872   */\n      iszero\n      tag_341\n      jumpi\n        /* \"#utility.yul\":13766:13775   */\n      dup5\n        /* \"#utility.yul\":13761:13764   */\n      dup10\n        /* \"#utility.yul\":13757:13776   */\n      add\n        /* \"#utility.yul\":13751:13777   */\n      mload\n        /* \"#utility.yul\":13809:13857   */\n      tag_342\n        /* \"#utility.yul\":13851:13855   */\n      0x1f\n        /* \"#utility.yul\":13843:13849   */\n      dup10\n        /* \"#utility.yul\":13839:13856   */\n      and\n        /* \"#utility.yul\":13828:13837   */\n      dup3\n        /* \"#utility.yul\":13809:13857   */\n      tag_166\n      jump\t// in\n    tag_342:\n        /* \"#utility.yul\":13801:13807   */\n      dup4\n        /* \"#utility.yul\":13794:13858   */\n      sstore\n        /* \"#utility.yul\":13716:13872   */\n      pop\n        /* \"#utility.yul\":13693:13872   */\n    tag_341:\n        /* \"#utility.yul\":13918:13919   */\n      0x01\n        /* \"#utility.yul\":13914:13915   */\n      0x02\n        /* \"#utility.yul\":13906:13912   */\n      dup9\n        /* \"#utility.yul\":13902:13916   */\n      mul\n        /* \"#utility.yul\":13898:13920   */\n      add\n        /* \"#utility.yul\":13892:13896   */\n      dup9\n        /* \"#utility.yul\":13885:13921   */\n      sstore\n        /* \"#utility.yul\":13320:13931   */\n      pop\n      pop\n      pop\n        /* \"#utility.yul\":13283:14170   */\n    tag_333:\n      pop\n        /* \"#utility.yul\":12873:14176   */\n      pop\n      pop\n      pop\n        /* \"#utility.yul\":12781:14176   */\n      pop\n      pop\n      jump\t// out\n        /* \"#utility.yul\":14182:14363   */\n    tag_168:\n        /* \"#utility.yul\":14322:14355   */\n      0x45737461207065746963696f6e206e6f2066756520636f6d706c657461646100\n        /* \"#utility.yul\":14318:14319   */\n      0x00\n        /* \"#utility.yul\":14310:14316   */\n      dup3\n        /* \"#utility.yul\":14306:14320   */\n      add\n        /* \"#utility.yul\":14299:14356   */\n      mstore\n        /* \"#utility.yul\":14182:14363   */\n      pop\n      jump\t// out\n        /* \"#utility.yul\":14369:14735   */\n    tag_169:\n        /* \"#utility.yul\":14511:14514   */\n      0x00\n        /* \"#utility.yul\":14532:14599   */\n      tag_345\n        /* \"#utility.yul\":14596:14598   */\n      0x1f\n        /* \"#utility.yul\":14591:14594   */\n      dup4\n        /* \"#utility.yul\":14532:14599   */\n      tag_143\n      jump\t// in\n    tag_345:\n        /* \"#utility.yul\":14525:14599   */\n      swap2\n      pop\n        /* \"#utility.yul\":14608:14701   */\n      tag_346\n        /* \"#utility.yul\":14697:14700   */\n      dup3\n        /* \"#utility.yul\":14608:14701   */\n      tag_168\n      jump\t// in\n    tag_346:\n        /* \"#utility.yul\":14726:14728   */\n      0x20\n        /* \"#utility.yul\":14721:14724   */\n      dup3\n        /* \"#utility.yul\":14717:14729   */\n      add\n        /* \"#utility.yul\":14710:14729   */\n      swap1\n      pop\n        /* \"#utility.yul\":14369:14735   */\n      swap2\n      swap1\n      pop\n      jump\t// out\n        /* \"#utility.yul\":14741:15160   */\n    tag_85:\n        /* \"#utility.yul\":14907:14911   */\n      0x00\n        /* \"#utility.yul\":14945:14947   */\n      0x20\n        /* \"#utility.yul\":14934:14943   */\n      dup3\n        /* \"#utility.yul\":14930:14948   */\n      add\n        /* \"#utility.yul\":14922:14948   */\n      swap1\n      pop\n        /* \"#utility.yul\":14994:15003   */\n      dup2\n        /* \"#utility.yul\":14988:14992   */\n      dup2\n        /* \"#utility.yul\":14984:15004   */\n      sub\n        /* \"#utility.yul\":14980:14981   */\n      0x00\n        /* \"#utility.yul\":14969:14978   */\n      dup4\n        /* \"#utility.yul\":14965:14982   */\n      add\n        /* \"#utility.yul\":14958:15005   */\n      mstore\n        /* \"#utility.yul\":15022:15153   */\n      tag_348\n        /* \"#utility.yul\":15148:15152   */\n      dup2\n        /* \"#utility.yul\":15022:15153   */\n      tag_169\n      jump\t// in\n    tag_348:\n        /* \"#utility.yul\":15014:15153   */\n      swap1\n      pop\n        /* \"#utility.yul\":14741:15160   */\n      swap2\n      swap1\n      pop\n      jump\t// out\n        /* \"#utility.yul\":15166:15342   */\n    tag_170:\n        /* \"#utility.yul\":15306:15334   */\n      0x4e6f207365207075656465207265656d626f6c736172202e2e2e000000000000\n        /* \"#utility.yul\":15302:15303   */\n      0x00\n        /* \"#utility.yul\":15294:15300   */\n      dup3\n        /* \"#utility.yul\":15290:15304   */\n      add\n        /* \"#utility.yul\":15283:15335   */\n      mstore\n        /* \"#utility.yul\":15166:15342   */\n      pop\n      jump\t// out\n        /* \"#utility.yul\":15348:15714   */\n    tag_171:\n        /* \"#utility.yul\":15490:15493   */\n      0x00\n        /* \"#utility.yul\":15511:15578   */\n      tag_351\n        /* \"#utility.yul\":15575:15577   */\n      0x1a\n        /* \"#utility.yul\":15570:15573   */\n      dup4\n        /* \"#utility.yul\":15511:15578   */\n      tag_143\n      jump\t// in\n    tag_351:\n        /* \"#utility.yul\":15504:15578   */\n      swap2\n      pop\n        /* \"#utility.yul\":15587:15680   */\n      tag_352\n        /* \"#utility.yul\":15676:15679   */\n      dup3\n        /* \"#utility.yul\":15587:15680   */\n      tag_170\n      jump\t// in\n    tag_352:\n        /* \"#utility.yul\":15705:15707   */\n      0x20\n        /* \"#utility.yul\":15700:15703   */\n      dup3\n        /* \"#utility.yul\":15696:15708   */\n      add\n        /* \"#utility.yul\":15689:15708   */\n      swap1\n      pop\n        /* \"#utility.yul\":15348:15714   */\n      swap2\n      swap1\n      pop\n      jump\t// out\n        /* \"#utility.yul\":15720:16139   */\n    tag_92:\n        /* \"#utility.yul\":15886:15890   */\n      0x00\n        /* \"#utility.yul\":15924:15926   */\n      0x20\n        /* \"#utility.yul\":15913:15922   */\n      dup3\n        /* \"#utility.yul\":15909:15927   */\n      add\n        /* \"#utility.yul\":15901:15927   */\n      swap1\n      pop\n        /* \"#utility.yul\":15973:15982   */\n      dup2\n        /* \"#utility.yul\":15967:15971   */\n      dup2\n        /* \"#utility.yul\":15963:15983   */\n      sub\n        /* \"#utility.yul\":15959:15960   */\n      0x00\n        /* \"#utility.yul\":15948:15957   */\n      dup4\n        /* \"#utility.yul\":15944:15961   */\n      add\n        /* \"#utility.yul\":15937:15984   */\n      mstore\n        /* \"#utility.yul\":16001:16132   */\n      tag_354\n        /* \"#utility.yul\":16127:16131   */\n      dup2\n        /* \"#utility.yul\":16001:16132   */\n      tag_171\n      jump\t// in\n    tag_354:\n        /* \"#utility.yul\":15993:16132   */\n      swap1\n      pop\n        /* \"#utility.yul\":15720:16139   */\n      swap2\n      swap1\n      pop\n      jump\t// out\n        /* \"#utility.yul\":16145:16316   */\n    tag_172:\n        /* \"#utility.yul\":16285:16308   */\n      0x4e6f2070757369737465207061206c6120766163610000000000000000000000\n        /* \"#utility.yul\":16281:16282   */\n      0x00\n        /* \"#utility.yul\":16273:16279   */\n      dup3\n        /* \"#utility.yul\":16269:16283   */\n      add\n        /* \"#utility.yul\":16262:16309   */\n      mstore\n        /* \"#utility.yul\":16145:16316   */\n      pop\n      jump\t// out\n        /* \"#utility.yul\":16322:16688   */\n    tag_173:\n        /* \"#utility.yul\":16464:16467   */\n      0x00\n        /* \"#utility.yul\":16485:16552   */\n      tag_357\n        /* \"#utility.yul\":16549:16551   */\n      0x15\n        /* \"#utility.yul\":16544:16547   */\n      dup4\n        /* \"#utility.yul\":16485:16552   */\n      tag_143\n      jump\t// in\n    tag_357:\n        /* \"#utility.yul\":16478:16552   */\n      swap2\n      pop\n        /* \"#utility.yul\":16561:16654   */\n      tag_358\n        /* \"#utility.yul\":16650:16653   */\n      dup3\n        /* \"#utility.yul\":16561:16654   */\n      tag_172\n      jump\t// in\n    tag_358:\n        /* \"#utility.yul\":16679:16681   */\n      0x20\n        /* \"#utility.yul\":16674:16677   */\n      dup3\n        /* \"#utility.yul\":16670:16682   */\n      add\n        /* \"#utility.yul\":16663:16682   */\n      swap1\n      pop\n        /* \"#utility.yul\":16322:16688   */\n      swap2\n      swap1\n      pop\n      jump\t// out\n        /* \"#utility.yul\":16694:17113   */\n    tag_95:\n        /* \"#utility.yul\":16860:16864   */\n      0x00\n        /* \"#utility.yul\":16898:16900   */\n      0x20\n        /* \"#utility.yul\":16887:16896   */\n      dup3\n        /* \"#utility.yul\":16883:16901   */\n      add\n        /* \"#utility.yul\":16875:16901   */\n      swap1\n      pop\n        /* \"#utility.yul\":16947:16956   */\n      dup2\n        /* \"#utility.yul\":16941:16945   */\n      dup2\n        /* \"#utility.yul\":16937:16957   */\n      sub\n        /* \"#utility.yul\":16933:16934   */\n      0x00\n        /* \"#utility.yul\":16922:16931   */\n      dup4\n        /* \"#utility.yul\":16918:16935   */\n      add\n        /* \"#utility.yul\":16911:16958   */\n      mstore\n        /* \"#utility.yul\":16975:17106   */\n      tag_360\n        /* \"#utility.yul\":17101:17105   */\n      dup2\n        /* \"#utility.yul\":16975:17106   */\n      tag_173\n      jump\t// in\n    tag_360:\n        /* \"#utility.yul\":16967:17106   */\n      swap1\n      pop\n        /* \"#utility.yul\":16694:17113   */\n      swap2\n      swap1\n      pop\n      jump\t// out\n        /* \"#utility.yul\":17119:17266   */\n    tag_174:\n        /* \"#utility.yul\":17220:17231   */\n      0x00\n        /* \"#utility.yul\":17257:17260   */\n      dup2\n        /* \"#utility.yul\":17242:17260   */\n      swap1\n      pop\n        /* \"#utility.yul\":17119:17266   */\n      swap3\n      swap2\n      pop\n      pop\n      jump\t// out\n        /* \"#utility.yul\":17272:17386   */\n    tag_175:\n      pop\n      jump\t// out\n        /* \"#utility.yul\":17392:17790   */\n    tag_176:\n        /* \"#utility.yul\":17551:17554   */\n      0x00\n        /* \"#utility.yul\":17572:17655   */\n      tag_364\n        /* \"#utility.yul\":17653:17654   */\n      0x00\n        /* \"#utility.yul\":17648:17651   */\n      dup4\n        /* \"#utility.yul\":17572:17655   */\n      tag_174\n      jump\t// in\n    tag_364:\n        /* \"#utility.yul\":17565:17655   */\n      swap2\n      pop\n        /* \"#utility.yul\":17664:17757   */\n      tag_365\n        /* \"#utility.yul\":17753:17756   */\n      dup3\n        /* \"#utility.yul\":17664:17757   */\n      tag_175\n      jump\t// in\n    tag_365:\n        /* \"#utility.yul\":17782:17783   */\n      0x00\n        /* \"#utility.yul\":17777:17780   */\n      dup3\n        /* \"#utility.yul\":17773:17784   */\n      add\n        /* \"#utility.yul\":17766:17784   */\n      swap1\n      pop\n        /* \"#utility.yul\":17392:17790   */\n      swap2\n      swap1\n      pop\n      jump\t// out\n        /* \"#utility.yul\":17796:18175   */\n    tag_97:\n        /* \"#utility.yul\":17980:17983   */\n      0x00\n        /* \"#utility.yul\":18002:18149   */\n      tag_367\n        /* \"#utility.yul\":18145:18148   */\n      dup3\n        /* \"#utility.yul\":18002:18149   */\n      tag_176\n      jump\t// in\n    tag_367:\n        /* \"#utility.yul\":17995:18149   */\n      swap2\n      pop\n        /* \"#utility.yul\":18166:18169   */\n      dup2\n        /* \"#utility.yul\":18159:18169   */\n      swap1\n      pop\n        /* \"#utility.yul\":17796:18175   */\n      swap2\n      swap1\n      pop\n      jump\t// out\n        /* \"#utility.yul\":18181:18353   */\n    tag_177:\n        /* \"#utility.yul\":18321:18345   */\n      0x4c61207472616e73666572656e6369612066616c6c6f00000000000000000000\n        /* \"#utility.yul\":18317:18318   */\n      0x00\n        /* \"#utility.yul\":18309:18315   */\n      dup3\n        /* \"#utility.yul\":18305:18319   */\n      add\n        /* \"#utility.yul\":18298:18346   */\n      mstore\n        /* \"#utility.yul\":18181:18353   */\n      pop\n      jump\t// out\n        /* \"#utility.yul\":18359:18725   */\n    tag_178:\n        /* \"#utility.yul\":18501:18504   */\n      0x00\n        /* \"#utility.yul\":18522:18589   */\n      tag_370\n        /* \"#utility.yul\":18586:18588   */\n      0x16\n        /* \"#utility.yul\":18581:18584   */\n      dup4\n        /* \"#utility.yul\":18522:18589   */\n      tag_143\n      jump\t// in\n    tag_370:\n        /* \"#utility.yul\":18515:18589   */\n      swap2\n      pop\n        /* \"#utility.yul\":18598:18691   */\n      tag_371\n        /* \"#utility.yul\":18687:18690   */\n      dup3\n        /* \"#utility.yul\":18598:18691   */\n      tag_177\n      jump\t// in\n    tag_371:\n        /* \"#utility.yul\":18716:18718   */\n      0x20\n        /* \"#utility.yul\":18711:18714   */\n      dup3\n        /* \"#utility.yul\":18707:18719   */\n      add\n        /* \"#utility.yul\":18700:18719   */\n      swap1\n      pop\n        /* \"#utility.yul\":18359:18725   */\n      swap2\n      swap1\n      pop\n      jump\t// out\n        /* \"#utility.yul\":18731:19150   */\n    tag_103:\n        /* \"#utility.yul\":18897:18901   */\n      0x00\n        /* \"#utility.yul\":18935:18937   */\n      0x20\n        /* \"#utility.yul\":18924:18933   */\n      dup3\n        /* \"#utility.yul\":18920:18938   */\n      add\n        /* \"#utility.yul\":18912:18938   */\n      swap1\n      pop\n        /* \"#utility.yul\":18984:18993   */\n      dup2\n        /* \"#utility.yul\":18978:18982   */\n      dup2\n        /* \"#utility.yul\":18974:18994   */\n      sub\n        /* \"#utility.yul\":18970:18971   */\n      0x00\n        /* \"#utility.yul\":18959:18968   */\n      dup4\n        /* \"#utility.yul\":18955:18972   */\n      add\n        /* \"#utility.yul\":18948:18995   */\n      mstore\n        /* \"#utility.yul\":19012:19143   */\n      tag_373\n        /* \"#utility.yul\":19138:19142   */\n      dup2\n        /* \"#utility.yul\":19012:19143   */\n      tag_178\n      jump\t// in\n    tag_373:\n        /* \"#utility.yul\":19004:19143   */\n      swap1\n      pop\n        /* \"#utility.yul\":18731:19150   */\n      swap2\n      swap1\n      pop\n      jump\t// out\n        /* \"#utility.yul\":19156:19332   */\n    tag_179:\n        /* \"#utility.yul\":19296:19320   */\n      0x5465726d696e6f206c6120646561646c696e65203a2800000000000000000000\n        /* \"#utility.yul\":19292:19293   */\n      0x00\n        /* \"#utility.yul\":19284:19290   */\n      dup3\n        /* \"#utility.yul\":19280:19294   */\n      add\n        /* \"#utility.yul\":19273:19321   */\n      mstore\n        /* \"#utility.yul\":19156:19332   */\n      pop\n      jump\t// out\n        /* \"#utility.yul\":19342:19724   */\n    tag_180:\n        /* \"#utility.yul\":19484:19487   */\n      0x00\n        /* \"#utility.yul\":19509:19576   */\n      tag_376\n        /* \"#utility.yul\":19573:19575   */\n      0x16\n        /* \"#utility.yul\":19568:19571   */\n      dup4\n        /* \"#utility.yul\":19509:19576   */\n      tag_143\n      jump\t// in\n    tag_376:\n        /* \"#utility.yul\":19502:19576   */\n      swap2\n      pop\n        /* \"#utility.yul\":19589:19682   */\n      tag_377\n        /* \"#utility.yul\":19678:19681   */\n      dup3\n        /* \"#utility.yul\":19589:19682   */\n      tag_179\n      jump\t// in\n    tag_377:\n        /* \"#utility.yul\":19711:19713   */\n      0x20\n        /* \"#utility.yul\":19706:19709   */\n      dup3\n        /* \"#utility.yul\":19702:19714   */\n      add\n        /* \"#utility.yul\":19695:19714   */\n      swap1\n      pop\n        /* \"#utility.yul\":19342:19724   */\n      swap2\n      swap1\n      pop\n      jump\t// out\n        /* \"#utility.yul\":19734:20169   */\n    tag_113:\n        /* \"#utility.yul\":19900:19904   */\n      0x00\n        /* \"#utility.yul\":19942:19944   */\n      0x20\n        /* \"#utility.yul\":19931:19940   */\n      dup3\n        /* \"#utility.yul\":19927:19945   */\n      add\n        /* \"#utility.yul\":19919:19945   */\n      swap1\n      pop\n        /* \"#utility.yul\":19995:20004   */\n      dup2\n        /* \"#utility.yul\":19989:19993   */\n      dup2\n        /* \"#utility.yul\":19985:20005   */\n      sub\n        /* \"#utility.yul\":19981:19982   */\n      0x00\n        /* \"#utility.yul\":19970:19979   */\n      dup4\n        /* \"#utility.yul\":19966:19983   */\n      add\n        /* \"#utility.yul\":19959:20006   */\n      mstore\n        /* \"#utility.yul\":20027:20158   */\n      tag_379\n        /* \"#utility.yul\":20153:20157   */\n      dup2\n        /* \"#utility.yul\":20027:20158   */\n      tag_180\n      jump\t// in\n    tag_379:\n        /* \"#utility.yul\":20019:20158   */\n      swap1\n      pop\n        /* \"#utility.yul\":19734:20169   */\n      swap2\n      swap1\n      pop\n      jump\t// out\n        /* \"#utility.yul\":20179:20390   */\n    tag_115:\n        /* \"#utility.yul\":20219:20222   */\n      0x00\n        /* \"#utility.yul\":20242:20262   */\n      tag_381\n        /* \"#utility.yul\":20260:20261   */\n      dup3\n        /* \"#utility.yul\":20242:20262   */\n      tag_117\n      jump\t// in\n    tag_381:\n        /* \"#utility.yul\":20237:20262   */\n      swap2\n      pop\n        /* \"#utility.yul\":20280:20300   */\n      tag_382\n        /* \"#utility.yul\":20298:20299   */\n      dup4\n        /* \"#utility.yul\":20280:20300   */\n      tag_117\n      jump\t// in\n    tag_382:\n        /* \"#utility.yul\":20275:20300   */\n      swap3\n      pop\n        /* \"#utility.yul\":20327:20328   */\n      dup3\n        /* \"#utility.yul\":20324:20325   */\n      dup3\n        /* \"#utility.yul\":20320:20329   */\n      add\n        /* \"#utility.yul\":20313:20329   */\n      swap1\n      pop\n        /* \"#utility.yul\":20352:20355   */\n      dup1\n        /* \"#utility.yul\":20349:20350   */\n      dup3\n        /* \"#utility.yul\":20346:20356   */\n      gt\n        /* \"#utility.yul\":20343:20379   */\n      iszero\n      tag_383\n      jumpi\n        /* \"#utility.yul\":20359:20377   */\n      tag_384\n      tag_151\n      jump\t// in\n    tag_384:\n        /* \"#utility.yul\":20343:20379   */\n    tag_383:\n        /* \"#utility.yul\":20179:20390   */\n      swap3\n      swap2\n      pop\n      pop\n      jump\t// out\n\n    auxdata: 0xa26469706673582212209347887b0e60af5243b24f8792b26789b1e19a6680d588241e1fa5d64e794a7f64736f6c634300081a0033\n}\n",
				"bytecode": {
					"linkReferences": {},
					"object": "608060405234801561000f575f80fd5b506040516114ef3803806114ef833981810160405281019061003191906100c8565b8160038190555080426100449190610133565b6002819055503360015f6101000a81548173ffffffffffffffffffffffffffffffffffffffff021916908373ffffffffffffffffffffffffffffffffffffffff1602179055505050610166565b5f80fd5b5f819050919050565b6100a781610095565b81146100b1575f80fd5b50565b5f815190506100c28161009e565b92915050565b5f80604083850312156100de576100dd610091565b5b5f6100eb858286016100b4565b92505060206100fc858286016100b4565b9150509250929050565b7f4e487b71000000000000000000000000000000000000000000000000000000005f52601160045260245ffd5b5f61013d82610095565b915061014883610095565b92508282019050808211156101605761015f610106565b5b92915050565b61137c806101735f395ff3fe6080604052600436106100a6575f3560e01c8063590e1ae311610063578063590e1ae3146101b457806381d12c58146101ca5780638d68cf5914610209578063953b8fb8146102135780639fb42b1f1461023d578063c59ee1dc14610267576100a6565b806312065fe0146100aa5780631b16bb5c146100d457806329dcb0cf146100fc5780634034a53914610126578063481c6a75146101625780635114cb521461018c575b5f80fd5b3480156100b5575f80fd5b506100be610291565b6040516100cb919061091d565b60405180910390f35b3480156100df575f80fd5b506100fa60048036038101906100f59190610b07565b610298565b005b348015610107575f80fd5b506101106103d1565b60405161011d919061091d565b60405180910390f35b348015610131575f80fd5b5061014c60048036038101906101479190610bae565b6103d7565b604051610159919061091d565b60405180910390f35b34801561016d575f80fd5b506101766103eb565b6040516101839190610be8565b60405180910390f35b348015610197575f80fd5b506101b260048036038101906101ad9190610c01565b610410565b005b3480156101bf575f80fd5b506101c86105a4565b005b3480156101d5575f80fd5b506101f060048036038101906101eb9190610c01565b610766565b6040516102009493929190610cb5565b60405180910390f35b610211610843565b005b34801561021e575f80fd5b506102276108f3565b604051610234919061091d565b60405180910390f35b348015610248575f80fd5b506102516108f9565b60405161025e919061091d565b60405180910390f35b348015610272575f80fd5b5061027b6108ff565b604051610288919061091d565b60405180910390f35b5f47905090565b60015f9054906101000a900473ffffffffffffffffffffffffffffffffffffffff1673ffffffffffffffffffffffffffffffffffffffff163373ffffffffffffffffffffffffffffffffffffffff1614610327576040517f08c379a000000000000000000000000000000000000000000000000000000000815260040161031e90610d6f565b60405180910390fd5b5f60055f60065481526020019081526020015f20905060065f81548092919061034f90610dba565b919050555083815f0190816103649190610ffb565b5082816001015f6101000a81548173ffffffffffffffffffffffffffffffffffffffff021916908373ffffffffffffffffffffffffffffffffffffffff1602179055508181600201819055505f816003015f6101000a81548160ff02191690831515021790555050505050565b60025481565b5f602052805f5260405f205f915090505481565b60015f9054906101000a900473ffffffffffffffffffffffffffffffffffffffff1681565b60015f9054906101000a900473ffffffffffffffffffffffffffffffffffffffff1673ffffffffffffffffffffffffffffffffffffffff163373ffffffffffffffffffffffffffffffffffffffff161461049f576040517f08c379a000000000000000000000000000000000000000000000000000000000815260040161049690610d6f565b60405180910390fd5b60035460045410156104af575f80fd5b5f60055f8381526020019081526020015f2090505f1515816003015f9054906101000a900460ff16151514610519576040517f08c379a000000000000000000000000000000000000000000000000000000000815260040161051090611114565b60405180910390fd5b806001015f9054906101000a900473ffffffffffffffffffffffffffffffffffffffff1673ffffffffffffffffffffffffffffffffffffffff166108fc826002015490811502906040515f60405180830381858888f19350505050158015610583573d5f803e3d5ffd5b506001816003015f6101000a81548160ff0219169083151502179055505050565b600254421180156105b85750600354600454105b6105f7576040517f08c379a00000000000000000000000000000000000000000000000000000000081526004016105ee9061117c565b60405180910390fd5b5f805f3373ffffffffffffffffffffffffffffffffffffffff1673ffffffffffffffffffffffffffffffffffffffff1681526020019081526020015f205490505f8111610679576040517f08c379a0000000000000000000000000000000000000000000000000000000008152600401610670906111e4565b60405180910390fd5b5f3373ffffffffffffffffffffffffffffffffffffffff168260405161069e9061122f565b5f6040518083038185875af1925050503d805f81146106d8576040519150601f19603f3d011682016040523d82523d5f602084013e6106dd565b606091505b5050905080610721576040517f08c379a00000000000000000000000000000000000000000000000000000000081526004016107189061128d565b60405180910390fd5b5f805f3373ffffffffffffffffffffffffffffffffffffffff1673ffffffffffffffffffffffffffffffffffffffff1681526020019081526020015f20819055505050565b6005602052805f5260405f205f91509050805f01805461078590610e2e565b80601f01602080910402602001604051908101604052809291908181526020018280546107b190610e2e565b80156107fc5780601f106107d3576101008083540402835291602001916107fc565b820191905f5260205f20905b8154815290600101906020018083116107df57829003601f168201915b505050505090806001015f9054906101000a900473ffffffffffffffffffffffffffffffffffffffff1690806002015490806003015f9054906101000a900460ff16905084565b6002544210610887576040517f08c379a000000000000000000000000000000000000000000000000000000000815260040161087e906112f5565b60405180910390fd5b345f803373ffffffffffffffffffffffffffffffffffffffff1673ffffffffffffffffffffffffffffffffffffffff1681526020019081526020015f205f8282546108d29190611313565b925050819055503460045f8282546108ea9190611313565b92505081905550565b60035481565b60065481565b60045481565b5f819050919050565b61091781610905565b82525050565b5f6020820190506109305f83018461090e565b92915050565b5f604051905090565b5f80fd5b5f80fd5b5f80fd5b5f80fd5b5f601f19601f8301169050919050565b7f4e487b71000000000000000000000000000000000000000000000000000000005f52604160045260245ffd5b6109958261094f565b810181811067ffffffffffffffff821117156109b4576109b361095f565b5b80604052505050565b5f6109c6610936565b90506109d2828261098c565b919050565b5f67ffffffffffffffff8211156109f1576109f061095f565b5b6109fa8261094f565b9050602081019050919050565b828183375f83830152505050565b5f610a27610a22846109d7565b6109bd565b905082815260208101848484011115610a4357610a4261094b565b5b610a4e848285610a07565b509392505050565b5f82601f830112610a6a57610a69610947565b5b8135610a7a848260208601610a15565b91505092915050565b5f73ffffffffffffffffffffffffffffffffffffffff82169050919050565b5f610aac82610a83565b9050919050565b610abc81610aa2565b8114610ac6575f80fd5b50565b5f81359050610ad781610ab3565b92915050565b610ae681610905565b8114610af0575f80fd5b50565b5f81359050610b0181610add565b92915050565b5f805f60608486031215610b1e57610b1d61093f565b5b5f84013567ffffffffffffffff811115610b3b57610b3a610943565b5b610b4786828701610a56565b9350506020610b5886828701610ac9565b9250506040610b6986828701610af3565b9150509250925092565b5f610b7d82610a83565b9050919050565b610b8d81610b73565b8114610b97575f80fd5b50565b5f81359050610ba881610b84565b92915050565b5f60208284031215610bc357610bc261093f565b5b5f610bd084828501610b9a565b91505092915050565b610be281610b73565b82525050565b5f602082019050610bfb5f830184610bd9565b92915050565b5f60208284031215610c1657610c1561093f565b5b5f610c2384828501610af3565b91505092915050565b5f81519050919050565b5f82825260208201905092915050565b8281835e5f83830152505050565b5f610c5e82610c2c565b610c688185610c36565b9350610c78818560208601610c46565b610c818161094f565b840191505092915050565b610c9581610aa2565b82525050565b5f8115159050919050565b610caf81610c9b565b82525050565b5f6080820190508181035f830152610ccd8187610c54565b9050610cdc6020830186610c8c565b610ce9604083018561090e565b610cf66060830184610ca6565b95945050505050565b7f536f6c6f20656c2061646d696e6973747261646f7220707565646520656a65635f8201527f7574617220657374612066756e63696f6e000000000000000000000000000000602082015250565b5f610d59603183610c36565b9150610d6482610cff565b604082019050919050565b5f6020820190508181035f830152610d8681610d4d565b9050919050565b7f4e487b71000000000000000000000000000000000000000000000000000000005f52601160045260245ffd5b5f610dc482610905565b91507fffffffffffffffffffffffffffffffffffffffffffffffffffffffffffffffff8203610df657610df5610d8d565b5b600182019050919050565b7f4e487b71000000000000000000000000000000000000000000000000000000005f52602260045260245ffd5b5f6002820490506001821680610e4557607f821691505b602082108103610e5857610e57610e01565b5b50919050565b5f819050815f5260205f209050919050565b5f6020601f8301049050919050565b5f82821b905092915050565b5f60088302610eba7fffffffffffffffffffffffffffffffffffffffffffffffffffffffffffffffff82610e7f565b610ec48683610e7f565b95508019841693508086168417925050509392505050565b5f819050919050565b5f610eff610efa610ef584610905565b610edc565b610905565b9050919050565b5f819050919050565b610f1883610ee5565b610f2c610f2482610f06565b848454610e8b565b825550505050565b5f90565b610f40610f34565b610f4b818484610f0f565b505050565b5b81811015610f6e57610f635f82610f38565b600181019050610f51565b5050565b601f821115610fb357610f8481610e5e565b610f8d84610e70565b81016020851015610f9c578190505b610fb0610fa885610e70565b830182610f50565b50505b505050565b5f82821c905092915050565b5f610fd35f1984600802610fb8565b1980831691505092915050565b5f610feb8383610fc4565b9150826002028217905092915050565b61100482610c2c565b67ffffffffffffffff81111561101d5761101c61095f565b5b6110278254610e2e565b611032828285610f72565b5f60209050601f831160018114611063575f8415611051578287015190505b61105b8582610fe0565b8655506110c2565b601f19841661107186610e5e565b5f5b8281101561109857848901518255600182019150602085019450602081019050611073565b868310156110b557848901516110b1601f891682610fc4565b8355505b6001600288020188555050505b505050505050565b7f45737461207065746963696f6e206e6f2066756520636f6d706c6574616461005f82015250565b5f6110fe601f83610c36565b9150611109826110ca565b602082019050919050565b5f6020820190508181035f83015261112b816110f2565b9050919050565b7f4e6f207365207075656465207265656d626f6c736172202e2e2e0000000000005f82015250565b5f611166601a83610c36565b915061117182611132565b602082019050919050565b5f6020820190508181035f8301526111938161115a565b9050919050565b7f4e6f2070757369737465207061206c61207661636100000000000000000000005f82015250565b5f6111ce601583610c36565b91506111d98261119a565b602082019050919050565b5f6020820190508181035f8301526111fb816111c2565b9050919050565b5f81905092915050565b50565b5f61121a5f83611202565b91506112258261120c565b5f82019050919050565b5f6112398261120f565b9150819050919050565b7f4c61207472616e73666572656e6369612066616c6c6f000000000000000000005f82015250565b5f611277601683610c36565b915061128282611243565b602082019050919050565b5f6020820190508181035f8301526112a48161126b565b9050919050565b7f5465726d696e6f206c6120646561646c696e65203a28000000000000000000005f82015250565b5f6112df601683610c36565b91506112ea826112ab565b602082019050919050565b5f6020820190508181035f83015261130c816112d3565b9050919050565b5f61131d82610905565b915061132883610905565b92508282019050808211156113405761133f610d8d565b5b9291505056fea26469706673582212209347887b0e60af5243b24f8792b26789b1e19a6680d588241e1fa5d64e794a7f64736f6c634300081a0033",
					"opcodes": "PUSH1 0x80 PUSH1 0x40 MSTORE CALLVALUE DUP1 ISZERO PUSH2 0xF JUMPI PUSH0 DUP1 REVERT JUMPDEST POP PUSH1 0x40 MLOAD PUSH2 0x14EF CODESIZE SUB DUP1 PUSH2 0x14EF DUP4 CODECOPY DUP2 DUP2 ADD PUSH1 0x40 MSTORE DUP2 ADD SWAP1 PUSH2 0x31 SWAP2 SWAP1 PUSH2 0xC8 JUMP JUMPDEST DUP2 PUSH1 0x3 DUP2 SWAP1 SSTORE POP DUP1 TIMESTAMP PUSH2 0x44 SWAP2 SWAP1 PUSH2 0x133 JUMP JUMPDEST PUSH1 0x2 DUP2 SWAP1 SSTORE POP CALLER PUSH1 0x1 PUSH0 PUSH2 0x100 EXP DUP2 SLOAD DUP2 PUSH20 0xFFFFFFFFFFFFFFFFFFFFFFFFFFFFFFFFFFFFFFFF MUL NOT AND SWAP1 DUP4 PUSH20 0xFFFFFFFFFFFFFFFFFFFFFFFFFFFFFFFFFFFFFFFF AND MUL OR SWAP1 SSTORE POP POP POP PUSH2 0x166 JUMP JUMPDEST PUSH0 DUP1 REVERT JUMPDEST PUSH0 DUP2 SWAP1 POP SWAP2 SWAP1 POP JUMP JUMPDEST PUSH2 0xA7 DUP2 PUSH2 0x95 JUMP JUMPDEST DUP2 EQ PUSH2 0xB1 JUMPI PUSH0 DUP1 REVERT JUMPDEST POP JUMP JUMPDEST PUSH0 DUP2 MLOAD SWAP1 POP PUSH2 0xC2 DUP2 PUSH2 0x9E JUMP JUMPDEST SWAP3 SWAP2 POP POP JUMP JUMPDEST PUSH0 DUP1 PUSH1 0x40 DUP4 DUP6 SUB SLT ISZERO PUSH2 0xDE JUMPI PUSH2 0xDD PUSH2 0x91 JUMP JUMPDEST JUMPDEST PUSH0 PUSH2 0xEB DUP6 DUP3 DUP7 ADD PUSH2 0xB4 JUMP JUMPDEST SWAP3 POP POP PUSH1 0x20 PUSH2 0xFC DUP6 DUP3 DUP7 ADD PUSH2 0xB4 JUMP JUMPDEST SWAP2 POP POP SWAP3 POP SWAP3 SWAP1 POP JUMP JUMPDEST PUSH32 0x4E487B7100000000000000000000000000000000000000000000000000000000 PUSH0 MSTORE PUSH1 0x11 PUSH1 0x4 MSTORE PUSH1 0x24 PUSH0 REVERT JUMPDEST PUSH0 PUSH2 0x13D DUP3 PUSH2 0x95 JUMP JUMPDEST SWAP2 POP PUSH2 0x148 DUP4 PUSH2 0x95 JUMP JUMPDEST SWAP3 POP DUP3 DUP3 ADD SWAP1 POP DUP1 DUP3 GT ISZERO PUSH2 0x160 JUMPI PUSH2 0x15F PUSH2 0x106 JUMP JUMPDEST JUMPDEST SWAP3 SWAP2 POP POP JUMP JUMPDEST PUSH2 0x137C DUP1 PUSH2 0x173 PUSH0 CODECOPY PUSH0 RETURN INVALID PUSH1 0x80 PUSH1 0x40 MSTORE PUSH1 0x4 CALLDATASIZE LT PUSH2 0xA6 JUMPI PUSH0 CALLDATALOAD PUSH1 0xE0 SHR DUP1 PUSH4 0x590E1AE3 GT PUSH2 0x63 JUMPI DUP1 PUSH4 0x590E1AE3 EQ PUSH2 0x1B4 JUMPI DUP1 PUSH4 0x81D12C58 EQ PUSH2 0x1CA JUMPI DUP1 PUSH4 0x8D68CF59 EQ PUSH2 0x209 JUMPI DUP1 PUSH4 0x953B8FB8 EQ PUSH2 0x213 JUMPI DUP1 PUSH4 0x9FB42B1F EQ PUSH2 0x23D JUMPI DUP1 PUSH4 0xC59EE1DC EQ PUSH2 0x267 JUMPI PUSH2 0xA6 JUMP JUMPDEST DUP1 PUSH4 0x12065FE0 EQ PUSH2 0xAA JUMPI DUP1 PUSH4 0x1B16BB5C EQ PUSH2 0xD4 JUMPI DUP1 PUSH4 0x29DCB0CF EQ PUSH2 0xFC JUMPI DUP1 PUSH4 0x4034A539 EQ PUSH2 0x126 JUMPI DUP1 PUSH4 0x481C6A75 EQ PUSH2 0x162 JUMPI DUP1 PUSH4 0x5114CB52 EQ PUSH2 0x18C JUMPI JUMPDEST PUSH0 DUP1 REVERT JUMPDEST CALLVALUE DUP1 ISZERO PUSH2 0xB5 JUMPI PUSH0 DUP1 REVERT JUMPDEST POP PUSH2 0xBE PUSH2 0x291 JUMP JUMPDEST PUSH1 0x40 MLOAD PUSH2 0xCB SWAP2 SWAP1 PUSH2 0x91D JUMP JUMPDEST PUSH1 0x40 MLOAD DUP1 SWAP2 SUB SWAP1 RETURN JUMPDEST CALLVALUE DUP1 ISZERO PUSH2 0xDF JUMPI PUSH0 DUP1 REVERT JUMPDEST POP PUSH2 0xFA PUSH1 0x4 DUP1 CALLDATASIZE SUB DUP2 ADD SWAP1 PUSH2 0xF5 SWAP2 SWAP1 PUSH2 0xB07 JUMP JUMPDEST PUSH2 0x298 JUMP JUMPDEST STOP JUMPDEST CALLVALUE DUP1 ISZERO PUSH2 0x107 JUMPI PUSH0 DUP1 REVERT JUMPDEST POP PUSH2 0x110 PUSH2 0x3D1 JUMP JUMPDEST PUSH1 0x40 MLOAD PUSH2 0x11D SWAP2 SWAP1 PUSH2 0x91D JUMP JUMPDEST PUSH1 0x40 MLOAD DUP1 SWAP2 SUB SWAP1 RETURN JUMPDEST CALLVALUE DUP1 ISZERO PUSH2 0x131 JUMPI PUSH0 DUP1 REVERT JUMPDEST POP PUSH2 0x14C PUSH1 0x4 DUP1 CALLDATASIZE SUB DUP2 ADD SWAP1 PUSH2 0x147 SWAP2 SWAP1 PUSH2 0xBAE JUMP JUMPDEST PUSH2 0x3D7 JUMP JUMPDEST PUSH1 0x40 MLOAD PUSH2 0x159 SWAP2 SWAP1 PUSH2 0x91D JUMP JUMPDEST PUSH1 0x40 MLOAD DUP1 SWAP2 SUB SWAP1 RETURN JUMPDEST CALLVALUE DUP1 ISZERO PUSH2 0x16D JUMPI PUSH0 DUP1 REVERT JUMPDEST POP PUSH2 0x176 PUSH2 0x3EB JUMP JUMPDEST PUSH1 0x40 MLOAD PUSH2 0x183 SWAP2 SWAP1 PUSH2 0xBE8 JUMP JUMPDEST PUSH1 0x40 MLOAD DUP1 SWAP2 SUB SWAP1 RETURN JUMPDEST CALLVALUE DUP1 ISZERO PUSH2 0x197 JUMPI PUSH0 DUP1 REVERT JUMPDEST POP PUSH2 0x1B2 PUSH1 0x4 DUP1 CALLDATASIZE SUB DUP2 ADD SWAP1 PUSH2 0x1AD SWAP2 SWAP1 PUSH2 0xC01 JUMP JUMPDEST PUSH2 0x410 JUMP JUMPDEST STOP JUMPDEST CALLVALUE DUP1 ISZERO PUSH2 0x1BF JUMPI PUSH0 DUP1 REVERT JUMPDEST POP PUSH2 0x1C8 PUSH2 0x5A4 JUMP JUMPDEST STOP JUMPDEST CALLVALUE DUP1 ISZERO PUSH2 0x1D5 JUMPI PUSH0 DUP1 REVERT JUMPDEST POP PUSH2 0x1F0 PUSH1 0x4 DUP1 CALLDATASIZE SUB DUP2 ADD SWAP1 PUSH2 0x1EB SWAP2 SWAP1 PUSH2 0xC01 JUMP JUMPDEST PUSH2 0x766 JUMP JUMPDEST PUSH1 0x40 MLOAD PUSH2 0x200 SWAP5 SWAP4 SWAP3 SWAP2 SWAP1 PUSH2 0xCB5 JUMP JUMPDEST PUSH1 0x40 MLOAD DUP1 SWAP2 SUB SWAP1 RETURN JUMPDEST PUSH2 0x211 PUSH2 0x843 JUMP JUMPDEST STOP JUMPDEST CALLVALUE DUP1 ISZERO PUSH2 0x21E JUMPI PUSH0 DUP1 REVERT JUMPDEST POP PUSH2 0x227 PUSH2 0x8F3 JUMP JUMPDEST PUSH1 0x40 MLOAD PUSH2 0x234 SWAP2 SWAP1 PUSH2 0x91D JUMP JUMPDEST PUSH1 0x40 MLOAD DUP1 SWAP2 SUB SWAP1 RETURN JUMPDEST CALLVALUE DUP1 ISZERO PUSH2 0x248 JUMPI PUSH0 DUP1 REVERT JUMPDEST POP PUSH2 0x251 PUSH2 0x8F9 JUMP JUMPDEST PUSH1 0x40 MLOAD PUSH2 0x25E SWAP2 SWAP1 PUSH2 0x91D JUMP JUMPDEST PUSH1 0x40 MLOAD DUP1 SWAP2 SUB SWAP1 RETURN JUMPDEST CALLVALUE DUP1 ISZERO PUSH2 0x272 JUMPI PUSH0 DUP1 REVERT JUMPDEST POP PUSH2 0x27B PUSH2 0x8FF JUMP JUMPDEST PUSH1 0x40 MLOAD PUSH2 0x288 SWAP2 SWAP1 PUSH2 0x91D JUMP JUMPDEST PUSH1 0x40 MLOAD DUP1 SWAP2 SUB SWAP1 RETURN JUMPDEST PUSH0 SELFBALANCE SWAP1 POP SWAP1 JUMP JUMPDEST PUSH1 0x1 PUSH0 SWAP1 SLOAD SWAP1 PUSH2 0x100 EXP SWAP1 DIV PUSH20 0xFFFFFFFFFFFFFFFFFFFFFFFFFFFFFFFFFFFFFFFF AND PUSH20 0xFFFFFFFFFFFFFFFFFFFFFFFFFFFFFFFFFFFFFFFF AND CALLER PUSH20 0xFFFFFFFFFFFFFFFFFFFFFFFFFFFFFFFFFFFFFFFF AND EQ PUSH2 0x327 JUMPI PUSH1 0x40 MLOAD PUSH32 0x8C379A000000000000000000000000000000000000000000000000000000000 DUP2 MSTORE PUSH1 0x4 ADD PUSH2 0x31E SWAP1 PUSH2 0xD6F JUMP JUMPDEST PUSH1 0x40 MLOAD DUP1 SWAP2 SUB SWAP1 REVERT JUMPDEST PUSH0 PUSH1 0x5 PUSH0 PUSH1 0x6 SLOAD DUP2 MSTORE PUSH1 0x20 ADD SWAP1 DUP2 MSTORE PUSH1 0x20 ADD PUSH0 KECCAK256 SWAP1 POP PUSH1 0x6 PUSH0 DUP2 SLOAD DUP1 SWAP3 SWAP2 SWAP1 PUSH2 0x34F SWAP1 PUSH2 0xDBA JUMP JUMPDEST SWAP2 SWAP1 POP SSTORE POP DUP4 DUP2 PUSH0 ADD SWAP1 DUP2 PUSH2 0x364 SWAP2 SWAP1 PUSH2 0xFFB JUMP JUMPDEST POP DUP3 DUP2 PUSH1 0x1 ADD PUSH0 PUSH2 0x100 EXP DUP2 SLOAD DUP2 PUSH20 0xFFFFFFFFFFFFFFFFFFFFFFFFFFFFFFFFFFFFFFFF MUL NOT AND SWAP1 DUP4 PUSH20 0xFFFFFFFFFFFFFFFFFFFFFFFFFFFFFFFFFFFFFFFF AND MUL OR SWAP1 SSTORE POP DUP2 DUP2 PUSH1 0x2 ADD DUP2 SWAP1 SSTORE POP PUSH0 DUP2 PUSH1 0x3 ADD PUSH0 PUSH2 0x100 EXP DUP2 SLOAD DUP2 PUSH1 0xFF MUL NOT AND SWAP1 DUP4 ISZERO ISZERO MUL OR SWAP1 SSTORE POP POP POP POP POP JUMP JUMPDEST PUSH1 0x2 SLOAD DUP2 JUMP JUMPDEST PUSH0 PUSH1 0x20 MSTORE DUP1 PUSH0 MSTORE PUSH1 0x40 PUSH0 KECCAK256 PUSH0 SWAP2 POP SWAP1 POP SLOAD DUP2 JUMP JUMPDEST PUSH1 0x1 PUSH0 SWAP1 SLOAD SWAP1 PUSH2 0x100 EXP SWAP1 DIV PUSH20 0xFFFFFFFFFFFFFFFFFFFFFFFFFFFFFFFFFFFFFFFF AND DUP2 JUMP JUMPDEST PUSH1 0x1 PUSH0 SWAP1 SLOAD SWAP1 PUSH2 0x100 EXP SWAP1 DIV PUSH20 0xFFFFFFFFFFFFFFFFFFFFFFFFFFFFFFFFFFFFFFFF AND PUSH20 0xFFFFFFFFFFFFFFFFFFFFFFFFFFFFFFFFFFFFFFFF AND CALLER PUSH20 0xFFFFFFFFFFFFFFFFFFFFFFFFFFFFFFFFFFFFFFFF AND EQ PUSH2 0x49F JUMPI PUSH1 0x40 MLOAD PUSH32 0x8C379A000000000000000000000000000000000000000000000000000000000 DUP2 MSTORE PUSH1 0x4 ADD PUSH2 0x496 SWAP1 PUSH2 0xD6F JUMP JUMPDEST PUSH1 0x40 MLOAD DUP1 SWAP2 SUB SWAP1 REVERT JUMPDEST PUSH1 0x3 SLOAD PUSH1 0x4 SLOAD LT ISZERO PUSH2 0x4AF JUMPI PUSH0 DUP1 REVERT JUMPDEST PUSH0 PUSH1 0x5 PUSH0 DUP4 DUP2 MSTORE PUSH1 0x20 ADD SWAP1 DUP2 MSTORE PUSH1 0x20 ADD PUSH0 KECCAK256 SWAP1 POP PUSH0 ISZERO ISZERO DUP2 PUSH1 0x3 ADD PUSH0 SWAP1 SLOAD SWAP1 PUSH2 0x100 EXP SWAP1 DIV PUSH1 0xFF AND ISZERO ISZERO EQ PUSH2 0x519 JUMPI PUSH1 0x40 MLOAD PUSH32 0x8C379A000000000000000000000000000000000000000000000000000000000 DUP2 MSTORE PUSH1 0x4 ADD PUSH2 0x510 SWAP1 PUSH2 0x1114 JUMP JUMPDEST PUSH1 0x40 MLOAD DUP1 SWAP2 SUB SWAP1 REVERT JUMPDEST DUP1 PUSH1 0x1 ADD PUSH0 SWAP1 SLOAD SWAP1 PUSH2 0x100 EXP SWAP1 DIV PUSH20 0xFFFFFFFFFFFFFFFFFFFFFFFFFFFFFFFFFFFFFFFF AND PUSH20 0xFFFFFFFFFFFFFFFFFFFFFFFFFFFFFFFFFFFFFFFF AND PUSH2 0x8FC DUP3 PUSH1 0x2 ADD SLOAD SWAP1 DUP2 ISZERO MUL SWAP1 PUSH1 0x40 MLOAD PUSH0 PUSH1 0x40 MLOAD DUP1 DUP4 SUB DUP2 DUP6 DUP9 DUP9 CALL SWAP4 POP POP POP POP ISZERO DUP1 ISZERO PUSH2 0x583 JUMPI RETURNDATASIZE PUSH0 DUP1 RETURNDATACOPY RETURNDATASIZE PUSH0 REVERT JUMPDEST POP PUSH1 0x1 DUP2 PUSH1 0x3 ADD PUSH0 PUSH2 0x100 EXP DUP2 SLOAD DUP2 PUSH1 0xFF MUL NOT AND SWAP1 DUP4 ISZERO ISZERO MUL OR SWAP1 SSTORE POP POP POP JUMP JUMPDEST PUSH1 0x2 SLOAD TIMESTAMP GT DUP1 ISZERO PUSH2 0x5B8 JUMPI POP PUSH1 0x3 SLOAD PUSH1 0x4 SLOAD LT JUMPDEST PUSH2 0x5F7 JUMPI PUSH1 0x40 MLOAD PUSH32 0x8C379A000000000000000000000000000000000000000000000000000000000 DUP2 MSTORE PUSH1 0x4 ADD PUSH2 0x5EE SWAP1 PUSH2 0x117C JUMP JUMPDEST PUSH1 0x40 MLOAD DUP1 SWAP2 SUB SWAP1 REVERT JUMPDEST PUSH0 DUP1 PUSH0 CALLER PUSH20 0xFFFFFFFFFFFFFFFFFFFFFFFFFFFFFFFFFFFFFFFF AND PUSH20 0xFFFFFFFFFFFFFFFFFFFFFFFFFFFFFFFFFFFFFFFF AND DUP2 MSTORE PUSH1 0x20 ADD SWAP1 DUP2 MSTORE PUSH1 0x20 ADD PUSH0 KECCAK256 SLOAD SWAP1 POP PUSH0 DUP2 GT PUSH2 0x679 JUMPI PUSH1 0x40 MLOAD PUSH32 0x8C379A000000000000000000000000000000000000000000000000000000000 DUP2 MSTORE PUSH1 0x4 ADD PUSH2 0x670 SWAP1 PUSH2 0x11E4 JUMP JUMPDEST PUSH1 0x40 MLOAD DUP1 SWAP2 SUB SWAP1 REVERT JUMPDEST PUSH0 CALLER PUSH20 0xFFFFFFFFFFFFFFFFFFFFFFFFFFFFFFFFFFFFFFFF AND DUP3 PUSH1 0x40 MLOAD PUSH2 0x69E SWAP1 PUSH2 0x122F JUMP JUMPDEST PUSH0 PUSH1 0x40 MLOAD DUP1 DUP4 SUB DUP2 DUP6 DUP8 GAS CALL SWAP3 POP POP POP RETURNDATASIZE DUP1 PUSH0 DUP2 EQ PUSH2 0x6D8 JUMPI PUSH1 0x40 MLOAD SWAP2 POP PUSH1 0x1F NOT PUSH1 0x3F RETURNDATASIZE ADD AND DUP3 ADD PUSH1 0x40 MSTORE RETURNDATASIZE DUP3 MSTORE RETURNDATASIZE PUSH0 PUSH1 0x20 DUP5 ADD RETURNDATACOPY PUSH2 0x6DD JUMP JUMPDEST PUSH1 0x60 SWAP2 POP JUMPDEST POP POP SWAP1 POP DUP1 PUSH2 0x721 JUMPI PUSH1 0x40 MLOAD PUSH32 0x8C379A000000000000000000000000000000000000000000000000000000000 DUP2 MSTORE PUSH1 0x4 ADD PUSH2 0x718 SWAP1 PUSH2 0x128D JUMP JUMPDEST PUSH1 0x40 MLOAD DUP1 SWAP2 SUB SWAP1 REVERT JUMPDEST PUSH0 DUP1 PUSH0 CALLER PUSH20 0xFFFFFFFFFFFFFFFFFFFFFFFFFFFFFFFFFFFFFFFF AND PUSH20 0xFFFFFFFFFFFFFFFFFFFFFFFFFFFFFFFFFFFFFFFF AND DUP2 MSTORE PUSH1 0x20 ADD SWAP1 DUP2 MSTORE PUSH1 0x20 ADD PUSH0 KECCAK256 DUP2 SWAP1 SSTORE POP POP POP JUMP JUMPDEST PUSH1 0x5 PUSH1 0x20 MSTORE DUP1 PUSH0 MSTORE PUSH1 0x40 PUSH0 KECCAK256 PUSH0 SWAP2 POP SWAP1 POP DUP1 PUSH0 ADD DUP1 SLOAD PUSH2 0x785 SWAP1 PUSH2 0xE2E JUMP JUMPDEST DUP1 PUSH1 0x1F ADD PUSH1 0x20 DUP1 SWAP2 DIV MUL PUSH1 0x20 ADD PUSH1 0x40 MLOAD SWAP1 DUP2 ADD PUSH1 0x40 MSTORE DUP1 SWAP3 SWAP2 SWAP1 DUP2 DUP2 MSTORE PUSH1 0x20 ADD DUP3 DUP1 SLOAD PUSH2 0x7B1 SWAP1 PUSH2 0xE2E JUMP JUMPDEST DUP1 ISZERO PUSH2 0x7FC JUMPI DUP1 PUSH1 0x1F LT PUSH2 0x7D3 JUMPI PUSH2 0x100 DUP1 DUP4 SLOAD DIV MUL DUP4 MSTORE SWAP2 PUSH1 0x20 ADD SWAP2 PUSH2 0x7FC JUMP JUMPDEST DUP3 ADD SWAP2 SWAP1 PUSH0 MSTORE PUSH1 0x20 PUSH0 KECCAK256 SWAP1 JUMPDEST DUP2 SLOAD DUP2 MSTORE SWAP1 PUSH1 0x1 ADD SWAP1 PUSH1 0x20 ADD DUP1 DUP4 GT PUSH2 0x7DF JUMPI DUP3 SWAP1 SUB PUSH1 0x1F AND DUP3 ADD SWAP2 JUMPDEST POP POP POP POP POP SWAP1 DUP1 PUSH1 0x1 ADD PUSH0 SWAP1 SLOAD SWAP1 PUSH2 0x100 EXP SWAP1 DIV PUSH20 0xFFFFFFFFFFFFFFFFFFFFFFFFFFFFFFFFFFFFFFFF AND SWAP1 DUP1 PUSH1 0x2 ADD SLOAD SWAP1 DUP1 PUSH1 0x3 ADD PUSH0 SWAP1 SLOAD SWAP1 PUSH2 0x100 EXP SWAP1 DIV PUSH1 0xFF AND SWAP1 POP DUP5 JUMP JUMPDEST PUSH1 0x2 SLOAD TIMESTAMP LT PUSH2 0x887 JUMPI PUSH1 0x40 MLOAD PUSH32 0x8C379A000000000000000000000000000000000000000000000000000000000 DUP2 MSTORE PUSH1 0x4 ADD PUSH2 0x87E SWAP1 PUSH2 0x12F5 JUMP JUMPDEST PUSH1 0x40 MLOAD DUP1 SWAP2 SUB SWAP1 REVERT JUMPDEST CALLVALUE PUSH0 DUP1 CALLER PUSH20 0xFFFFFFFFFFFFFFFFFFFFFFFFFFFFFFFFFFFFFFFF AND PUSH20 0xFFFFFFFFFFFFFFFFFFFFFFFFFFFFFFFFFFFFFFFF AND DUP2 MSTORE PUSH1 0x20 ADD SWAP1 DUP2 MSTORE PUSH1 0x20 ADD PUSH0 KECCAK256 PUSH0 DUP3 DUP3 SLOAD PUSH2 0x8D2 SWAP2 SWAP1 PUSH2 0x1313 JUMP JUMPDEST SWAP3 POP POP DUP2 SWAP1 SSTORE POP CALLVALUE PUSH1 0x4 PUSH0 DUP3 DUP3 SLOAD PUSH2 0x8EA SWAP2 SWAP1 PUSH2 0x1313 JUMP JUMPDEST SWAP3 POP POP DUP2 SWAP1 SSTORE POP JUMP JUMPDEST PUSH1 0x3 SLOAD DUP2 JUMP JUMPDEST PUSH1 0x6 SLOAD DUP2 JUMP JUMPDEST PUSH1 0x4 SLOAD DUP2 JUMP JUMPDEST PUSH0 DUP2 SWAP1 POP SWAP2 SWAP1 POP JUMP JUMPDEST PUSH2 0x917 DUP2 PUSH2 0x905 JUMP JUMPDEST DUP3 MSTORE POP POP JUMP JUMPDEST PUSH0 PUSH1 0x20 DUP3 ADD SWAP1 POP PUSH2 0x930 PUSH0 DUP4 ADD DUP5 PUSH2 0x90E JUMP JUMPDEST SWAP3 SWAP2 POP POP JUMP JUMPDEST PUSH0 PUSH1 0x40 MLOAD SWAP1 POP SWAP1 JUMP JUMPDEST PUSH0 DUP1 REVERT JUMPDEST PUSH0 DUP1 REVERT JUMPDEST PUSH0 DUP1 REVERT JUMPDEST PUSH0 DUP1 REVERT JUMPDEST PUSH0 PUSH1 0x1F NOT PUSH1 0x1F DUP4 ADD AND SWAP1 POP SWAP2 SWAP1 POP JUMP JUMPDEST PUSH32 0x4E487B7100000000000000000000000000000000000000000000000000000000 PUSH0 MSTORE PUSH1 0x41 PUSH1 0x4 MSTORE PUSH1 0x24 PUSH0 REVERT JUMPDEST PUSH2 0x995 DUP3 PUSH2 0x94F JUMP JUMPDEST DUP2 ADD DUP2 DUP2 LT PUSH8 0xFFFFFFFFFFFFFFFF DUP3 GT OR ISZERO PUSH2 0x9B4 JUMPI PUSH2 0x9B3 PUSH2 0x95F JUMP JUMPDEST JUMPDEST DUP1 PUSH1 0x40 MSTORE POP POP POP JUMP JUMPDEST PUSH0 PUSH2 0x9C6 PUSH2 0x936 JUMP JUMPDEST SWAP1 POP PUSH2 0x9D2 DUP3 DUP3 PUSH2 0x98C JUMP JUMPDEST SWAP2 SWAP1 POP JUMP JUMPDEST PUSH0 PUSH8 0xFFFFFFFFFFFFFFFF DUP3 GT ISZERO PUSH2 0x9F1 JUMPI PUSH2 0x9F0 PUSH2 0x95F JUMP JUMPDEST JUMPDEST PUSH2 0x9FA DUP3 PUSH2 0x94F JUMP JUMPDEST SWAP1 POP PUSH1 0x20 DUP2 ADD SWAP1 POP SWAP2 SWAP1 POP JUMP JUMPDEST DUP3 DUP2 DUP4 CALLDATACOPY PUSH0 DUP4 DUP4 ADD MSTORE POP POP POP JUMP JUMPDEST PUSH0 PUSH2 0xA27 PUSH2 0xA22 DUP5 PUSH2 0x9D7 JUMP JUMPDEST PUSH2 0x9BD JUMP JUMPDEST SWAP1 POP DUP3 DUP2 MSTORE PUSH1 0x20 DUP2 ADD DUP5 DUP5 DUP5 ADD GT ISZERO PUSH2 0xA43 JUMPI PUSH2 0xA42 PUSH2 0x94B JUMP JUMPDEST JUMPDEST PUSH2 0xA4E DUP5 DUP3 DUP6 PUSH2 0xA07 JUMP JUMPDEST POP SWAP4 SWAP3 POP POP POP JUMP JUMPDEST PUSH0 DUP3 PUSH1 0x1F DUP4 ADD SLT PUSH2 0xA6A JUMPI PUSH2 0xA69 PUSH2 0x947 JUMP JUMPDEST JUMPDEST DUP2 CALLDATALOAD PUSH2 0xA7A DUP5 DUP3 PUSH1 0x20 DUP7 ADD PUSH2 0xA15 JUMP JUMPDEST SWAP2 POP POP SWAP3 SWAP2 POP POP JUMP JUMPDEST PUSH0 PUSH20 0xFFFFFFFFFFFFFFFFFFFFFFFFFFFFFFFFFFFFFFFF DUP3 AND SWAP1 POP SWAP2 SWAP1 POP JUMP JUMPDEST PUSH0 PUSH2 0xAAC DUP3 PUSH2 0xA83 JUMP JUMPDEST SWAP1 POP SWAP2 SWAP1 POP JUMP JUMPDEST PUSH2 0xABC DUP2 PUSH2 0xAA2 JUMP JUMPDEST DUP2 EQ PUSH2 0xAC6 JUMPI PUSH0 DUP1 REVERT JUMPDEST POP JUMP JUMPDEST PUSH0 DUP2 CALLDATALOAD SWAP1 POP PUSH2 0xAD7 DUP2 PUSH2 0xAB3 JUMP JUMPDEST SWAP3 SWAP2 POP POP JUMP JUMPDEST PUSH2 0xAE6 DUP2 PUSH2 0x905 JUMP JUMPDEST DUP2 EQ PUSH2 0xAF0 JUMPI PUSH0 DUP1 REVERT JUMPDEST POP JUMP JUMPDEST PUSH0 DUP2 CALLDATALOAD SWAP1 POP PUSH2 0xB01 DUP2 PUSH2 0xADD JUMP JUMPDEST SWAP3 SWAP2 POP POP JUMP JUMPDEST PUSH0 DUP1 PUSH0 PUSH1 0x60 DUP5 DUP7 SUB SLT ISZERO PUSH2 0xB1E JUMPI PUSH2 0xB1D PUSH2 0x93F JUMP JUMPDEST JUMPDEST PUSH0 DUP5 ADD CALLDATALOAD PUSH8 0xFFFFFFFFFFFFFFFF DUP2 GT ISZERO PUSH2 0xB3B JUMPI PUSH2 0xB3A PUSH2 0x943 JUMP JUMPDEST JUMPDEST PUSH2 0xB47 DUP7 DUP3 DUP8 ADD PUSH2 0xA56 JUMP JUMPDEST SWAP4 POP POP PUSH1 0x20 PUSH2 0xB58 DUP7 DUP3 DUP8 ADD PUSH2 0xAC9 JUMP JUMPDEST SWAP3 POP POP PUSH1 0x40 PUSH2 0xB69 DUP7 DUP3 DUP8 ADD PUSH2 0xAF3 JUMP JUMPDEST SWAP2 POP POP SWAP3 POP SWAP3 POP SWAP3 JUMP JUMPDEST PUSH0 PUSH2 0xB7D DUP3 PUSH2 0xA83 JUMP JUMPDEST SWAP1 POP SWAP2 SWAP1 POP JUMP JUMPDEST PUSH2 0xB8D DUP2 PUSH2 0xB73 JUMP JUMPDEST DUP2 EQ PUSH2 0xB97 JUMPI PUSH0 DUP1 REVERT JUMPDEST POP JUMP JUMPDEST PUSH0 DUP2 CALLDATALOAD SWAP1 POP PUSH2 0xBA8 DUP2 PUSH2 0xB84 JUMP JUMPDEST SWAP3 SWAP2 POP POP JUMP JUMPDEST PUSH0 PUSH1 0x20 DUP3 DUP5 SUB SLT ISZERO PUSH2 0xBC3 JUMPI PUSH2 0xBC2 PUSH2 0x93F JUMP JUMPDEST JUMPDEST PUSH0 PUSH2 0xBD0 DUP5 DUP3 DUP6 ADD PUSH2 0xB9A JUMP JUMPDEST SWAP2 POP POP SWAP3 SWAP2 POP POP JUMP JUMPDEST PUSH2 0xBE2 DUP2 PUSH2 0xB73 JUMP JUMPDEST DUP3 MSTORE POP POP JUMP JUMPDEST PUSH0 PUSH1 0x20 DUP3 ADD SWAP1 POP PUSH2 0xBFB PUSH0 DUP4 ADD DUP5 PUSH2 0xBD9 JUMP JUMPDEST SWAP3 SWAP2 POP POP JUMP JUMPDEST PUSH0 PUSH1 0x20 DUP3 DUP5 SUB SLT ISZERO PUSH2 0xC16 JUMPI PUSH2 0xC15 PUSH2 0x93F JUMP JUMPDEST JUMPDEST PUSH0 PUSH2 0xC23 DUP5 DUP3 DUP6 ADD PUSH2 0xAF3 JUMP JUMPDEST SWAP2 POP POP SWAP3 SWAP2 POP POP JUMP JUMPDEST PUSH0 DUP2 MLOAD SWAP1 POP SWAP2 SWAP1 POP JUMP JUMPDEST PUSH0 DUP3 DUP3 MSTORE PUSH1 0x20 DUP3 ADD SWAP1 POP SWAP3 SWAP2 POP POP JUMP JUMPDEST DUP3 DUP2 DUP4 MCOPY PUSH0 DUP4 DUP4 ADD MSTORE POP POP POP JUMP JUMPDEST PUSH0 PUSH2 0xC5E DUP3 PUSH2 0xC2C JUMP JUMPDEST PUSH2 0xC68 DUP2 DUP6 PUSH2 0xC36 JUMP JUMPDEST SWAP4 POP PUSH2 0xC78 DUP2 DUP6 PUSH1 0x20 DUP7 ADD PUSH2 0xC46 JUMP JUMPDEST PUSH2 0xC81 DUP2 PUSH2 0x94F JUMP JUMPDEST DUP5 ADD SWAP2 POP POP SWAP3 SWAP2 POP POP JUMP JUMPDEST PUSH2 0xC95 DUP2 PUSH2 0xAA2 JUMP JUMPDEST DUP3 MSTORE POP POP JUMP JUMPDEST PUSH0 DUP2 ISZERO ISZERO SWAP1 POP SWAP2 SWAP1 POP JUMP JUMPDEST PUSH2 0xCAF DUP2 PUSH2 0xC9B JUMP JUMPDEST DUP3 MSTORE POP POP JUMP JUMPDEST PUSH0 PUSH1 0x80 DUP3 ADD SWAP1 POP DUP2 DUP2 SUB PUSH0 DUP4 ADD MSTORE PUSH2 0xCCD DUP2 DUP8 PUSH2 0xC54 JUMP JUMPDEST SWAP1 POP PUSH2 0xCDC PUSH1 0x20 DUP4 ADD DUP7 PUSH2 0xC8C JUMP JUMPDEST PUSH2 0xCE9 PUSH1 0x40 DUP4 ADD DUP6 PUSH2 0x90E JUMP JUMPDEST PUSH2 0xCF6 PUSH1 0x60 DUP4 ADD DUP5 PUSH2 0xCA6 JUMP JUMPDEST SWAP6 SWAP5 POP POP POP POP POP JUMP JUMPDEST PUSH32 0x536F6C6F20656C2061646D696E6973747261646F7220707565646520656A6563 PUSH0 DUP3 ADD MSTORE PUSH32 0x7574617220657374612066756E63696F6E000000000000000000000000000000 PUSH1 0x20 DUP3 ADD MSTORE POP JUMP JUMPDEST PUSH0 PUSH2 0xD59 PUSH1 0x31 DUP4 PUSH2 0xC36 JUMP JUMPDEST SWAP2 POP PUSH2 0xD64 DUP3 PUSH2 0xCFF JUMP JUMPDEST PUSH1 0x40 DUP3 ADD SWAP1 POP SWAP2 SWAP1 POP JUMP JUMPDEST PUSH0 PUSH1 0x20 DUP3 ADD SWAP1 POP DUP2 DUP2 SUB PUSH0 DUP4 ADD MSTORE PUSH2 0xD86 DUP2 PUSH2 0xD4D JUMP JUMPDEST SWAP1 POP SWAP2 SWAP1 POP JUMP JUMPDEST PUSH32 0x4E487B7100000000000000000000000000000000000000000000000000000000 PUSH0 MSTORE PUSH1 0x11 PUSH1 0x4 MSTORE PUSH1 0x24 PUSH0 REVERT JUMPDEST PUSH0 PUSH2 0xDC4 DUP3 PUSH2 0x905 JUMP JUMPDEST SWAP2 POP PUSH32 0xFFFFFFFFFFFFFFFFFFFFFFFFFFFFFFFFFFFFFFFFFFFFFFFFFFFFFFFFFFFFFFFF DUP3 SUB PUSH2 0xDF6 JUMPI PUSH2 0xDF5 PUSH2 0xD8D JUMP JUMPDEST JUMPDEST PUSH1 0x1 DUP3 ADD SWAP1 POP SWAP2 SWAP1 POP JUMP JUMPDEST PUSH32 0x4E487B7100000000000000000000000000000000000000000000000000000000 PUSH0 MSTORE PUSH1 0x22 PUSH1 0x4 MSTORE PUSH1 0x24 PUSH0 REVERT JUMPDEST PUSH0 PUSH1 0x2 DUP3 DIV SWAP1 POP PUSH1 0x1 DUP3 AND DUP1 PUSH2 0xE45 JUMPI PUSH1 0x7F DUP3 AND SWAP2 POP JUMPDEST PUSH1 0x20 DUP3 LT DUP2 SUB PUSH2 0xE58 JUMPI PUSH2 0xE57 PUSH2 0xE01 JUMP JUMPDEST JUMPDEST POP SWAP2 SWAP1 POP JUMP JUMPDEST PUSH0 DUP2 SWAP1 POP DUP2 PUSH0 MSTORE PUSH1 0x20 PUSH0 KECCAK256 SWAP1 POP SWAP2 SWAP1 POP JUMP JUMPDEST PUSH0 PUSH1 0x20 PUSH1 0x1F DUP4 ADD DIV SWAP1 POP SWAP2 SWAP1 POP JUMP JUMPDEST PUSH0 DUP3 DUP3 SHL SWAP1 POP SWAP3 SWAP2 POP POP JUMP JUMPDEST PUSH0 PUSH1 0x8 DUP4 MUL PUSH2 0xEBA PUSH32 0xFFFFFFFFFFFFFFFFFFFFFFFFFFFFFFFFFFFFFFFFFFFFFFFFFFFFFFFFFFFFFFFF DUP3 PUSH2 0xE7F JUMP JUMPDEST PUSH2 0xEC4 DUP7 DUP4 PUSH2 0xE7F JUMP JUMPDEST SWAP6 POP DUP1 NOT DUP5 AND SWAP4 POP DUP1 DUP7 AND DUP5 OR SWAP3 POP POP POP SWAP4 SWAP3 POP POP POP JUMP JUMPDEST PUSH0 DUP2 SWAP1 POP SWAP2 SWAP1 POP JUMP JUMPDEST PUSH0 PUSH2 0xEFF PUSH2 0xEFA PUSH2 0xEF5 DUP5 PUSH2 0x905 JUMP JUMPDEST PUSH2 0xEDC JUMP JUMPDEST PUSH2 0x905 JUMP JUMPDEST SWAP1 POP SWAP2 SWAP1 POP JUMP JUMPDEST PUSH0 DUP2 SWAP1 POP SWAP2 SWAP1 POP JUMP JUMPDEST PUSH2 0xF18 DUP4 PUSH2 0xEE5 JUMP JUMPDEST PUSH2 0xF2C PUSH2 0xF24 DUP3 PUSH2 0xF06 JUMP JUMPDEST DUP5 DUP5 SLOAD PUSH2 0xE8B JUMP JUMPDEST DUP3 SSTORE POP POP POP POP JUMP JUMPDEST PUSH0 SWAP1 JUMP JUMPDEST PUSH2 0xF40 PUSH2 0xF34 JUMP JUMPDEST PUSH2 0xF4B DUP2 DUP5 DUP5 PUSH2 0xF0F JUMP JUMPDEST POP POP POP JUMP JUMPDEST JUMPDEST DUP2 DUP2 LT ISZERO PUSH2 0xF6E JUMPI PUSH2 0xF63 PUSH0 DUP3 PUSH2 0xF38 JUMP JUMPDEST PUSH1 0x1 DUP2 ADD SWAP1 POP PUSH2 0xF51 JUMP JUMPDEST POP POP JUMP JUMPDEST PUSH1 0x1F DUP3 GT ISZERO PUSH2 0xFB3 JUMPI PUSH2 0xF84 DUP2 PUSH2 0xE5E JUMP JUMPDEST PUSH2 0xF8D DUP5 PUSH2 0xE70 JUMP JUMPDEST DUP2 ADD PUSH1 0x20 DUP6 LT ISZERO PUSH2 0xF9C JUMPI DUP2 SWAP1 POP JUMPDEST PUSH2 0xFB0 PUSH2 0xFA8 DUP6 PUSH2 0xE70 JUMP JUMPDEST DUP4 ADD DUP3 PUSH2 0xF50 JUMP JUMPDEST POP POP JUMPDEST POP POP POP JUMP JUMPDEST PUSH0 DUP3 DUP3 SHR SWAP1 POP SWAP3 SWAP2 POP POP JUMP JUMPDEST PUSH0 PUSH2 0xFD3 PUSH0 NOT DUP5 PUSH1 0x8 MUL PUSH2 0xFB8 JUMP JUMPDEST NOT DUP1 DUP4 AND SWAP2 POP POP SWAP3 SWAP2 POP POP JUMP JUMPDEST PUSH0 PUSH2 0xFEB DUP4 DUP4 PUSH2 0xFC4 JUMP JUMPDEST SWAP2 POP DUP3 PUSH1 0x2 MUL DUP3 OR SWAP1 POP SWAP3 SWAP2 POP POP JUMP JUMPDEST PUSH2 0x1004 DUP3 PUSH2 0xC2C JUMP JUMPDEST PUSH8 0xFFFFFFFFFFFFFFFF DUP2 GT ISZERO PUSH2 0x101D JUMPI PUSH2 0x101C PUSH2 0x95F JUMP JUMPDEST JUMPDEST PUSH2 0x1027 DUP3 SLOAD PUSH2 0xE2E JUMP JUMPDEST PUSH2 0x1032 DUP3 DUP3 DUP6 PUSH2 0xF72 JUMP JUMPDEST PUSH0 PUSH1 0x20 SWAP1 POP PUSH1 0x1F DUP4 GT PUSH1 0x1 DUP2 EQ PUSH2 0x1063 JUMPI PUSH0 DUP5 ISZERO PUSH2 0x1051 JUMPI DUP3 DUP8 ADD MLOAD SWAP1 POP JUMPDEST PUSH2 0x105B DUP6 DUP3 PUSH2 0xFE0 JUMP JUMPDEST DUP7 SSTORE POP PUSH2 0x10C2 JUMP JUMPDEST PUSH1 0x1F NOT DUP5 AND PUSH2 0x1071 DUP7 PUSH2 0xE5E JUMP JUMPDEST PUSH0 JUMPDEST DUP3 DUP2 LT ISZERO PUSH2 0x1098 JUMPI DUP5 DUP10 ADD MLOAD DUP3 SSTORE PUSH1 0x1 DUP3 ADD SWAP2 POP PUSH1 0x20 DUP6 ADD SWAP5 POP PUSH1 0x20 DUP2 ADD SWAP1 POP PUSH2 0x1073 JUMP JUMPDEST DUP7 DUP4 LT ISZERO PUSH2 0x10B5 JUMPI DUP5 DUP10 ADD MLOAD PUSH2 0x10B1 PUSH1 0x1F DUP10 AND DUP3 PUSH2 0xFC4 JUMP JUMPDEST DUP4 SSTORE POP JUMPDEST PUSH1 0x1 PUSH1 0x2 DUP9 MUL ADD DUP9 SSTORE POP POP POP JUMPDEST POP POP POP POP POP POP JUMP JUMPDEST PUSH32 0x45737461207065746963696F6E206E6F2066756520636F6D706C657461646100 PUSH0 DUP3 ADD MSTORE POP JUMP JUMPDEST PUSH0 PUSH2 0x10FE PUSH1 0x1F DUP4 PUSH2 0xC36 JUMP JUMPDEST SWAP2 POP PUSH2 0x1109 DUP3 PUSH2 0x10CA JUMP JUMPDEST PUSH1 0x20 DUP3 ADD SWAP1 POP SWAP2 SWAP1 POP JUMP JUMPDEST PUSH0 PUSH1 0x20 DUP3 ADD SWAP1 POP DUP2 DUP2 SUB PUSH0 DUP4 ADD MSTORE PUSH2 0x112B DUP2 PUSH2 0x10F2 JUMP JUMPDEST SWAP1 POP SWAP2 SWAP1 POP JUMP JUMPDEST PUSH32 0x4E6F207365207075656465207265656D626F6C736172202E2E2E000000000000 PUSH0 DUP3 ADD MSTORE POP JUMP JUMPDEST PUSH0 PUSH2 0x1166 PUSH1 0x1A DUP4 PUSH2 0xC36 JUMP JUMPDEST SWAP2 POP PUSH2 0x1171 DUP3 PUSH2 0x1132 JUMP JUMPDEST PUSH1 0x20 DUP3 ADD SWAP1 POP SWAP2 SWAP1 POP JUMP JUMPDEST PUSH0 PUSH1 0x20 DUP3 ADD SWAP1 POP DUP2 DUP2 SUB PUSH0 DUP4 ADD MSTORE PUSH2 0x1193 DUP2 PUSH2 0x115A JUMP JUMPDEST SWAP1 POP SWAP2 SWAP1 POP JUMP JUMPDEST PUSH32 0x4E6F2070757369737465207061206C6120766163610000000000000000000000 PUSH0 DUP3 ADD MSTORE POP JUMP JUMPDEST PUSH0 PUSH2 0x11CE PUSH1 0x15 DUP4 PUSH2 0xC36 JUMP JUMPDEST SWAP2 POP PUSH2 0x11D9 DUP3 PUSH2 0x119A JUMP JUMPDEST PUSH1 0x20 DUP3 ADD SWAP1 POP SWAP2 SWAP1 POP JUMP JUMPDEST PUSH0 PUSH1 0x20 DUP3 ADD SWAP1 POP DUP2 DUP2 SUB PUSH0 DUP4 ADD MSTORE PUSH2 0x11FB DUP2 PUSH2 0x11C2 JUMP JUMPDEST SWAP1 POP SWAP2 SWAP1 POP JUMP JUMPDEST PUSH0 DUP2 SWAP1 POP SWAP3 SWAP2 POP POP JUMP JUMPDEST POP JUMP JUMPDEST PUSH0 PUSH2 0x121A PUSH0 DUP4 PUSH2 0x1202 JUMP JUMPDEST SWAP2 POP PUSH2 0x1225 DUP3 PUSH2 0x120C JUMP JUMPDEST PUSH0 DUP3 ADD SWAP1 POP SWAP2 SWAP1 POP JUMP JUMPDEST PUSH0 PUSH2 0x1239 DUP3 PUSH2 0x120F JUMP JUMPDEST SWAP2 POP DUP2 SWAP1 POP SWAP2 SWAP1 POP JUMP JUMPDEST PUSH32 0x4C61207472616E73666572656E6369612066616C6C6F00000000000000000000 PUSH0 DUP3 ADD MSTORE POP JUMP JUMPDEST PUSH0 PUSH2 0x1277 PUSH1 0x16 DUP4 PUSH2 0xC36 JUMP JUMPDEST SWAP2 POP PUSH2 0x1282 DUP3 PUSH2 0x1243 JUMP JUMPDEST PUSH1 0x20 DUP3 ADD SWAP1 POP SWAP2 SWAP1 POP JUMP JUMPDEST PUSH0 PUSH1 0x20 DUP3 ADD SWAP1 POP DUP2 DUP2 SUB PUSH0 DUP4 ADD MSTORE PUSH2 0x12A4 DUP2 PUSH2 0x126B JUMP JUMPDEST SWAP1 POP SWAP2 SWAP1 POP JUMP JUMPDEST PUSH32 0x5465726D696E6F206C6120646561646C696E65203A2800000000000000000000 PUSH0 DUP3 ADD MSTORE POP JUMP JUMPDEST PUSH0 PUSH2 0x12DF PUSH1 0x16 DUP4 PUSH2 0xC36 JUMP JUMPDEST SWAP2 POP PUSH2 0x12EA DUP3 PUSH2 0x12AB JUMP JUMPDEST PUSH1 0x20 DUP3 ADD SWAP1 POP SWAP2 SWAP1 POP JUMP JUMPDEST PUSH0 PUSH1 0x20 DUP3 ADD SWAP1 POP DUP2 DUP2 SUB PUSH0 DUP4 ADD MSTORE PUSH2 0x130C DUP2 PUSH2 0x12D3 JUMP JUMPDEST SWAP1 POP SWAP2 SWAP1 POP JUMP JUMPDEST PUSH0 PUSH2 0x131D DUP3 PUSH2 0x905 JUMP JUMPDEST SWAP2 POP PUSH2 0x1328 DUP4 PUSH2 0x905 JUMP JUMPDEST SWAP3 POP DUP3 DUP3 ADD SWAP1 POP DUP1 DUP3 GT ISZERO PUSH2 0x1340 JUMPI PUSH2 0x133F PUSH2 0xD8D JUMP JUMPDEST JUMPDEST SWAP3 SWAP2 POP POP JUMP INVALID LOG2 PUSH5 0x6970667358 0x22 SLT KECCAK256 SWAP4 SELFBALANCE DUP9 PUSH28 0xE60AF5243B24F8792B26789B1E19A6680D588241E1FA5D64E794A7F PUSH5 0x736F6C6343 STOP ADDMOD BYTE STOP CALLER "
				},
				"gasEstimates": {
					"creation": {
						"codeDepositCost": "997600",
						"executionCost": "infinite",
						"totalCost": "infinite"
					},
					"external": {
						"createRequest(string,address,uint256)": "infinite",
						"deadline()": "2470",
						"fundContributors(address)": "2868",
						"getBalance()": "335",
						"makePayment(uint256)": "infinite",
						"manager()": "2597",
						"numRequests()": "2513",
						"raisedAmount()": "2535",
						"refund()": "infinite",
						"requests(uint256)": "infinite",
						"sendFunds()": "infinite",
						"targetAmount()": "2491"
					}
				},
				"methodIdentifiers": {
					"createRequest(string,address,uint256)": "1b16bb5c",
					"deadline()": "29dcb0cf",
					"fundContributors(address)": "4034a539",
					"getBalance()": "12065fe0",
					"makePayment(uint256)": "5114cb52",
					"manager()": "481c6a75",
					"numRequests()": "9fb42b1f",
					"raisedAmount()": "c59ee1dc",
					"refund()": "590e1ae3",
					"requests(uint256)": "81d12c58",
					"sendFunds()": "8d68cf59",
					"targetAmount()": "953b8fb8"
				}
			},
			"storageLayout": {
				"storage": [
					{
						"astId": 5,
						"contract": "crowfounding.sol:crowdFunding",
						"label": "fundContributors",
						"offset": 0,
						"slot": "0",
						"type": "t_mapping(t_address,t_uint256)"
					},
					{
						"astId": 7,
						"contract": "crowfounding.sol:crowdFunding",
						"label": "manager",
						"offset": 0,
						"slot": "1",
						"type": "t_address"
					},
					{
						"astId": 9,
						"contract": "crowfounding.sol:crowdFunding",
						"label": "deadline",
						"offset": 0,
						"slot": "2",
						"type": "t_uint256"
					},
					{
						"astId": 11,
						"contract": "crowfounding.sol:crowdFunding",
						"label": "targetAmount",
						"offset": 0,
						"slot": "3",
						"type": "t_uint256"
					},
					{
						"astId": 13,
						"contract": "crowfounding.sol:crowdFunding",
						"label": "raisedAmount",
						"offset": 0,
						"slot": "4",
						"type": "t_uint256"
					},
					{
						"astId": 27,
						"contract": "crowfounding.sol:crowdFunding",
						"label": "requests",
						"offset": 0,
						"slot": "5",
						"type": "t_mapping(t_uint256,t_struct(Request)22_storage)"
					},
					{
						"astId": 29,
						"contract": "crowfounding.sol:crowdFunding",
						"label": "numRequests",
						"offset": 0,
						"slot": "6",
						"type": "t_uint256"
					}
				],
				"types": {
					"t_address": {
						"encoding": "inplace",
						"label": "address",
						"numberOfBytes": "20"
					},
					"t_address_payable": {
						"encoding": "inplace",
						"label": "address payable",
						"numberOfBytes": "20"
					},
					"t_bool": {
						"encoding": "inplace",
						"label": "bool",
						"numberOfBytes": "1"
					},
					"t_mapping(t_address,t_uint256)": {
						"encoding": "mapping",
						"key": "t_address",
						"label": "mapping(address => uint256)",
						"numberOfBytes": "32",
						"value": "t_uint256"
					},
					"t_mapping(t_uint256,t_struct(Request)22_storage)": {
						"encoding": "mapping",
						"key": "t_uint256",
						"label": "mapping(uint256 => struct crowdFunding.Request)",
						"numberOfBytes": "32",
						"value": "t_struct(Request)22_storage"
					},
					"t_string_storage": {
						"encoding": "bytes",
						"label": "string",
						"numberOfBytes": "32"
					},
					"t_struct(Request)22_storage": {
						"encoding": "inplace",
						"label": "struct crowdFunding.Request",
						"members": [
							{
								"astId": 15,
								"contract": "crowfounding.sol:crowdFunding",
								"label": "description",
								"offset": 0,
								"slot": "0",
								"type": "t_string_storage"
							},
							{
								"astId": 17,
								"contract": "crowfounding.sol:crowdFunding",
								"label": "recipient",
								"offset": 0,
								"slot": "1",
								"type": "t_address_payable"
							},
							{
								"astId": 19,
								"contract": "crowfounding.sol:crowdFunding",
								"label": "value",
								"offset": 0,
								"slot": "2",
								"type": "t_uint256"
							},
							{
								"astId": 21,
								"contract": "crowfounding.sol:crowdFunding",
								"label": "completed",
								"offset": 0,
								"slot": "3",
								"type": "t_bool"
							}
						],
						"numberOfBytes": "128"
					},
					"t_uint256": {
						"encoding": "inplace",
						"label": "uint256",
						"numberOfBytes": "32"
					}
				}
			},
			"userdoc": {
				"kind": "user",
				"methods": {},
				"version": 1
			}
		}
	}
}